S010000050696E67506F6E672E73726563F2
S11300000C94B4010C94D1010C94D1010C94D10141
S11300100C94D1010C94D1010C94D1010C94D10114
S11300200C94D1010C94D1010C94D1010C94D10104
S11300300C94D1010C94D1010C94D1010C94D101F4
S11300400C94D1010C94D1010C94D1010C94D101E4
S11300500C94D1010C94D1010C94D1010C94D101D4
S11300600C94D1010C94D1010C94D1010C94D101C4
S1130070000000000000000000065F5F06000000B2
S11300800007070007070000147F7F147F7F140018
S1130090242E6B6B3A120000466630180C66620020
S11300A0307A4F5D377A48000407030000000000EF
S11300B0001C3E63410000000041633E1C00000040
S11300C0082A3E1C1C3E2A0808083E3E0808000078
S11300D000A0E0600000000008080808080800000C
S11300E000006060000000006030180C060301008E
S11300F03E7F594D7F3E000042427F7F40400000DA
S1130100627359496F660000226349497F360000D3
S1130110181C16137F7F1000276745457D390000A2
S11301203C7E4B4979300000036371190F070000CE
S1130130367F49497F360000064F49693F1E00005B
S113014000006C6C0000000000A0EC6C00000000DB
S1130150081C366341000000141414141414000025
S1130160004163361C080000020351590F060000C9
S11301703E7F415D5D1F1E007C7E13137E7C00006C
S1130180417F7F49497F36001C3E63414163220021
S1130190417F7F41637F1C00417F7F495D41630054
S11301A0417F7F491D0103001C3E6341517372006E
S11301B07F7F08087F7F000000417F7F41000000AF
S11301C0307040417F3F0100417F7F081C7763000E
S11301D0417F7F41406070007F7F060C067F7F0077
S11301E07F7F060C187F7F001C3E6341633E1C002A
S11301F0417F7F49090F06001E3F21717F5E000089
S1130200417F7F19396F460026674D597B320000C4
S113021003417F7F410300007F7F40407F7F0000D8
S11302201F3F60603F1F00007F7F3018307F7F00DA
S113023063771C081C776300074F78784F0700002A
S11302406773594D47637100007F7F41410000008F
S11302500103060C183060000041417F7F0000005C
S1130260080C0603060C0800808080808080808053
S11302700000030704000000207454543C7840003C
S1130280413F7F44447C3800387C44446C2800005F
S1130290307848493F7F4000387C54545C18000053
S11302A0487E7F490302000098BCA4A4F87C0400A3
S11302B0417F7F08047C780000447D7D400000007D
S11302C040C484FD7D000000417F7F10386C4400F1
S11302D000417F7F400000007C7C0C180C7C78007F
S11302E07C7C04047C780000387C44447C38000026
S11302F084FCF8A4243C1800183C24A4F8FC8400D2
S1130300447C78441C180000485C54547424000055
S113031000043E7F442400003C7C40403C7C400080
S11303201C3C60603C1C00003C7C6030607C3C00F9
S1130330446C3810386C44009CBCA0A0FC7C0000C9
S11303404C64745C4C64000008083E774141000032
S113035000000077770000004141773E0808000064
S1130360020301030203010011241FBECFEFD4E0F6
S1130370DEBFCDBF13E0A0E0B1E0EAE3F2E202C0E9
S113038005900D92AC3AB107D9F723E0ACEAB3E09B
S113039001C01D92A63BB207E1F70E944E020C94E5
S11303A01B110C940000EF92FF920F931F93CF93B5
S11303B0DF938CE191E00E947C0C0E94040C7C0190
S11303C00E94090CC0E0D0E000E010E020C00E94D0
S11303D0040CFE01F85E808320812817B9F0992768
S11303E09F938F931F922F93DF93CF9382E391E098
S11303F09F938F930E945F0C0F5F1F4F8DB79EB723
S113040008960FB6F8949EBF0FBE8DBF2196C115F6
S113041098E0D907E0F2C7010E94090CC0E0D0E0DF
S1130420E12CF12C20C00E94040CFE01F85E208116
S11304302817C1F099279F938F931F922F93DF93CF
S1130440CF938BE691E09F938F930E945F0C8FEF85
S1130450E81AF80A8DB79EB708960FB6F8949EBFAF
S11304600FBE8DBF2196C11598E0D907E0F2FF9227
S1130470EF921F930F9388EA91E09F938F930E94CA
S11304805F0C0F900F900F900F900F900F90DF91D3
S1130490CF911F910F91FF90EF900895CF93DF9329
S11304A0CDB7DEB72B970FB6F894DEBF0FBECDBF26
S11304B08FE190E00E94DB070E94FC0781E092E05C
S11304C00E947C0C0E94030883E192E00E947C0C51
S11304D00E94B9040E946E03811104C086E292E076
S11304E00E947C0C0E94D30180E00E94250380E0DE
S11304F090E0DC01813A26E8920721E0A207B105E9
S11305000CF46CC08CE20E94FD021F928F938DE369
S113051092E09F938F930E945F0C60E0CE0101965E
S11305200E944D048A818F9389818F938AE492E09B
S11305309F938F930E945F0CDB80ED2CF12C1F9214
S1130540DF928EE492E09F938F930E945F0C0FB62C
S1130550F894DEBF0FBECDBF00E010E015C0E4E0AC
S1130560F0E0EC0FFD1FE00FF11F80811F928F93CD
S113057084E593E09F938F930E945F0C0F5F1F4F5E
S11305800F900F900F900F900E151F0544F38AE003
S113059090E00E94750CD11004C080E090E0DC0172
S11305A01DC00E946B08E62EF72E082F192F9F936B
S11305B08F937F936F9382E592E09F938F930E9432
S11305C05F0C6E2D7F2D802F912F0E94F0060F90CF
S11305D00F900F900F900F900F9004C00196A11DE3
S11305E0B11D88CFFFCF88B38F7E88BB80EC0E947B
S11305F0D30788B3806188BB0895CF93C82F88B38D
S11306008F7E88BB83E00E94D3078C2F0E94D30780
S11306100E94D60798B3906198BBCF910895CF9369
S1130620DF93D82FC62F88B38F7E88BB82E00E94C9
S1130630D3078D2F0E94D3078C2F0E94D30788B332
S1130640806188BBDF91CF910895CF93C82F682F25
S11306508FE00E940F038EE00E94FD02807EC81787
S113066031F082E692E00E947C0C81E001C080E0DF
S1130670CF91089598B39F7E98BB813041F018F0D4
S1130680823049F00BC081E80E94D30707C082E89A
S11306900E94D30703C084E80E94D30788B3806113
S11306A088BB08951F93CF93DF93182FD62FC42FA1
S11306B088B38F7E88BB85E00E94D307812F0E9478
S11306C0D3078D2F0E94D3078C2F0E94D30788B3A2
S11306D0806188BBDF91CF911F9108950E94C50767
S11306E00E94F3028EE00E94FD02807E803831F089
S11306F085E992E00E947C0C81E0089563E08AE23F
S11307000E940F0360EB89E20E940F0365E488E214
S11307100E940F0340E260E680E60E94520340E23A
S113072060EE81E00E94520340E06FEF80E00E949F
S1130730520340EE60EE81E20E9452034FEF6FEFEE
S113074080E20E94520340E061E080E60E9452038E
S113075080E00895CF92DF92EF92FF920F931F9360
S1130760CF93DF93CDB7DEB72B970FB6F894DEBFE8
S11307700FBECDBFC982DA82EB82FC820D831E8359
S11307802F83388749875A876B87813021F120F07E
S1130790823009F441C03DC009811A81B8017695BF
S11307A06795769567957695679581E30E940F0323
S11307B0012B11F060E201C060E082E30E940F03AC
S11307C06B8185E30E940F0388B38F7E88BB81E42D
S11307D00E94D3071EC009811A81B80176956795D6
S11307E0769567957695679581E40E940F03012BB2
S11307F011F060E201C060E082E40E940F036B81AB
S113080085E40E940F0388B38F7E88BB83E40E9433
S1130810D30700E010E02AC009811A81B801769557
S11308206795769567957695679581E50E940F03A0
S1130830012B11F060E201C060E082E50E940F0329
S11308406B8185E50E940F0388B38F7E88BB85E4A6
S11308500E94D307DECFE4E0F0E0EC0FFD1FE00FD1
S1130860F11F80810E94D3070F5F1F4F8B8190E09F
S11308700817190784F388B3806188BB2B960FB6D9
S1130880F894DEBF0FBECDBFDF91CF911F910F91C2
S1130890FF90EF90DF90CF900895FF920F931F93F6
S11308A0CF93DF938C01662319F0613061F015C09A
S11308B085E60E94FD02F82E88B38F7E88BB82E90C
S11308C00E94D3070AC085E70E94FD02F82E88B370
S11308D08F7E88BB86E90E94D307C0E0D0E007C0C2
S11308E00E94D607F801EC0FFD1F838321968F2DFC
S11308F090E0C817D907A4F388B3806188BBF801D6
S1130900F28281E090E091838083C801DF91CF91EE
S11309101F910F91FF9008950F931F93CF93DF932F
S113092000E010E01EC060E070E080EB800F0E94E9
S11309301E0860E070E080E00E941E0860E070E045
S113094080E10E941E08C0E0D0E006C060E072E0D2
S113095080E00E941E082196C038D105BCF30F5FC9
S11309601F4F08301105FCF2DF91CF911F910F91B9
S1130970089560E070E08EEA0E941E0860E070E076
S113098081EA0E941E0860E070E08AED0E941E0861
S113099060E070E082E10E941E0860E070E088EC94
S11309A00E941E0860E070E088EA0E941E0860E071
S11309B070E08FE30E941E0860E070E085ED0E9405
S11309C01E0860E070E080E80E941E0860E070E0AD
S11309D081E80E941E0860E070E080E50E941E0825
S11309E060E070E089ED0E941E0860E070E081E242
S11309F00E941E0860E070E080E20E941E0860E031
S1130A0070E082E00E941E0860E070E08BED0E94BE
S1130A101E0860E070E080E30E941E0860E070E061
S1130A208DEA0E941E0860E070E080E00E941E08CB
S1130A3060E070E084EA0E941E0860E070E086EAEC
S1130A400E941E0860E070E08FEA0E941E080E9467
S1130A508C040895EF92FF920F931F93CF93DF932B
S1130A607B01082F10E000521109C0E0D0E026C03D
S1130A70E114F10491F0F801EE0FFF1FEE0FFF1FD8
S1130A80EE0FFF1FEC0FFD1FE059FF4F849160E054
S1130A9072E080950E941E0810C0F801EE0FFF1F3F
S1130AA0EE0FFF1FEE0FFF1FEC0FFD1FE059FF4F6E
S1130AB0849160E072E00E941E082196C830D1053E
S1130AC0BCF2DF91CF911F910F91FF90EF900895A9
S1130AD0CF93DF93EC0105C060E070E00E942A052B
S1130AE0219688818111F8CFDF91CF910895CF931A
S1130AF0DF93EC0105C061E070E00E942A052196B5
S1130B0088818111F8CFDF91CF910895CF93DF933E
S1130B10CDB7DEB728970FB6F894DEBF0FBECDBFB2
S1130B2028E0EAE0F1E0DE01119601900D922A95A9
S1130B30E1F721E030E02C0F3D1F820F931F60E0AE
S1130B4070E0FC0180810E941E0828960FB6F8947C
S1130B50DEBF0FBECDBFDF91CF9108950F931F93DA
S1130B60CF93DF938C01C0E0D0E00DC0CE010E9492
S1130B708605FE01EE0FFF1FE00FF11F80819181BA
S1130B800E9468052196C830D10584F3DF91CF9186
S1130B901F910F9108952F923F924F925F926F92FF
S1130BA07F928F929F92AF92BF92CF92DF92EF92F9
S1130BB0FF920F931F93CF93DF93CDB7DEB76D975B
S1130BC00FB6F894DEBF0FBECDBF6D8B7E8B8F8BBF
S1130BD0988F2A013901098FCA010E94AE05D301F9
S1130BE02D903C90812C912C80E090E0A12CB12C94
S1130BF08131B7E29B070CF4D7C06D897E898F8958
S1130C00988D0E9487098C8BE98DE23009F045C0EC
S1130C100E94260829833A834B835C836D837E83F9
S1130C208F839887ED88FE880F89188D0E94A0080D
S1130C306A8F7C8F8B8F9D8FFE0139968BE0DF014D
S1130C401D928A95E9F783E0C82E89871A86D12CEC
S1130C506894EE24E1F8FA8C0B8D1E852F85388973
S1130C6049895A896B8980E00E94AA0380E00E9426
S1130C703A03BD8DBF93EB8DEF93FC8DFF932A8DCB
S1130C802F938BE493E09F938F930E945F0C0F90BC
S1130C900F900F900F900F900F90A114B10409F4CE
S1130CA04EC08C898230F1F4F101EE0FFF1FE40D88
S1130CB0F51D808191810E946805181419045CF463
S1130CC0A1E08A1A9108F401EE0FFF1FE60DF71D4B
S1130CD02080318026C0F3012280338088248394CD
S1130CE0912C1FC0FC89F330E1F4F101EE0FFF1FDA
S1130CF0E40DF51D808191810E94680581149104A1
S1130D0059F42FEF821A920AF401EE0FFF1FE60D39
S1130D10F71D2080318005C0D3012D903C90812C9B
S1130D20912CC1010E948605F101EE0FFF1FE40D15
S1130D30F51D808191810E947705A12CB12CBC897D
S1130D40B43081F50E94DA0929873A874B875C879A
S1130D506D877E8789859A85892B49F41DC00E94F9
S1130D60DA0929873A874B875C876D877E8789856F
S1130D709A85892BA1F780E090E00BC0FC01EE0F6F
S1130D80FF1FE60DF71D208131812216330671F015
S1130D9001968230910590F380E090E0AA24A39418
S1130DA0B12C02C080E090E0019622CFC1016D9683
S1130DB00FB6F894DEBF0FBECDBFDF91CF911F9168
S1130DC00F91FF90EF90DF90CF90BF90AF909F90E6
S1130DD08F907F906F905F904F903F902F900895E9
S1130DE0CF93DF93CDB7DEB7EC970FB6F894DEBFA1
S1130DF00FBECDBF4B015C010E948C0428E133E09F
S1130E003A83298385EE92E09C838B8347E553E004
S1130E105E834D8398878F8348E653E05A874987DA
S1130E209C878B879E878D87388B2F8724E030E0C3
S1130E303A8B298B3C8B2B8B9E8B8D8B988F8F8B36
S1130E4046EF52E05A8F498F9C8F8B8F47E053E0D7
S1130E505E8F4D8F98A38F8F9AA389A39CA38BA396
S1130E6042E050E05EA34DA338A72FA39AA789A719
S1130E709CA78BA729E733E03EA72DA72AE833E0F8
S1130E8038AB2FA79AAB89AB9CAB8BAB2BE933E088
S1130E903EAB2DAB98AF8FAB86E090E09AAF89AFB5
S1130EA09CAF8BAF10E001C011E011111DC0012FE8
S1130EB09E012F5E3F4FAE014F5F5F4FC501B401EE
S1130EC00E94CB057C01FF928F9384E593E09F936E
S1130ED08F930E945F0C0F900F900F900F9084E0FF
S1130EE0E816F10409F411E01F921F9384E593E0DE
S1130EF09F938F930E945F0C0F900F900F900F9011
S1130F00113011F5012F9E012B5D3F4FAE014B5E59
S1130F105F4FC501B4010E94CB057C01FF928F9302
S1130F2084E593E09F938F930E945F0C0F900F9042
S1130F300F900F9084E0E816F10409F410E082E0C9
S1130F40E816F10409F412E0123009F0AECF012FD3
S1130F509E01275C3F4FAE01475D5F4FC501B40161
S1130F600E94CB057C01FF928F9384E593E09F93CD
S1130F708F930E945F0C0F900F900F900F9086E05C
S1130F80E816F10409F091CF8FCF87B3806B87BB4C
S1130F908DB181658DB988B3806188BB08958FB99F
S1130FA0779BFECF08950E94CF07089580E00E94AA
S1130FB0CF078FB1089590BD89B988E18AB986E8D1
S1130FC080BD08955D9BFECF8CB90895CF93C82F43
S1130FD08A3019F48DE00E94E2078C2F0E94E20708
S1130FE080E090E0CF9108955F9BFECF8CB108958F
S1130FF00E94F40790E0089568EF77E086EE97E0AA
S11310000E94140C089585B7806885BF80B7877ED9
S113101080BF80B7806280BF80E181BBEBE8F0E0F5
S1131020808181688083EAE8F0E080818960808340
S113103087B387BB88B3826088BB0895FB01F05FE8
S113104080830895905FFC0180810895CF93DF939E
S1131050CDB7DEB760970FB6F894DEBF0FBECDBF35
S113106060E074E081E00E941E0880E094E00E9449
S1131070220890E09E878D8780E094E00E942208F9
S113108090E09C878B8780E094E00E94220890E0A7
S11310909A87898780E094E00E94220890E0988BE8
S11310A08F8788E0FE013996DE01119601900D923A
S11310B08A95E1F729813A814B815C816D817E813A
S11310C08F81988560960FB6F894DEBF0FBECDBFB2
S11310D0DF91CF910895CF93DF93CDB7DEB72897F3
S11310E00FB6F894DEBF0FBECDBF80E090E0DC0108
S11310F003C00196A11DB11D803A26E8920721E0A4
S1131100A207B105B0F30E94260829833A834B83D2
S11311105C836D837E838F83988729813A81B901AB
S1131120605871092B813C81C90180589109289626
S11311300FB6F894DEBF0FBECDBFDF91CF910895F7
S11311404F925F926F927F928F929F92AF92BF92D3
S1131150CF92DF92EF92FF920F931F93CF93DF937F
S1131160CDB7DEB728970FB6F894DEBF0FBECDBF5C
S113117029833A834B835C836D837E838F83988733
S11311806701780129813A81C60180589F4F8217EF
S1131190930744F569817A816C197D096058710956
S11311A0072E000C880B990B0E94BF0A4B015C01AF
S11311B060E870E06C197D09072E000C880B990B10
S11311C00E94BF0A9B01AC01C501B4010E94150A2B
S11311D020E030E048EC52E40E944B0B0E94870A66
S11311E04B0126C069817A816C197D0960587109A7
S11311F0072E000C880B990B0E94BF0A4B015C015F
S1131200B60160587F4F072E000C880B990B0E9483
S1131210BF0A9B01AC01C501B4010E94150A20E07C
S113122030E048EC52E40E944B0B0E94870A4B01C9
S11312302B813C81C70180589F4F8217930744F547
S11312406B817C816E197F0960587109072E000C2F
S1131250880B990B0E94BF0A2B013C0160E870E0E7
S11312606E197F09072E000C880B990B0E94BF0A88
S11312709B01AC01C301B2010E94150A20E030E0D9
S113128048EC52E40E944B0B0E94870A5B0126C083
S11312906B817C816E197F0960587109072E000CDF
S11312A0880B990B0E94BF0A2B013C01B7016058BF
S11312B07F4F072E000C880B990B0E94BF0A9B01DD
S11312C0AC01C301B2010E94150A20E030E048ECF1
S11312D052E40E944B0B0E94870A5B01C501B401D2
S11312E028960FB6F894DEBF0FBECDBFDF91CF9125
S11312F01F910F91FF90EF90DF90CF90BF90AF9030
S11313009F908F907F906F905F904F900895CF92B1
S1131310DF92EF92FF920F931F93CF93DF93CDB79A
S1131320DEB728970FB6F894DEBF0FBECDBF6B01B2
S11313307C010E942608870176010E94A008613B77
S11313402FEF720754F0603571053CF4813B2FEFA9
S113135092071CF080359105CCF09B01772324F48F
S113136022273327261B370BAC01992324F4442767
S11313705527481B590B4217530724F4772344F489
S113138080E009C0992334F483E005C084E003C0FD
S113139081E001C082E028960FB6F894DEBF0FBE4C
S11313A0CDBFDF91CF911F910F91FF90EF90DF9010
S11313B0CF900895CF93DF93CDB7DEB72C970FB6B8
S11313C0F894DEBF0FBECDBF86B386B3869591E099
S11313D08927682F617070E078876F8386B3482F00
S11313E0417050E05A87498786B382FB222720F94F
S11313F030E03C872B8786E0FE013796DE011196AC
S113140001900D928A95E1F729813A814B815C81A3
S11314106D817E8180E090E02C960FB6F894DEBF5B
S11314200FBECDBFDF91CF9108950E94290A0C947D
S1131430110B0E940A0B58F00E94030B40F029F490
S11314405F3F29F00C94FA0A51110C94450B0C944B
S1131450000B0E94220B68F39923B1F3552391F3F7
S1131460951B550BBB27AA2762177307840738F00F
S11314709F5F5F4F220F331F441FAA1FA9F335D06C
S11314800E2E3AF0E0E832D091505040E695001C20
S1131490CAF72BD0FE2F29D0660F771F881FBB1FDA
S11314A0261737074807AB07B0E809F0BB0B802DB8
S11314B0BF01FF2793585F4F3AF09E3F510578F0E4
S11314C00C94FA0A0C94450B5F3FE4F3983ED4F372
S11314D0869577956795B795F7959F5FC9F7880FB8
S11314E0911D9695879597F90895E1E0660F771F0A
S11314F0881FBB1F621773078407BA0720F0621B9B
S1131500730B840BBA0BEE1F88F7E09508950E94C5
S11315108E0A6894B1110C94450B08950E942A0B0D
S113152088F09F5798F0B92F9927B751B0F0E1F0A0
S1131530660F771F881F991F1AF0BA95C9F714C050
S1131540B13091F00E94440BB1E008950C94440B27
S1131550672F782F8827B85F39F0B93FCCF3869589
S113156077956795B395D9F73EF4909580957095E6
S113157061957F4F8F4F9F4F0895E89409C097FB63
S11315803EF490958095709561957F4F8F4F9F4F56
S11315909923A9F0F92F96E9BB279395F69587959A
S11315A077956795B795F111F8CFFAF4BB0F11F45D
S11315B060FF1BC06F5F7F4F8F4F9F4F16C0882304
S11315C011F096E911C0772321F09EE8872F762F3A
S11315D005C0662371F096E8862F70E060E02AF07B
S11315E09A95660F771F881FDAF7880F9695879567
S11315F097F9089597F99F6780E870E060E008958F
S11316009FEF80EC089500240A9416161706180616
S11316100906089500240A941216130614060506F2
S11316200895092E0394000C11F4882352F0BB0F83
S113163040F4BF2B11F460FF04C06F5F7F4F8F4FE6
S11316409F4F089557FD9058440F551F59F05F3F21
S113165071F04795880F97FB991F61F09F3F79F0D0
S113166087950895121613061406551FF2CF469552
S1131670F1DF08C0161617061806991FF1CF8695D4
S11316807105610508940895E894BB2766277727B8
S1131690CB0197F908950E945E0B0C94110B0E94E4
S11316A0030B38F00E940A0B20F0952311F00C94E0
S11316B0FA0A0C94000B11240C94450B0E94220B83
S11316C070F3959FC1F3950F50E0551F629FF00191
S11316D0729FBB27F00DB11D639FAA27F00DB11DAA
S11316E0AA1F649F6627B00DA11D661F829F222733
S11316F0B00DA11D621F739FB00DA11D621F839FBA
S1131700A00D611D221F749F3327A00D611D231F8F
S1131710849F600D211D822F762F6A2F11249F57DD
S113172050409AF0F1F088234AF0EE0FFF1FBB1FE0
S1131730661F771F881F91505040A9F79E3F51059F
S113174080F00C94FA0A0C94450B5F3FE4F3983E46
S1131750D4F3869577956795B795F795E7959F5F49
S1131760C1F7FE2B880F911D9695879597F90895DB
S11317708F929F92AF92BF92CF92DF92EF92FF929D
S1131780CF93DF93EC01688179818A819B81611514
S113179071058105910521F464E279ED8BE597E00B
S11317A02DE133EF41E050E00E94811049015A01DC
S11317B09B01AC01A7EAB1E40E94A0106B017C017B
S11317C0ACEEB4EFA50194010E94AE10DC01CB0194
S11317D08C0D9D1DAE1DBF1DB7FF03C00197A10950
S11317E0B04888839983AA83BB839F77DF91CF9185
S11317F0FF90EF90DF90CF90BF90AF909F908F902D
S113180008950E94B80B089580E091E00E94B80BFF
S11318100895A0E0B0E08093000190930101A093AB
S11318200201B093030108950F931F93CF93DF93A5
S1131830009731F46115710519F480E090E03AC025
S11318408B01EC016EE070E081E090E00E948D0E6F
S1131850FC01892B91F380E883830115110571F054
S11318601387028781E883838091AC039091AD0351
S1131870892B21F4F093AD03E093AC032097C9F0D6
S1131880D187C0878381826083838091AE039091E6
S1131890AF03892B71F4F093AF03E093AE0380910F
S11318A0B0039091B103892B21F4F093B103E09339
S11318B0B003CF01DF91CF911F910F910895A0E064
S11318C0B0E0E5E6FCE00C94C310AE014B5F5F4F63
S11318D0FA0161917191AF018091AE039091AF03D0
S11318E00E94AC0CE2E00C94DF106091AE037091A6
S11318F0AF030E94E70F08950F931F93CF93DF93D5
S1131900E091AE03F091AF03238121FF1BC08C0152
S1131910D0E0C0E0F80181918F016091AE03709135
S1131920AF03DB011896ED91FC911997882331F0F0
S11319300995892B79F3DFEFCFEFECCF8AE0099596
S1131940892B19F08FEF9FEF02C08D2F9C2FDF9111
S1131950CF911F910F910895ABE0B0E0E2EBFCE072
S11319600C94B3106C017B018A01FC01178216826E
S1131970838181FFCCC1CE0101963C01F6019381A4
S1131980F70193FD859193FF81917F01882309F4E9
S1131990BAC1853239F493FD859193FF81917F011A
S11319A0853229F4B60190E00E94E70FE7CF912C2D
S11319B0212C312CFFE1F315D8F08B3279F038F477
S11319C0803279F08332A1F4232D20611DC08D3241
S11319D061F0803369F4232D216016C0832D826069
S11319E0382EE32DE4603E2E2AC0F32DF8601DC08E
S11319F037FC2DC020ED280F2A3040F08E32B9F488
S1131A0036FC81C1232D2064322E19C036FE06C057
S1131A108AE0989E200D1124922E11C0EAE02E9E99
S1131A20200D1124222EF32DF0623F2E08C08C3697
S1131A3021F4832D8068382E02C0883641F4F701E2
S1131A4093FD859193FF81917F018111B3CF982FED
S1131A509F7D9554933028F40C5F1F4F9FE3998327
S1131A600DC0833631F0833771F0833509F059C0E6
S1131A7021C0F801808189830E5F1F4F88248394DD
S1131A80912C530113C02801F2E04F0E511CF801B0
S1131A90A080B18036FE03C0692D70E002C06FEFF4
S1131AA07FEFC5010E94DC0F4C018201F32DFF770B
S1131AB03F2E16C0280122E0420E511CF801A080DE
S1131AC0B18036FE03C0692D70E002C06FEF7FEF76
S1131AD0C5010E94CA0F4C01F32DF0683F2E82010C
S1131AE033FC1BC0822D90E088169906B0F4B60131
S1131AF080E290E00E94E70F2A94F4CFF50137FCCE
S1131B00859137FE81915F01B60190E00E94E70F55
S1131B1021102A9421E0821A91088114910471F70A
S1131B20E8C0843611F0893641F5F80137FE07C064
S1131B3060817181828193810C5F1F4F08C0608135
S1131B407181072E000C880B990B0E5F1F4FF32D2C
S1131B50FF763F2E97FF09C090958095709561950B
S1131B607F4F8F4F9F4FF0683F2E2AE030E0A30154
S1131B700E942310882E861845C0853731F4232D02
S1131B802F7EB22E2AE030E025C0932D997FB92E06
S1131B908F36C1F018F4883579F0B5C0803719F064
S1131BA0883721F0B0C0E92FE061BE2EB4FE0DC02D
S1131BB0FB2DF460BF2E09C034FE0AC0292F266015
S1131BC0B22E06C028E030E005C020E130E002C0BB
S1131BD020E132E0F801B7FE07C0608171818281A3
S1131BE093810C5F1F4F06C06081718180E090E09B
S1131BF00E5F1F4FA3010E942310882E8618FB2D11
S1131C00FF773F2E36FE0DC0232D2E7FA22E891482
S1131C1058F434FE0BC032FC09C0832D8E7EA82EEE
S1131C2005C0B82CA32C03C0B82C01C0B92CA4FE49
S1131C300FC0FE01E80DF11D8081803321F49A2D3F
S1131C40997EA92E09C0A2FE06C0B394B39404C021
S1131C508A2D867809F0B394A3FC11C0A0FE06C0B7
S1131C60B21488F4280C922C9B180EC0B21460F4A1
S1131C70B60180E290E00E94E70FB394F7CFB2146C
S1131C8018F42B1802C0982C212CA4FE10C0B60105
S1131C9080E390E00E94E70FA2FE17C0A1FC03C0FE
S1131CA088E790E002C088E590E0B6010CC08A2D78
S1131CB0867859F0A1FE02C08BE201C080E2A7FC45
S1131CC08DE2B60190E00E94E70F891438F4B60162
S1131CD080E390E00E94E70F9A94F7CF8A94F3018F
S1131CE0E80DF11D8081B60190E00E94E70F81109C
S1131CF0F5CF222009F442CEB60180E290E00E94A2
S1131D00E70F2A94F6CFF6018681978102C08FEF00
S1131D109FEF2B96E2E10C94CF100F931F93CF9378
S1131D20DF93869F8001879F100D969F100D1124CD
S1131D30C8010E94A90EEC01009729F0A80160E0F7
S1131D4070E00E94D50FCE01DF91CF911F910F91CA
S1131D5008950F931F93CF93DF938230910510F46E
S1131D6082E090E0E091B403F091B50320E030E02C
S1131D70A0E0B0E0309719F14081518102811381D4
S1131D8048175907C8F08417950769F4109731F07C
S1131D9012960C93129713961C9327C00093B403C6
S1131DA01093B50322C02115310519F042175307CA
S1131DB018F49A01BD01EF01DF01F801DBCF211511
S1131DC03105F9F0281B390B2430310580F48A8160
S1131DD09B816115710521F0FB019383828304C00B
S1131DE09093B5038093B403FE01329644C0FE0180
S1131DF0E20FF31F81939193225031093983288391
S1131E003AC02091B2033091B303232B41F42091C3
S1131E100601309107013093B3032093B20320915C
S1131E200401309105012115310541F42DB73EB768
S1131E304091080150910901241B350BE091B20334
S1131E40F091B303E217F307A0F42E1B3F0B2817FE
S1131E50390778F0AC014E5F5F4F2417350748F01F
S1131E604E0F5F1F5093B3034093B203819391933A
S1131E7002C0E0E0F0E0CF01DF91CF911F910F911C
S1131E800895CF93DF93009709F481C0FC01329742
S1131E9013821282A091B403B091B503109781F418
S1131EA020813181820F931F2091B2033091B303BB
S1131EB02817390751F5F093B303E093B20367C0D1
S1131EC0ED0120E030E0CE17DF0740F44A815B816A
S1131ED09E0141155105F1F0EA01F5CFD383C28388
S1131EE040815181840F951FC817D90759F48881FF
S1131EF09981840F951F0296918380838A819B81A7
S1131F00938382832115310529F4F093B503E0937B
S1131F10B4033DC0E901FB83EA8349915991C40F9D
S1131F20D51FEC17FD0761F480819181840F951F03
S1131F300296E90199838883828193819B838A83B2
S1131F40E0E0F0E012968D919C911397009719F0C0
S1131F50FD01DC01F7CF8D919C9111979D012E5FBE
S1131F603F4F820F931F2091B2033091B303281780
S1131F70390769F4309729F41092B5031092B40329
S1131F8002C013821282B093B303A093B203DF9111
S1131F90CF910895FC010590615070400110D8F76D
S1131FA0809590958E0F9F1F0895DC0101C06D935D
S1131FB041505040E0F70895FC0161507040019099
S1131FC00110D8F7809590958E0F9F1F08950F9359
S1131FD01F93CF93DF93FB01238121FD03C08FEF78
S1131FE09FEF2CC022FF16C0468157812481358182
S1131FF04217530744F4A081B1819D012F5F3F4FE5
S1132000318320838C93268137812F5F3F4F378321
S1132010268314C08B01EC01FB010084F185E02DC3
S11320200995892BE1F6D80116968D919C91179705
S1132030019617969C938E931697CE01DF91CF91BC
S11320401F910F910895FA01AA27283051F12031E8
S113205081F1E8946F936E7F6E5F7F4F8F4F9F4F38
S1132060AF4FB1E03ED0B4E03CD0670F781F891F7A
S11320709A1FA11D680F791F8A1F911DA11D6A0F48
S1132080711D811D911DA11D20D009F468943F91FB
S11320902AE0269F11243019305D3193DEF6CF01FA
S11320A00895462F4770405D4193B3E00FD0C9F7C0
S11320B0F6CF462F4F70405D4A3318F0495D31FD2D
S11320C04052419302D0A9F7EACFB4E0A695979580
S11320D0879577956795BA95C9F700976105710556
S11320E008959B01AC010A2E0694579547953795A0
S11320F02795BA95C9F7620F731F841F951FA01DFA
S11321000895052E97FB1EF400940E94981057FD25
S113211007D00E94EA1007FC03D04EF40C949810E8
S113212050954095309521953F4F4F4F5F4F0895FF
S113213090958095709561957F4F8F4F9F4F08952F
S11321400E940C11A59F900DB49F900DA49F800D2B
S1132150911D11240895B7FF0C94A0100E94A010A3
S1132160821B930B08952F923F924F925F926F922E
S11321707F928F929F92AF92BF92CF92DF92EF9213
S1132180FF920F931F93CF93DF93CDB7DEB7CA1B94
S1132190DB0B0FB6F894DEBF0FBECDBF09942A88BF
S11321A0398848885F846E847D848C849B84AA8467
S11321B0B984C884DF80EE80FD800C811B81AA81F4
S11321C0B981CE0FD11D0FB6F894DEBF0FBECDBFBF
S11321D0ED010895A1E21A2EAA1BBB1BFD010DC03F
S11321E0AA1FBB1FEE1FFF1FA217B307E407F507C3
S11321F020F0A21BB30BE40BF50B661F771F881F9F
S1132200991F1A9469F760957095809590959B0134
S1132210AC01BD01CF010895A29FB001B39FC001DD
S1132220A39F700D811D1124911DB29F700D811DFE
S10D22301124911D0895F894FFCFC6
S113223A010000000000B6032000B0B1B2B3B4B587
S113224AB6B71A344E68829CB6D0EAFF53746172E8
S113225A74696E67205352414D20746573742E2E2F
S113226A2E005772697465207068617365206572FF
S113227A726F723A206578745F72616D5B2534649B
S113228A5D203D2025303258202873686F756C64B0
S113229A2062652025303258290A00526574726911
S11322AA6576616C207068617365206572726F72FD
S11322BA3A206578745F72616D5B2534645D203DF4
S11322CA2025303258202873686F756C6420626543
S11322DA2025303258290A005352414D207465731F
S11322EA7420636F6D706C657465642077697468B3
S11322FA200A253464206572726F727320696E2015
S113230A777269746520706861736520616E6420F0
S113231A0A253464206572726F727320696E2072A2
S113232A657472696576616C2070686173650A0AFE
S113233A005541525420696E697469616C697A6501
S113234A642100786D656D20696E697469616C69D0
S113235A7A65642120006D637063323531352069F2
S113236A6E697469616C697A6564212000526567D3
S113237A3A203078253032580A0049643A202564D4
S113238A0A00583A2025346420593A202534642016
S113239A0A00204D435032353135206973204E4F9F
S11323AA5420696E20636F7272656374206D6F6462
S11323BA652021004E6F65207261727420736B6A06
S11323CA6564646500204D435032353135206973A4
S11323DA204E4F5420696E20636F6E66696775726A
S11323EA6174696F6E206D6F6465206166746572CD
S11323FA2072657365742021004D6F64653A20303C
S113240A78253032580A00446174613A20307825BC
S113241A3032580A0020202020202020202020208A
S113242A2020202020002020205374617274204729
S113243A616D652020200020204261636B20746F47
S113244A20486F6D652020002D2D2D2D2D2D2D2D2D
S113245A2D2D2D2D2D2D2D2D00202057656C636FCC
S113246A6D6520686F6D65202000202020202020C3
S113247A4D656E7520202020202000583A202564BE
S113248A20593A20256400202077656C636F6D65B6
S113249A20686F6D652020002020202020206D6593
S11324AA6E75202020202020002020202020204774
S11324BA616D652020202020200020202020205229
S11324CA756E6E696E67202020200020202020204F
S10F24DA20457869742020202020200078
S9030000FC
