S010000050696E67506F6E672E73726563F2
S11300000C9438000C9455000C9455000C94550035
S11300100C9455000C9455000C9455000C94550008
S11300200C9455000C9455000C9455000C945500F8
S11300300C9455000C9455000C9455000C945500E8
S11300400C9455000C9455000C9455000C945500D8
S11300500C9455000C9455000C9455000C945500C8
S11300600C9455000C9455000C9455000C945500B8
S113007011241FBECFEFD4E0DEBFCDBF12E0A0E05D
S1130080B1E0E0EEF1E102C005900D92AE30B107AF
S1130090D9F722E0AEE0B2E001C01D92A831B20768
S11300A0E1F70E9443020C94EE080C94000090BD0A
S11300B089B988E18AB986E880BD08955D9BFECF41
S11300C08CB90895CF93C82F8A3019F48DE00E941B
S11300D05E008C2F0E945E0080E090E0CF91089536
S11300E05F9BFECF8CB108950E94700090E008954C
S11300F064E770E082E690E00E945104089585B7B9
S1130100806885BF80B7877E80BF80B7806280BFEC
S113011080E181BBEBE8F0E0808181688083EAE8DC
S1130120F0E08081896080830895FB01F05F808323
S11301300895905FFC0180810895CF93DF93CDB73C
S1130140DEB760970FB6F894DEBF0FBECDBF60E098
S113015074E081E00E94950080E094E00E949900A0
S113016090E09A87898780E094E00E94990090E06B
S11301709C878B8780E094E00E94990090E09E87A2
S11301808D8780E094E00E94990090E0988B8F879F
S113019088E0FE013996DE01119601900D928A9550
S11301A0E1F729813A814B815C816D817E818F8168
S11301B0988560960FB6F894DEBF0FBECDBFDF9171
S11301C0CF910895CF93DF93CDB7DEB728970FB6BD
S11301D0F894DEBF0FBECDBF0E949D0029833A83F1
S11301E04B835C836D837E838F83988729813A81D7
S11301F0B901605871092B813C81C901805891096A
S113020028960FB6F894DEBF0FBECDBFDF91CF9115
S113021008954F925F926F927F928F929F92AF92C6
S1130220BF92CF92DF92EF92FF920F931F93CF93DF
S1130230DF93CDB7DEB728970FB6F894DEBF0FBEB5
S1130240CDBF29833A834B835C836D837E838F8305
S113025098876701780129813A81C60180589F4FA8
S11302608217930744F569817A816C197D09605876
S11302707109072E000C880B990B0E9458034B013F
S11302805C0160E870E06C197D09072E000C880B96
S1130290990B0E9458039B01AC01C501B4010E9453
S11302A0AE0220E030E048EC52E40E94E4030E94F5
S11302B020034B0126C069817A816C197D0960583D
S11302C07109072E000C880B990B0E9458034B01EF
S11302D05C01B60160587F4F072E000C880B990B08
S11302E00E9458039B01AC01C501B4010E94AE02F7
S11302F020E030E048EC52E40E94E4030E94200332
S11303004B012B813C81C70180589F4F8217930773
S113031044F56B817C816E197F0960587109072E41
S1130320000C880B990B0E9458032B013C0160E8D8
S113033070E06E197F09072E000C880B990B0E9440
S113034058039B01AC01C301B2010E94AE0220E03C
S113035030E048EC52E40E94E4030E9420035B0175
S113036026C06B817C816E197F0960587109072E44
S1130370000C880B990B0E9458032B013C01B70118
S113038060587F4F072E000C880B990B0E9458036E
S11303909B01AC01C301B2010E94AE0220E030E037
S11303A048EC52E40E94E4030E9420035B01C5016F
S11303B0B40128960FB6F894DEBF0FBECDBFDF910F
S11303C0CF911F910F91FF90EF90DF90CF90BF904E
S11303D0AF909F908F907F906F905F904F90089513
S11303E0CF92DF92EF92FF92CF93DF93CDB7DEB738
S11303F028970FB6F894DEBF0FBECDBF29833A838A
S11304004B835C836D837E838F8398876F8178852C
S1130410072E000C880B990B0E94580320E030E053
S11304204FE753E40E94AE0220E030E048EC52E48F
S11304300E94E4030E9420037B016D817E81072ECC
S1130440000C880B990B0E94580320E030E04FE722
S113045053E40E94AE0220E030E048EC52E40E94F3
S1130460E4030E9420036B01C701B60128960FB66E
S1130470F894DEBF0FBECDBFDF91CF91FF90EF9018
S1130480DF90CF900895CF93DF93CDB7DEB7609719
S11304900FB6F894DEBF0FBECDBF8FE190E00E948F
S11304A057000E9478008BEE91E00E94B2040E94F3
S11304B07F0080E090E0DC0103C00196A11DB11D26
S11304C0803A26E8920721E0A207B105B0F30E9422
S11304D0E200D62EC72EB82EA92E9F938F937F931A
S11304E06F938DEF91E09F938F930E949C040F90E4
S11304F00F900F900F900F900F9080E090E0DC0130
S1130500813A26E8920721E0A207B10518F10E947A
S11305109D00ED2CFC2C0B2D1A2D0E940901162F89
S1130520072FF82EE92E0E949D000E94F001EF9201
S1130530FF920F931F938DEF91E09F938F930E94EF
S11305409C040F900F900F900F900F900F9080E0ED
S113055090E0DC010196A11DB11DD2CF0E94C20220
S11305600C94AA030E94A30358F00E949C0340F039
S113057029F45F3F29F00C94930351110C94DE038A
S11305800C9499030E94BB0368F39923B1F3552398
S113059091F3951B550BBB27AA2762177307840792
S11305A038F09F5F5F4F220F331F441FAA1FA9F328
S11305B035D00E2E3AF0E0E832D091505040E69516
S11305C0001CCAF72BD0FE2F29D0660F771F881F77
S11305D0BB1F261737074807AB07B0E809F0BB0B6A
S11305E0802DBF01FF2793585F4F3AF09E3F51057E
S11305F078F00C9493030C94DE035F3FE4F3983E8D
S1130600D4F3869577956795B795F7959F5FC9F766
S1130610880F911D9695879597F90895E1E0660FE7
S1130620771F881FBB1F621773078407BA0720F060
S1130630621B730B840BBA0BEE1F88F7E0950895C9
S11306400E9427036894B1110C94DE0308950E945C
S1130650C30388F09F5798F0B92F9927B751B0F08A
S1130660E1F0660F771F881F991F1AF0BA95C9F732
S113067014C0B13091F00E94DD03B1E008950C94F0
S1130680DD03672F782F8827B85F39F0B93FCCF3A3
S1130690869577956795B395D9F73EF490958095AF
S11306A0709561957F4F8F4F9F4F0895E89409C0CF
S11306B097FB3EF490958095709561957F4F8F4F91
S11306C09F4F9923A9F0F92F96E9BB279395F695A7
S11306D0879577956795B795F111F8CFFAF4BB0F25
S11306E011F460FF1BC06F5F7F4F8F4F9F4F16C089
S11306F0882311F096E911C0772321F09EE8872F13
S1130700762F05C0662371F096E8862F70E060E0CE
S11307102AF09A95660F771F881FDAF7880F969547
S1130720879597F9089597F99F6780E870E060E0EE
S113073008959FEF80EC089500240A941616170676
S113074018060906089500240A94121613061406BE
S113075005060895092E0394000C11F4882352F021
S1130760BB0F40F4BF2B11F460FF04C06F5F7F4FD9
S11307708F4F9F4F089557FD9058440F551F59F0C0
S11307805F3F71F04795880F97FB991F61F09F3F7A
S113079079F087950895121613061406551FF2CFA3
S11307A04695F1DF08C0161617061806991FF1CFF3
S11307B086957105610508940895E894BB2766271A
S11307C07727CB0197F908950E94F7030C94AA03A5
S11307D00E949C0338F00E94A30320F0952311F09B
S11307E00C9493030C94990311240C94DE030E943B
S11307F0BB0370F3959FC1F3950F50E0551F629FA3
S1130800F001729FBB27F00DB11D639FAA27F00D65
S1130810B11DAA1F649F6627B00DA11D661F829F8C
S11308202227B00DA11D621F739FB00DA11D621F71
S1130830839FA00D611D221F749F3327A00D611D8E
S1130840231F849F600D211D822F762F6A2F112470
S11308509F5750409AF0F1F088234AF0EE0FFF1FA3
S1130860BB1F661F771F881F91505040A9F79E3FFA
S1130870510580F00C9493030C94DE035F3FE4F382
S1130880983ED4F3869577956795B795F795E79550
S11308909F5FC1F7FE2B880F911D9695879597F959
S11308A008950F931F93CF93DF93009731F461154D
S11308B0710519F480E090E03AC08B01EC016EE020
S11308C070E081E090E00E94C306FC01892B91F363
S11308D080E883830115110571F01387028781E88D
S11308E0838380910E0290910F02892B21F4F0935F
S11308F00F02E0930E022097C9F0D187C08783814D
S1130900826083838091100290911102892B71F48B
S1130910F0931102E093100280911202909113025D
S1130920892B21F4F0931302E0931202CF01DF919B
S1130930CF911F910F910895A0E0B0E0E2EAF4E0B6
S11309400C94C708AE014B5F5F4FFA01619171913E
S1130950AF0180911002909111020E94E204E2E042
S11309600C94E3080F931F93CF93DF93E09110024D
S1130970F0911102238121FF1BC08C01D0E0C0E063
S1130980F80181918F016091100270911102DB01D5
S11309901896ED91FC911997882331F00995892BCC
S11309A079F3DFEFCFEFECCF8AE00995892B19F0CB
S11309B08FEF9FEF02C08D2F9C2FDF91CF911F915E
S11309C00F910895ABE0B0E0E8EEF4E00C94B708C2
S11309D06C017B018A01FC0117821682838181FFED
S11309E0CCC1CE0101963C01F6019381F70193FD40
S11309F0859193FF81917F01882309F4BAC18532DF
S1130A0039F493FD859193FF81917F01853229F417
S1130A10B60190E00E941D08E7CF912C212C312CC7
S1130A20FFE1F315D8F08B3279F038F4803279F0A5
S1130A308332A1F4232D20611DC08D3261F08033F7
S1130A4069F4232D216016C0832D8260382EE32D96
S1130A50E4603E2E2AC0F32DF8601DC037FC2DC083
S1130A6020ED280F2A3040F08E32B9F436FC81C1D3
S1130A70232D2064322E19C036FE06C08AE0989ECB
S1130A80200D1124922E11C0EAE02E9E200D112477
S1130A90222EF32DF0623F2E08C08C3621F4832DD4
S1130AA08068382E02C0883641F4F70193FD8591A1
S1130AB093FF81917F018111B3CF982F9F7D95542E
S1130AC0933028F40C5F1F4F9FE399830DC0833646
S1130AD031F0833771F0833509F059C021C0F80132
S1130AE0808189830E5F1F4F88248394912C530146
S1130AF013C02801F2E04F0E511CF801A080B18010
S1130B0036FE03C0692D70E002C06FEF7FEFC501B0
S1130B100E9412084C018201F32DFF773F2E16C06C
S1130B20280122E0420E511CF801A080B18036FE5B
S1130B3003C0692D70E002C06FEF7FEFC5010E9412
S1130B4000084C01F32DF0683F2E820133FC1BC0DA
S1130B50822D90E088169906B0F4B60180E290E008
S1130B600E941D082A94F4CFF50137FC859137FEC5
S1130B7081915F01B60190E00E941D0821102A9422
S1130B8021E0821A91088114910471F7E8C0843637
S1130B9011F0893641F5F80137FE07C06081718193
S1130BA0828193810C5F1F4F08C060817181072E81
S1130BB0000C880B990B0E5F1F4FF32DFF763F2E11
S1130BC097FF09C090958095709561957F4F8F4FE1
S1130BD09F4FF0683F2E2AE030E0A3010E9459089D
S1130BE0882E861845C0853731F4232D2F7EB22EEA
S1130BF02AE030E025C0932D997FB92E8F36C1F0BD
S1130C0018F4883579F0B5C0803719F0883721F0A9
S1130C10B0C0E92FE061BE2EB4FE0DC0FB2DF46020
S1130C20BF2E09C034FE0AC0292F2660B22E06C08A
S1130C3028E030E005C020E130E002C020E132E0ED
S1130C40F801B7FE07C060817181828193810C5FD6
S1130C501F4F06C06081718180E090E00E5F1F4FDE
S1130C60A3010E945908882E8618FB2DFF773F2E7A
S1130C7036FE0DC0232D2E7FA22E891458F434FE87
S1130C800BC032FC09C0832D8E7EA82E05C0B82C63
S1130C90A32C03C0B82C01C0B92CA4FE0FC0FE01C4
S1130CA0E80DF11D8081803321F49A2D997EA92EBF
S1130CB009C0A2FE06C0B394B39404C08A2D8678FA
S1130CC009F0B394A3FC11C0A0FE06C0B21488F4CA
S1130CD0280C922C9B180EC0B21460F4B60180E26A
S1130CE090E00E941D08B394F7CFB21418F42B18A7
S1130CF002C0982C212CA4FE10C0B60180E390E021
S1130D000E941D08A2FE17C0A1FC03C088E790E062
S1130D1002C088E590E0B6010CC08A2D867859F0AF
S1130D20A1FE02C08BE201C080E2A7FC8DE2B60105
S1130D3090E00E941D08891438F4B60180E390E025
S1130D400E941D089A94F7CF8A94F301E80DF11DCF
S1130D508081B60190E00E941D088110F5CF222009
S1130D6009F442CEB60180E290E00E941D082A9464
S1130D70F6CFF6018681978102C08FEF9FEF2B9605
S1130D80E2E10C94D3080F931F93CF93DF93869FD4
S1130D908001879F100D969F100D1124C8010E9499
S1130DA0DF06EC01009729F0A80160E070E00E94E2
S1130DB00B08CE01DF91CF911F910F9108950F93EE
S1130DC01F93CF93DF938230910510F482E090E07B
S1130DD0E0911602F091170220E030E0A0E0B0E0CC
S1130DE0309719F1408151810281138148175907C5
S1130DF0C8F08417950769F4109731F012960C9394
S1130E00129713961C9327C000931602109317028F
S1130E1022C02115310519F04217530718F49A011D
S1130E20BD01EF01DF01F801DBCF21153105F9F038
S1130E30281B390B2430310580F48A819B8161158C
S1130E40710521F0FB019383828304C09093170200
S1130E5080931602FE01329644C0FE01E20FF31F96
S1130E608193919322503109398328833AC0209188
S1130E70140230911502232B41F420910201309188
S1130E800301309315022093140220910001309144
S1130E9001012115310541F42DB73EB740910401FC
S1130EA050910501241B350BE0911402F0911502B9
S1130EB0E217F307A0F42E1B3F0B2817390778F02D
S1130EC0AC014E5F5F4F2417350748F04E0F5F1F8C
S1130ED050931502409314028193919302C0E0E071
S1130EE0F0E0CF01DF91CF911F910F910895CF933F
S1130EF0DF93009709F481C0FC01329713821282B8
S1130F00A0911602B0911702109781F420813181CB
S1130F10820F931F2091140230911502281739076C
S1130F2051F5F0931502E093140267C0ED0120E03F
S1130F3030E0CE17DF0740F44A815B819E01411502
S1130F405105F1F0EA01F5CFD383C2834081518189
S1130F50840F951FC817D90759F488819981840F84
S1130F60951F0296918380838A819B8193838283D8
S1130F702115310529F4F0931702E09316023DC0C0
S1130F80E901FB83EA8349915991C40FD51FEC17FA
S1130F90FD0761F480819181840F951F0296E90118
S1130FA099838883828193819B838A83E0E0F0E044
S1130FB012968D919C911397009719F0FD01DC0115
S1130FC0F7CF8D919C9111979D012E5F3F4F820F1A
S1130FD0931F20911402309115022817390769F4E0
S1130FE0309729F4109217021092160202C013824D
S1130FF01282B0931502A0931402DF91CF91089549
S1131000FC010590615070400110D8F780959095CF
S11310108E0F9F1F0895DC0101C06D934150504015
S1131020E0F70895FC016150704001900110D8F779
S1131030809590958E0F9F1F08950F931F93CF93C4
S1131040DF93FB01238121FD03C08FEF9FEF2CC0B1
S113105022FF16C0468157812481358142175307E8
S113106044F4A081B1819D012F5F3F4F31832083E0
S11310708C93268137812F5F3F4F3783268314C09B
S11310808B01EC01FB010084F185E02D0995892B8E
S1131090E1F6D80116968D919C91179701961796B3
S11310A09C938E931697CE01DF91CF911F910F9150
S11310B00895FA01AA27283051F1203181F1E894EA
S11310C06F936E7F6E5F7F4F8F4F9F4FAF4FB1E037
S11310D03ED0B4E03CD0670F781F891F9A1FA11D32
S11310E0680F791F8A1F911DA11D6A0F711D811D33
S11310F0911DA11D20D009F468943F912AE0269FF8
S113110011243019305D3193DEF6CF010895462F56
S11311104770405D4193B3E00FD0C9F7F6CF462F37
S11311204F70405D4A3318F0495D31FD40524193A0
S113113002D0A9F7EACFB4E0A6959795879577955D
S11311406795BA95C9F700976105710508959B01E4
S1131150AC010A2E06945795479537952795BA956D
S1131160C9F7620F731F841F951FA01D08952F9246
S11311703F924F925F926F927F928F929F92AF9223
S1131180BF92CF92DF92EF92FF920F931F93CF9370
S1131190DF93CDB7DEB7CA1BDB0B0FB6F894DEBF07
S11311A00FBECDBF09942A88398848885F846E842D
S11311B07D848C849B84AA84B984C884DF80EE8077
S11311C0FD800C811B81AA81B981CE0FD11D0FB680
S11311D0F894DEBF0FBECDBFED010895F894FFCFA4
S11311E00000180220005374617274696E67205302
S11311F052414D20746573742E2E2E0057726974FB
S113120065207068617365206572726F723A20653B
S113121078745F72616D5B2534645D203D202530F8
S11312203258202873686F756C64206265202530FD
S11312303258290A0052657472696576616C2070AF
S113124068617365206572726F723A206578745FA5
S113125072616D5B2534645D203D20253032582059
S11312602873686F756C64206265202530325829B4
S11312700A005352414D207465737420636F6D707E
S11312806C657465642077697468200A2534642069
S11312906572726F727320696E207772697465204B
S11312A0706861736520616E64200A25346420656A
S11312B072726F727320696E2072657472696576DA
S11312C0616C2070686173650A0A005541525420AC
S11312D0696E697469616C697A65642100583A20A1
S11112E025346420593A20253464200A000085
S9030000FC
