:100000000C9438000C9455000C9455000C94550039
:100010000C9455000C9455000C9455000C9455000C
:100020000C9455000C9455000C9455000C945500FC
:100030000C9455000C9455000C9455000C945500EC
:100040000C9455000C9455000C9455000C945500DC
:100050000C9455000C9455000C9455000C945500CC
:100060000C9455000C9455000C9455000C945500BC
:1000700011241FBECFEFD4E0DEBFCDBF12E0A0E061
:10008000B1E0EEEFF1E102C005900D92A83CB1079E
:10009000D9F722E0A8ECB2E001C01D92A23DB20760
:1000A000E1F70E94D2000C94FD080C940000EF923E
:1000B000FF920F931F93CF93DF9385E191E00E940E
:1000C0005E040E94ED037C010E94F203C0E0D0E0D8
:1000D00000E010E020C00E94ED03FE01F85E808386
:1000E00020812817B9F099279F938F931F922F9300
:1000F000DF93CF938BE291E09F938F930E9448040C
:100100000F5F1F4F8DB79EB708960FB6F8949EBF2E
:100110000FBE8DBF2196C11598E0D907E0F2C70147
:100120000E94F203C0E0D0E0E12CF12C20C00E943C
:10013000ED03FE01F85E20812817C1F099279F93F7
:100140008F931F922F93DF93CF9384E691E09F9339
:100150008F930E9448048FEFE81AF80A8DB79EB774
:1001600008960FB6F8949EBF0FBE8DBF2196C1159D
:1001700098E0D907E0F2FF92EF921F930F9381EA84
:1001800091E09F938F930E9448040F900F900F90DF
:100190000F900F900F90DF91CF911F910F91FF90D3
:1001A000EF900895CF93DF93CDB7DEB72B970FB6BF
:1001B000F894DEBF0FBECDBF8FE190E00E945A03DE
:1001C0000E947B038AEF91E00E945E040E948203FA
:1001D0008CE092E00E945E040E94D3020E94C7015C
:1001E000811104C08FE192E00E945E040E945700DA
:1001F00080E00E94510180E090E0813127E2920787
:10020000E4F08BE0EAE0F1E0DE01119601900D925E
:100210008A95E1F7C980DA80EB80FC800D811E8130
:100220002F81388549855A856B8580E00E940302BD
:1002300080E00E94660180E090E00196DECF88B306
:100240008F7E88BB80EC0E94520388B3806188BB9C
:100250000895CF93C82F88B38F7E88BB83E00E9418
:1002600052038C2F0E9452030E94550398B3906151
:1002700098BBCF910895CF93DF93D82FC62F88B323
:100280008F7E88BB82E00E9452038D2F0E94520312
:100290008C2F0E94520388B3806188BBDF91CF917D
:1002A0000895CF93C82F682F8FE00E943B018EE006
:1002B0000E942901807EC81731F086E392E00E94F7
:1002C0005E0481E001C080E0CF91089598B39F7EE5
:1002D00098BB8130B9F018F0823039F138C081E82C
:1002E0000E94520380E30E9429011F928F9388E5A8
:1002F00092E09F938F930E9448040F900F900F906D
:100300000F9025C082E80E94520380E40E942901D8
:100310001F928F9388E592E09F938F930E944804E9
:100320000F900F900F900F9012C084E80E9452031C
:1003300080E50E9429011F928F9388E592E09F93A8
:100340008F930E9448040F900F900F900F9088B3E6
:10035000806188BB08951F93CF93DF93182FD62F0A
:10036000C42F88B38F7E88BB85E00E945203812F03
:100370000E9452038D2F0E9452038C2F0E94520321
:1003800088B3806188BBDF91CF911F9108950E944F
:1003900044030E941F018EE00E942901807E803864
:1003A00031F088E792E00E945E0481E0089564E005
:1003B0008AE20E943B016FE989E20E943B0163E40B
:1003C00088E20E943B0140E260E680E60E94AB01C9
:1003D00040E260EE81E00E94AB0140E06FEF80E020
:1003E0000E94AB0140EE60EE81E20E94AB014FEF54
:1003F0006FEF80E20E94AB0140E061E080E60E9486
:10040000AB0180E00895CF92DF92EF92FF920F93BD
:100410001F93CF93DF93CDB7DEB72B970FB6F8942A
:10042000DEBF0FBECDBFC982DA82EB82FC820D83B4
:100430001E832F83388749875A876B87813021F144
:1004400020F0823009F441C03DC009811A81B80111
:1004500076956795769567957695679581E30E9481
:100460003B01012B11F060E201C060E082E30E94D9
:100470003B016B8185E30E943B0188B38F7E88BB83
:1004800081E40E9452031EC009811A81B801769549
:100490006795769567957695679581E40E943B010F
:1004A000012B11F060E201C060E082E40E943B0198
:1004B0006B8185E40E943B0188B38F7E88BB83E417
:1004C0000E94520300E010E02AC009811A81B8019D
:1004D00076956795769567957695679581E50E94FF
:1004E0003B01012B11F060E201C060E082E50E9457
:1004F0003B016B8185E50E943B0188B38F7E88BB01
:1005000085E40E945203DECFE4E0F0E0EC0FFD1F33
:10051000E00FF11F80810E9452030F5F1F4F8B81FC
:1005200090E00817190784F388B3806188BB2B9685
:100530000FB6F894DEBF0FBECDBFDF91CF911F91F4
:100540000F91FF90EF90DF90CF9008950F931F933E
:10055000CF93DF9300E010E01EC060E070E080EB1E
:10056000800F0E949D0360E070E080E00E949D0388
:1005700060E070E080E10E949D03C0E0D0E006C032
:1005800060E072E080E00E949D032196C038D105B2
:10059000BCF30F5F1F4F08301105FCF2DF91CF91C4
:1005A0001F910F91089560E070E08EEA0E949D0314
:1005B00060E070E081EA0E949D0360E070E08AEDF7
:1005C0000E949D0360E070E082E10E949D0360E074
:1005D00070E088EC0E949D0360E070E088EA0E9471
:1005E0009D0360E070E08FE30E949D0360E070E097
:1005F00085ED0E949D0360E070E080E80E949D030D
:1006000060E070E081E80E949D0360E070E080E5BA
:100610000E949D0360E070E089ED0E949D0360E010
:1006200070E081E20E949D0360E070E080E20E9441
:100630009D0360E070E082E00E949D0360E070E056
:100640008BED0E949D0360E070E080E30E949D03BB
:1006500060E070E08DEA0E949D0360E070E080E061
:100660000E949D0360E070E084EA0E949D0360E0C8
:1006700070E086EA0E949D0360E070E08FEA0E94CD
:100680009D030E94A602089587B3806B87BB8DB13E
:1006900081658DB988B3806188BB08958FB9779BD8
:1006A000FECF08950E944E03089580E00E944E03FD
:1006B0008FB1089590BD89B988E18AB986E880BD77
:1006C00008955D9BFECF8CB90895CF93C82F8A30D3
:1006D00019F48DE00E9461038C2F0E94610380E079
:1006E00090E0CF9108955F9BFECF8CB108950E945A
:1006F000730390E0089567E773E085E693E00E9456
:10070000FD03089585B7806885BF80B7877E80BF69
:1007100080B7806280BF80E181BBEBE8F0E0808140
:1007200081688083EAE8F0E080818960808387B314
:1007300087BB88B3826088BB0895FB01F05F80832C
:1007400008958F929F92AF92BF92CF92DF92EF92D5
:10075000FF92CF93DF93EC01688179818A819B813D
:10076000611571058105910521F464E279ED8BE550
:1007700097E02DE133EF41E050E00E94630849012A
:100780005A019B01AC01A7EAB1E40E9482086B0107
:100790007C01ACEEB4EFA50194010E949008DC014D
:1007A000CB018C0D9D1DAE1DBF1DB7FF03C0019772
:1007B000A109B04888839983AA83BB839F77DF917F
:1007C000CF91FF90EF90DF90CF90BF90AF909F9030
:1007D0008F9008950E94A103089580E091E00E9407
:1007E000A1030895A0E0B0E080930001909301017F
:1007F000A0930201B093030108950F931F93CF9329
:10080000DF93009731F46115710519F480E090E0F1
:100810003AC08B01EC016EE070E081E090E00E9454
:100820006F06FC01892B91F380E883830115110584
:1008300071F01387028781E883838091C8029091C9
:10084000C902892B21F4F093C902E093C8022097D2
:10085000C9F0D187C0878381826083838091CA0277
:100860009091CB02892B71F4F093CB02E093CA02F2
:100870008091CC029091CD02892B21F4F093CD028E
:10088000E093CC02CF01DF91CF911F910F9108959A
:10089000A0E0B0E0EEE4F4E00C94A508AE014B5FFC
:1008A0005F4FFA0161917191AF018091CA029091FD
:1008B000CB020E948E04E2E00C94C1080F931F93B8
:1008C000CF93DF93E091CA02F091CB02238121FF05
:1008D0001BC08C01D0E0C0E0F80181918F016091D4
:1008E000CA027091CB02DB011896ED91FC91199729
:1008F000882331F00995892B79F3DFEFCFEFECCF27
:100900008AE00995892B19F08FEF9FEF02C08D2F98
:100910009C2FDF91CF911F910F910895ABE0B0E034
:10092000E4E9F4E00C9495086C017B018A01FC0178
:1009300017821682838181FFCCC1CE0101963C01D2
:10094000F6019381F70193FD859193FF81917F01DA
:10095000882309F4BAC1853239F493FD859193FF58
:1009600081917F01853229F4B60190E00E94C90788
:10097000E7CF912C212C312CFFE1F315D8F08B32ED
:1009800079F038F4803279F08332A1F4232D20619C
:100990001DC08D3261F0803369F4232D216016C0B3
:1009A000832D8260382EE32DE4603E2E2AC0F32D85
:1009B000F8601DC037FC2DC020ED280F2A3040F014
:1009C0008E32B9F436FC81C1232D2064322E19C039
:1009D00036FE06C08AE0989E200D1124922E11C08A
:1009E000EAE02E9E200D1124222EF32DF0623F2EE0
:1009F00008C08C3621F4832D8068382E02C08836DA
:100A000041F4F70193FD859193FF81917F0181115D
:100A1000B3CF982F9F7D9554933028F40C5F1F4FD0
:100A20009FE399830DC0833631F0833771F08335AE
:100A300009F059C021C0F801808189830E5F1F4FE2
:100A400088248394912C530113C02801F2E04F0EA7
:100A5000511CF801A080B18036FE03C0692D70E002
:100A600002C06FEF7FEFC5010E94BE074C018201FB
:100A7000F32DFF773F2E16C0280122E0420E511CB5
:100A8000F801A080B18036FE03C0692D70E002C07D
:100A90006FEF7FEFC5010E94AC074C01F32DF068AA
:100AA0003F2E820133FC1BC0822D90E088169906F0
:100AB000B0F4B60180E290E00E94C9072A94F4CF16
:100AC000F50137FC859137FE81915F01B60190E019
:100AD0000E94C90721102A9421E0821A91088114EA
:100AE000910471F7E8C0843611F0893641F5F801B8
:100AF00037FE07C060817181828193810C5F1F4F37
:100B000008C060817181072E000C880B990B0E5F65
:100B10001F4FF32DFF763F2E97FF09C090958095CC
:100B2000709561957F4F8F4F9F4FF0683F2E2AE061
:100B300030E0A3010E940508882E861845C085373D
:100B400031F4232D2F7EB22E2AE030E025C0932DE4
:100B5000997FB92E8F36C1F018F4883579F0B5C079
:100B6000803719F0883721F0B0C0E92FE061BE2E40
:100B7000B4FE0DC0FB2DF460BF2E09C034FE0AC0C8
:100B8000292F2660B22E06C028E030E005C020E103
:100B900030E002C020E132E0F801B7FE07C060811A
:100BA0007181828193810C5F1F4F06C060817181CA
:100BB00080E090E00E5F1F4FA3010E940508882E81
:100BC0008618FB2DFF773F2E36FE0DC0232D2E7F7E
:100BD000A22E891458F434FE0BC032FC09C0832DB8
:100BE0008E7EA82E05C0B82CA32C03C0B82C01C043
:100BF000B92CA4FE0FC0FE01E80DF11D80818033E9
:100C000021F49A2D997EA92E09C0A2FE06C0B394A4
:100C1000B39404C08A2D867809F0B394A3FC11C064
:100C2000A0FE06C0B21488F4280C922C9B180EC0AB
:100C3000B21460F4B60180E290E00E94C907B39458
:100C4000F7CFB21418F42B1802C0982C212CA4FE54
:100C500010C0B60180E390E00E94C907A2FE17C051
:100C6000A1FC03C088E790E002C088E590E0B601EF
:100C70000CC08A2D867859F0A1FE02C08BE201C01B
:100C800080E2A7FC8DE2B60190E00E94C9078914BA
:100C900038F4B60180E390E00E94C9079A94F7CF38
:100CA0008A94F301E80DF11D8081B60190E00E9465
:100CB000C9078110F5CF222009F442CEB60180E2A7
:100CC00090E00E94C9072A94F6CFF60186819781A9
:100CD00002C08FEF9FEF2B96E2E10C94B1080F93C7
:100CE0001F93CF93DF93869F8001879F100D969F60
:100CF000100D1124C8010E948B06EC01009729F009
:100D0000A80160E070E00E94B707CE01DF91CF91AB
:100D10001F910F9108950F931F93CF93DF9382300C
:100D2000910510F482E090E0E091D002F091D102C0
:100D300020E030E0A0E0B0E0309719F1408151812F
:100D40000281138148175907C8F08417950769F481
:100D5000109731F012960C93129713961C9327C09C
:100D60000093D0021093D10222C02115310519F051
:100D70004217530718F49A01BD01EF01DF01F80192
:100D8000DBCF21153105F9F0281B390B2430310553
:100D900080F48A819B816115710521F0FB019383A9
:100DA000828304C09093D1028093D002FE013296D8
:100DB00044C0FE01E20FF31F819391932250310949
:100DC000398328833AC02091CE023091CF02232B61
:100DD00041F420910601309107013093CF02209316
:100DE000CE0220910401309105012115310541F415
:100DF0002DB73EB74091080150910901241B350BD6
:100E0000E091CE02F091CF02E217F307A0F42E1B7F
:100E10003F0B2817390778F0AC014E5F5F4F24175E
:100E2000350748F04E0F5F1F5093CF024093CE021C
:100E30008193919302C0E0E0F0E0CF01DF91CF9188
:100E40001F910F910895CF93DF93009709F481C00C
:100E5000FC01329713821282A091D002B091D1028C
:100E6000109781F420813181820F931F2091CE024F
:100E70003091CF022817390751F5F093CF02E09354
:100E8000CE0267C0ED0120E030E0CE17DF0740F46E
:100E90004A815B819E0141155105F1F0EA01F5CFD0
:100EA000D383C28340815181840F951FC817D9070E
:100EB00059F488819981840F951F029691838083CC
:100EC0008A819B81938382832115310529F4F093D4
:100ED000D102E093D0023DC0E901FB83EA8349914E
:100EE0005991C40FD51FEC17FD0761F480819181E2
:100EF000840F951F0296E9019983888382819381EB
:100F00009B838A83E0E0F0E012968D919C91139789
:100F1000009719F0FD01DC01F7CF8D919C9111979D
:100F20009D012E5F3F4F820F931F2091CE02309183
:100F3000CF022817390769F4309729F41092D102AB
:100F40001092D00202C013821282B093CF02A093FB
:100F5000CE02DF91CF910895FC0105906150704061
:100F60000110D8F7809590958E0F9F1F0895DC0192
:100F700001C06D9341505040E0F70895FC0161506D
:100F8000704001900110D8F7809590958E0F9F1FAB
:100F900008950F931F93CF93DF93FB01238121FDCE
:100FA00003C08FEF9FEF2CC022FF16C046815781F0
:100FB000248135814217530744F4A081B1819D01FA
:100FC0002F5F3F4F318320838C93268137812F5FA2
:100FD0003F4F3783268314C08B01EC01FB01008453
:100FE000F185E02D0995892BE1F6D80116968D91B2
:100FF0009C911797019617969C938E931697CE0106
:10100000DF91CF911F910F910895FA01AA272830FF
:1010100051F1203181F1E8946F936E7F6E5F7F4FC5
:101020008F4F9F4FAF4FB1E03ED0B4E03CD0670F41
:10103000781F891F9A1FA11D680F791F8A1F911D94
:10104000A11D6A0F711D811D911DA11D20D009F4E4
:1010500068943F912AE0269F11243019305D319326
:10106000DEF6CF010895462F4770405D4193B3E00F
:101070000FD0C9F7F6CF462F4F70405D4A3318F0B6
:10108000495D31FD4052419302D0A9F7EACFB4E067
:10109000A6959795879577956795BA95C9F700971F
:1010A0006105710508959B01AC010A2E06945795C0
:1010B000479537952795BA95C9F7620F731F841F17
:1010C000951FA01D0895052E97FB1EF400940E9405
:1010D0007A0857FD07D00E94CC0807FC03D04EF4D5
:1010E0000C947A0850954095309521953F4F4F4F7D
:1010F0005F4F089590958095709561957F4F8F4FC4
:101100009F4F08950E94EE08A59F900DB49F900DEB
:10111000A49F800D911D11240895B7FF0C9482089F
:101120000E948208821B930B08952F923F924F9248
:101130005F926F927F928F929F92AF92BF92CF9267
:10114000DF92EF92FF920F931F93CF93DF93CDB770
:10115000DEB7CA1BDB0B0FB6F894DEBF0FBECDBFE8
:1011600009942A88398848885F846E847D848C84B9
:101170009B84AA84B984C884DF80EE80FD800C81C2
:101180001B81AA81B981CE0FD11D0FB6F894DEBFA5
:101190000FBECDBFED010895A1E21A2EAA1BBB1B05
:1011A000FD010DC0AA1FBB1FEE1FFF1FA217B30733
:1011B000E407F50720F0A21BB30BE40BF50B661F49
:1011C000771F881F991F1A9469F76095709580950D
:1011D00090959B01AC01BD01CF010895A29FB00184
:1011E000B39FC001A39F700D811D1124911DB29F5B
:0E11F000700D811D1124911D0895F894FFCFFC
:1011FE00010000000000D202200001000868656CAA
:10120E006F6672696B5374617274696E67205352A4
:10121E00414D20746573742E2E2E005772697465BD
:10122E00207068617365206572726F723A206578FE
:10123E00745F72616D5B2534645D203D2025303214
:10124E0058202873686F756C6420626520253032D3
:10125E0058290A0052657472696576616C2070684F
:10126E00617365206572726F723A206578745F7271
:10127E00616D5B2534645D203D2025303258202879
:10128E0073686F756C642062652025303258290AA8
:10129E00005352414D207465737420636F6D706CF2
:1012AE00657465642077697468200A253464206546
:1012BE0072726F727320696E207772697465207016
:1012CE006861736520616E64200A2534642065723E
:1012DE00726F727320696E207265747269657661C1
:1012EE006C2070686173650A0A005541525420697A
:1012FE006E697469616C697A65642100786D656DDB
:10130E0020696E697469616C697A65642120006D6B
:10131E006370633235313520696E697469616C6949
:10132E007A6564212000204D4350323531352069D5
:10133E0073204E4F5420696E20636F727265637412
:10134E00206D6F646520210054585245513A20306B
:10135E0078253032580A004E6F6520726172742003
:10136E00736B6A6564646500204D435032353135C8
:10137E00206973204E4F5420696E20636F6E66692C
:10138E006775726174696F6E206D6F64652061663A
:10139E007465722072657365742021004D6F6465EB
:1013AE003A203078253032580A00446174613A2070
:0813BE003078253032580A0096
:00000001FF
