S010000050696E67506F6E672E73726563F2
S11300000C9438000C9442000C9442000C9442006E
S11300100C9442000C9442000C9442000C94420054
S11300200C9442000C9442000C9442000C94420044
S11300300C9442000C9442000C9442000C94420034
S11300400C9442000C9442000C9442000C94420024
S11300500C9442000C9442000C9442000C94420014
S11300600C9442000C9442000C9442000C94420004
S113007011241FBECFEFD4E0DEBFCDBF0E945300DA
S11300800C945E000C94000090BD89B988E18AB993
S113009086E880BD08955D9BFECF8CB908955F9B73
S11300A0FECF8CB108958FE190E00E9444000E943D
S11300B04F008823E1F30E944B00F9CFF894FFCF5F
S9030000FC
