S010000050696E67506F6E672E73726563F2
S11300000C94B4010C94D1010C94D1010C94D10141
S11300100C94D1010C94D1010C94D1010C94D10114
S11300200C94D1010C94D1010C94D1010C94D10104
S11300300C94D1010C94D1010C94D1010C94D101F4
S11300400C94D1010C94D1010C94D1010C94D101E4
S11300500C94D1010C94D1010C94D1010C94D101D4
S11300600C94D1010C94D1010C94D1010C94D101C4
S1130070000000000000000000065F5F06000000B2
S11300800007070007070000147F7F147F7F140018
S1130090242E6B6B3A120000466630180C66620020
S11300A0307A4F5D377A48000407030000000000EF
S11300B0001C3E63410000000041633E1C00000040
S11300C0082A3E1C1C3E2A0808083E3E0808000078
S11300D000A0E0600000000008080808080800000C
S11300E000006060000000006030180C060301008E
S11300F03E7F594D7F3E000042427F7F40400000DA
S1130100627359496F660000226349497F360000D3
S1130110181C16137F7F1000276745457D390000A2
S11301203C7E4B4979300000036371190F070000CE
S1130130367F49497F360000064F49693F1E00005B
S113014000006C6C0000000000A0EC6C00000000DB
S1130150081C366341000000141414141414000025
S1130160004163361C080000020351590F060000C9
S11301703E7F415D5D1F1E007C7E13137E7C00006C
S1130180417F7F49497F36001C3E63414163220021
S1130190417F7F41637F1C00417F7F495D41630054
S11301A0417F7F491D0103001C3E6341517372006E
S11301B07F7F08087F7F000000417F7F41000000AF
S11301C0307040417F3F0100417F7F081C7763000E
S11301D0417F7F41406070007F7F060C067F7F0077
S11301E07F7F060C187F7F001C3E6341633E1C002A
S11301F0417F7F49090F06001E3F21717F5E000089
S1130200417F7F19396F460026674D597B320000C4
S113021003417F7F410300007F7F40407F7F0000D8
S11302201F3F60603F1F00007F7F3018307F7F00DA
S113023063771C081C776300074F78784F0700002A
S11302406773594D47637100007F7F41410000008F
S11302500103060C183060000041417F7F0000005C
S1130260080C0603060C0800808080808080808053
S11302700000030704000000207454543C7840003C
S1130280413F7F44447C3800387C44446C2800005F
S1130290307848493F7F4000387C54545C18000053
S11302A0487E7F490302000098BCA4A4F87C0400A3
S11302B0417F7F08047C780000447D7D400000007D
S11302C040C484FD7D000000417F7F10386C4400F1
S11302D000417F7F400000007C7C0C180C7C78007F
S11302E07C7C04047C780000387C44447C38000026
S11302F084FCF8A4243C1800183C24A4F8FC8400D2
S1130300447C78441C180000485C54547424000055
S113031000043E7F442400003C7C40403C7C400080
S11303201C3C60603C1C00003C7C6030607C3C00F9
S1130330446C3810386C44009CBCA0A0FC7C0000C9
S11303404C64745C4C64000008083E774141000032
S113035000000077770000004141773E0808000064
S1130360020301030203010011241FBECFEFD4E0F6
S1130370DEBFCDBF13E0A0E0B1E0E4EEFFE102C0D8
S113038005900D92A435B107D9F723E0A4E5B3E0B5
S113039001C01D92AE35B207E1F70E944E020C94E3
S11303A0F00F0C940000EF92FF920F931F93CF93E2
S11303B0DF938CE191E00E94510B0E94E00A7C01E2
S11303C00E94E50AC0E0D0E000E010E020C00E94F6
S11303D0E00AFE01F85E808320812817B9F099278E
S11303E09F938F931F922F93DF93CF9382E391E098
S11303F09F938F930E943B0B0F5F1F4F8DB79EB748
S113040008960FB6F8949EBF0FBE8DBF2196C115F6
S113041098E0D907E0F2C7010E94E50AC0E0D0E005
S1130420E12CF12C20C00E94E00AFE01F85E20813C
S11304302817C1F099279F938F931F922F93DF93CF
S1130440CF938BE691E09F938F930E943B0B8FEFAA
S1130450E81AF80A8DB79EB708960FB6F8949EBFAF
S11304600FBE8DBF2196C11598E0D907E0F2FF9227
S1130470EF921F930F9388EA91E09F938F930E94CA
S11304803B0B0F900F900F900F900F900F90DF91F8
S1130490CF911F910F91FF90EF9008958FE190E01D
S11304A00E94B7060E94D80681E092E00E94510B98
S11304B00E94DF0683E192E00E94510B0E942B040C
S11304C00E941303811104C086E292E00E94510B42
S11304D00E94D3010E944707062F172FD82FC92F38
S11304E09F938F937F936F938DE392E09F938F936A
S11304F00E943B0B0E94B303602F712F8D2F9C2F02
S11305000E940F060F900F900F900F900F900F9076
S1130510FFCF88B38F7E88BB80EC0E94AF0688B380
S1130520806188BB0895CF93C82F88B38F7E88BB22
S113053083E00E94AF068C2F0E94AF060E94B20691
S113054098B3906198BBCF910895CF93DF93D82F40
S1130550C62F88B38F7E88BB82E00E94AF068D2FA2
S11305600E94AF068C2F0E94AF0688B3806188BBBF
S1130570DF91CF910895CF93C82F682F8FE00E9409
S1130580A5028EE00E949302807EC81731F08DE4AC
S113059092E00E94510B81E001C080E0CF91089568
S11305A098B39F7E98BB813041F018F0823049F0B7
S11305B00BC081E80E94AF0607C082E80E94AF0624
S11305C003C084E80E94AF0680E30E9493021F9256
S11305D08F938FE692E09F938F930E943B0B88B397
S11305E0806188BB0F900F900F900F9008951F9318
S11305F0CF93DF93182FD62FC42F88B38F7E88BB59
S113060085E00E94AF06812F0E94AF068D2F0E94C5
S1130610AF068C2F0E94AF0688B3806188BBDF9140
S1130620CF911F9108950E94A1060E9489028EE035
S11306300E949302807E803831F08CE892E00E9420
S1130640510B81E0089564E08AE20E94A5026FE9FB
S113065089E20E94A50263E488E20E94A50240E2C6
S113066060E680E60E94F70240E260EE81E00E94CC
S1130670F70240E06FEF80E00E94F70240EE60EE88
S113068081E20E94F7024FEF6FEF80E20E94F702CF
S113069040E061E080E60E94F70280E40E94BB0231
S11306A080E008950F931F93CF93C62F8A01813062
S11306B0E9F018F08230F1F020C0BA017695679520
S11306C0769567957695679581E30E94A502012B3F
S11306D011F060E201C060E082E30E94A50288B3E9
S11306E08F7E88BB81E40E94AF0607C083E40E942A
S11306F0AF0603C085E40E94AF068C2F0E94AF06AC
S113070088B3806188BBCF911F910F910895CF93D7
S1130710C82F88B38F7E88BBCC2319F0C13029F051
S113072007C080E90E94AF0603C084E90E94AF06B7
S11307300E94B20688B3806188BB88B38F7E88BB71
S1130740CC2319F0C13029F007C082E90E94AF061A
S113075003C086E90E94AF060E94B20698B3906176
S113076098BBCF910895CF93DF9380E40E94BB029E
S113077041E050E064EB80E00E94520380E00E947C
S1130780D00261E080E00E9487031F928F93C0EC47
S1130790D2E0DF93CF930E943B0B41E050E06AEC40
S11307A080E00E94520380E00E94D00261E080E079
S11307B00E9487031F928F93DF93CF930E943B0B7A
S11307C040E050E06CE680E00E94520380E00E942A
S11307D0D00261E080E00E9487031F928F93DF9331
S11307E0CF930E943B0B8DB79EB70C960FB6F8942F
S11307F09EBF0FBE8DBFDF91CF9108950F931F93BE
S1130800CF93DF9300E010E01EC060E070E080EB67
S1130810800F0E94FA0660E070E080E00E94FA0611
S113082060E070E080E10E94FA06C0E0D0E006C01B
S113083060E072E080E00E94FA062196C038D1059B
S1130840BCF30F5F1F4F08301105FCF2DF91CF910D
S11308501F910F91089560E070E08EEA0E94FA06FD
S113086060E070E081EA0E94FA0660E070E08AEDE0
S11308700E94FA0660E070E082E10E94FA0660E0FD
S113088070E088EC0E94FA0660E070E088EA0E945A
S1130890FA0660E070E08FE30E94FA0660E070E020
S11308A085ED0E94FA0660E070E080E80E94FA0696
S11308B060E070E081E80E94FA0660E070E080E5A4
S11308C00E94FA0660E070E089ED0E94FA0660E09A
S11308D070E081E20E94FA0660E070E080E20E942B
S11308E0FA0660E070E082E00E94FA0660E070E0E0
S11308F08BED0E94FA0660E070E080E30E94FA0645
S113090060E070E08DEA0E94FA0660E070E080E04A
S11309100E94FA0660E070E084EA0E94FA0660E051
S113092070E086EA0E94FA0660E070E08FEA0E94B6
S1130930FA060E94FE030895EF92FF920F931F930D
S1130940CF93DF937B01082F10E000521109C0E020
S1130950D0E026C0E114F10491F0F801EE0FFF1F7E
S1130960EE0FFF1FEE0FFF1FEC0FFD1FE059FF4FAF
S1130970849160E072E080950E94FA0610C0F8014C
S1130980EE0FFF1FEE0FFF1FEE0FFF1FEC0FFD1FFB
S1130990E059FF4F849160E072E00E94FA062196CC
S11309A0C830D105BCF2DF91CF911F910F91FF9018
S11309B0EF900895CF93DF93EC0105C060E070E001
S11309C00E949C04219688818111F8CFDF91CF91F8
S11309D00895CF93DF93EC0105C061E070E00E94BD
S11309E09C04219688818111F8CFDF91CF910895DD
S11309F0CF93DF93CDB7DEB728970FB6F894DEBF59
S1130A000FBECDBF28E0EAE0F1E0DE0111960190CF
S1130A100D922A95E1F721E030E02C0F3D1F820F63
S1130A20931F60E070E0FC0180810E94FA06289622
S1130A300FB6F894DEBF0FBECDBFDF91CF910895FE
S1130A400F931F93CF93DF938C01C0E0D0E00DC0D0
S1130A50CE010E94F804FE01EE0FFF1FE00FF11F0C
S1130A60808191810E94DA042196C830D10584F3F3
S1130A70DF91CF911F910F9108953F924F925F9212
S1130A806F927F928F929F92AF92BF92CF92DF929A
S1130A90EF92FF920F931F93CF93DF9300D000D078
S1130AA000D0CDB7DEB72B013C016A014901CA0170
S1130AB00E942005F40100811181A12CB12C80E059
S1130AC090E0E12CF12C8131F7E29F070CF48CC00B
S1130AD0C301B2010E946308382EE114F10409F441
S1130AE04EC022E082131EC0000F111FF601E00F5A
S1130AF0F11F808191810E94DA041A141B045CF4B2
S1130B0081E0A81AB108F501EE0FFF1FE80DF91DE9
S1130B100081118126C0F40102811381AA24A394C7
S1130B20B12C1FC0F3E08F131CC0000F111FF6017E
S1130B30E00FF11F808191810E94DA04A114B104B5
S1130B4059F42FEFA21AB20AF501EE0FFF1FE80DB8
S1130B50F91D0081118105C0F40100811181A12CCE
S1130B60B12CC8010E94F804F801EE0FFF1FEC0D30
S1130B70FD1D808191810E94E904E12CF12CF4E0B7
S1130B803F1230C00E94B60829833A834B835C83AA
S1130B906D837E8389819A81892B49F41DC00E94CB
S1130BA0B60829833A834B835C836D837E83898172
S1130BB09A81892BA1F780E090E00BC0FC01EE0F35
S1130BC0FF1FE80DF91D208131810217130771F011
S1130BD001968230910590F380E090E0EE24E39456
S1130BE0F12C02C080E090E001966DCFC8012696FA
S1130BF00FB6F894DEBF0FBECDBFDF91CF911F912A
S1130C000F91FF90EF90DF90CF90BF90AF909F90A7
S1130C108F907F906F905F904F903F900895CF9307
S1130C20DF93CDB7DEB7A8970FB6F894DEBF0FBE3B
S1130C30CDBF4B015C010E94FE032BEF32E03A83EF
S1130C40298388EC92E09C838B834EE253E05E839D
S1130C504D8398878F834FE353E05A8749879C8756
S1130C608B879E878D87388B2F8724E030E03A8BE3
S1130C70298B3C8B2B8B9E8B8D8B988F8F8B49ED87
S1130C8052E05A8F498F9C8F8B8F4AEE52E05E8FD1
S1130C904D8F98A38F8F9AA389A39CA38BA382E0E3
S1130CA090E09EA38DA338A72FA310E001C010E00D
S1130CB011111CC09E012F5E3F4FAE014F5F5F4F6D
S1130CC0C501B4010E943D057C01FF928F9380E52C
S1130CD093E09F938F930E943B0B0F900F900F9084
S1130CE00F9084E0E816F10409F411E01F921F93B9
S1130CF080E593E09F938F930E943B0B0F900F909E
S1130D000F900F901130A1F69E012B5D3F4FAE0165
S1130D104B5E5F4FC501B4010E943D057C01FF920B
S1130D208F9380E593E09F938F930E943B0B0F90EA
S1130D300F900F900F9084E0E816F10409F0B8CFFB
S1130D40B6CF87B3806B87BB8DB181658DB988B30E
S1130D50806188BB08958FB9779BFECF08950E9468
S1130D60AB06089580E00E94AB068FB1089590BD54
S1130D7089B988E18AB986E880BD08955D9BFECF74
S1130D808CB90895CF93C82F8A3019F48DE00E944E
S1130D90BE068C2F0E94BE0680E090E0CF9108959D
S1130DA05F9BFECF8CB108950E94D00690E0089519
S1130DB064ED76E082EC96E00E94F00A089585B72F
S1130DC0806885BF80B7877E80BF80B7806280BF20
S1130DD080E181BBEBE8F0E0808181688083EAE810
S1130DE0F0E080818960808387B387BB88B38260A9
S1130DF088BB0895FB01F05F80830895905FFC0138
S1130E0080810895CF93DF93CDB7DEB760970FB697
S1130E10F894DEBF0FBECDBF60E074E081E00E94B5
S1130E20FA0680E094E00E94FE0690E09E878D879B
S1130E3080E094E00E94FE0690E09C878B8780E02F
S1130E4094E00E94FE0690E09A87898780E094E00F
S1130E500E94FE0690E0988B8F8788E0FE01399609
S1130E60DE01119601900D928A95E1F729813A816C
S1130E704B815C816D817E818F81988560960FB6F0
S1130E80F894DEBF0FBECDBFDF91CF910895CF930D
S1130E90DF93CDB7DEB728970FB6F894DEBF0FBE49
S1130EA0CDBF80E090E0DC0103C00196A11DB11D1F
S1130EB0803A26E8920721E0A207B105B0F30E9428
S1130EC0020729833A834B835C836D837E838F83FC
S1130ED0988729813A81B901605871092B813C8135
S1130EE0C9018058910928960FB6F894DEBF0FBE49
S1130EF0CDBFDF91CF9108954F925F926F927F9211
S1130F008F929F92AF92BF92CF92DF92EF92FF9215
S1130F100F931F93CF93DF93CDB7DEB728970FB608
S1130F20F894DEBF0FBECDBF29833A834B835C8325
S1130F306D837E838F8398876701780129813A8145
S1130F40C60180589F4F8217930744F569817A81BF
S1130F506C197D0960587109072E000C880B990BD8
S1130F600E949B094B015C0160E870E06C197D09EB
S1130F70072E000C880B990B0E949B099B01AC0166
S1130F80C501B4010E94F10820E030E048EC52E4CD
S1130F900E94270A0E9463094B0126C069817A8155
S1130FA06C197D0960587109072E000C880B990B88
S1130FB00E949B094B015C01B60160587F4F072ECC
S1130FC0000C880B990B0E949B099B01AC01C50185
S1130FD0B4010E94F10820E030E048EC52E40E94A1
S1130FE0270A0E9463094B012B813C81C701805869
S1130FF09F4F8217930744F56B817C816E197F099B
S113100060587109072E000C880B990B0E949B09EC
S11310102B013C0160E870E06E197F09072E000C7B
S1131020880B990B0E949B099B01AC01C301B2017F
S11310300E94F10820E030E048EC52E40E94270AC4
S11310400E9463095B0126C06B817C816E197F0954
S113105060587109072E000C880B990B0E949B099C
S11310602B013C01B70160587F4F072E000C880B01
S1131070990B0E949B099B01AC01C301B2010E9420
S1131080F10820E030E048EC52E40E94270A0E9474
S113109063095B01C501B40128960FB6F894DEBF5D
S11310A00FBECDBFDF91CF911F910F91FF90EF90B5
S11310B0DF90CF90BF90AF909F908F907F906F9074
S11310C05F904F900895CF92DF92EF92FF920F932B
S11310D01F93CF93DF93CDB7DEB728970FB6F8945D
S11310E0DEBF0FBECDBF6B017C010E9402078701EA
S11310F076010E947C07613B2FEF720754F0603544
S113110071053CF4813B2FEF92071CF0803591056B
S1131110CCF09B01772324F422273327261B370B9B
S1131120AC01992324F444275527481B590B421733
S1131130530724F4772344F480E009C0992334F45A
S113114083E005C084E003C081E001C082E028960A
S11311500FB6F894DEBF0FBECDBFDF91CF911F91C4
S11311600F91FF90EF90DF90CF900895CF93DF938E
S1131170CDB7DEB72C970FB6F894DEBF0FBECDBF48
S113118086B386B3869591E08927682F617070E0F5
S113119078876F8386B3482F417050E05A87498718
S11311A086B382FB222720F930E03C872B8786E038
S11311B0FE013796DE01119601900D928A95E1F7B2
S11311C029813A814B815C816D817E8180E090E050
S11311D02C960FB6F894DEBF0FBECDBFDF91CF9132
S11311E008950E9405090C94ED090E94E60958F03F
S11311F00E94DF0940F029F45F3F29F00C94D609DE
S113120051110C94210A0C94DC090E94FE0968F324
S11312109923B1F3552391F3951B550BBB27AA27AB
S113122062177307840738F09F5F5F4F220F331FE5
S1131230441FAA1FA9F335D00E2E3AF0E0E832D0AD
S113124091505040E695001CCAF72BD0FE2F29D0B0
S1131250660F771F881FBB1F261737074807AB0782
S1131260B0E809F0BB0B802DBF01FF2793585F4FF7
S11312703AF09E3F510578F00C94D6090C94210A5B
S11312805F3FE4F3983ED4F3869577956795B795D9
S1131290F7959F5FC9F7880F911D9695879597F9E4
S11312A00895E1E0660F771F881FBB1F621773075D
S11312B08407BA0720F0621B730B840BBA0BEE1F72
S11312C088F7E09508950E946A096894B1110C9416
S11312D0210A08950E94060A88F09F5798F0B92FB2
S11312E09927B751B0F0E1F0660F771F881F991F57
S11312F01AF0BA95C9F714C0B13091F00E94200ACF
S1131300B1E008950C94200A672F782F8827B85FDE
S113131039F0B93FCCF3869577956795B395D9F7AE
S11313203EF490958095709561957F4F8F4F9F4FB8
S11313300895E89409C097FB3EF4909580957095C4
S113134061957F4F8F4F9F4F9923A9F0F92F96E90D
S1131350BB279395F695879577956795B795F11182
S1131360F8CFFAF4BB0F11F460FF1BC06F5F7F4F1F
S11313708F4F9F4F16C0882311F096E911C0772331
S113138021F09EE8872F762F05C0662371F096E83A
S1131390862F70E060E02AF09A95660F771F881F09
S11313A0DAF7880F9695879597F9089597F99F67C7
S11313B080E870E060E008959FEF80EC08950024D9
S11313C00A941616170618060906089500240A94A6
S11313D012161306140605060895092E0394000C2C
S11313E011F4882352F0BB0F40F4BF2B11F460FFBB
S11313F004C06F5F7F4F8F4F9F4F089557FD9058E4
S1131400440F551F59F05F3F71F04795880F97FBC4
S1131410991F61F09F3F79F087950895121613067E
S11314201406551FF2CF4695F1DF08C016161706AD
S11314301806991FF1CF86957105610508940895E2
S1131440E894BB2766277727CB0197F908950E9474
S11314503A0A0C94ED090E94DF0938F00E94E6096B
S113146020F0952311F00C94D6090C94DC09112476
S11314700C94210A0E94FE0970F3959FC1F3950F05
S113148050E0551F629FF001729FBB27F00DB11D04
S1131490639FAA27F00DB11DAA1F649F6627B00D94
S11314A0A11D661F829F2227B00DA11D621F739F7D
S11314B0B00DA11D621F839FA00D611D221F749F8B
S11314C03327A00D611D231F849F600D211D822FD2
S11314D0762F6A2F11249F5750409AF0F1F08823F9
S11314E04AF0EE0FFF1FBB1F661F771F881F915026
S11314F05040A9F79E3F510580F00C94D6090C94F6
S1131500210A5F3FE4F3983ED4F386957795679577
S1131510B795F795E7959F5FC1F7FE2B880F911D4F
S11315209695879597F908958F929F92AF92BF925F
S1131530CF92DF92EF92FF92CF93DF93EC01688119
S113154079818A819B81611571058105910521F459
S113155064E279ED8BE597E02DE133EF41E050E073
S11315600E94560F49015A019B01AC01A7EAB1E45C
S11315700E94750F6B017C01ACEEB4EFA5019401E0
S11315800E94830FDC01CB018C0D9D1DAE1DBF1D80
S1131590B7FF03C00197A109B04888839983AA8340
S11315A0BB839F77DF91CF91FF90EF90DF90CF9037
S11315B0BF90AF909F908F9008950E94940A0895D1
S11315C080E091E00E94940A0895A0E0B0E0809346
S11315D0000190930101A0930201B09303010895C7
S11315E00F931F93CF93DF93009731F46115710527
S11315F019F480E090E03AC08B01EC016EE070E0F9
S113160081E090E00E94620DFC01892B91F380E857
S113161083830115110571F01387028781E88383A1
S11316208091540390915503892B21F4F093550331
S1131630E09354032097C9F0D187C08783818260E7
S113164083838091560390915703892B71F4F0930F
S11316505703E09356038091580390915903892BC3
S113166021F4F0935903E0935803CF01DF91CF9114
S11316701F910F910895A0E0B0E0E1E4FBE00C9429
S1131680980FAE014B5F5F4FFA0161917191AF0109
S113169080915603909157030E94810BE2E00C94D1
S11316A0B40F0F931F93CF93DF93E0915603F09100
S11316B05703238121FF1BC08C01D0E0C0E0F80157
S11316C081918F016091560370915703DB01189645
S11316D0ED91FC911997882331F00995892B79F3C1
S11316E0DFEFCFEFECCF8AE00995892B19F08FEF6C
S11316F09FEF02C08D2F9C2FDF91CF911F910F91EF
S11317000895ABE0B0E0E7E8FBE00C94880F6C01CF
S11317107B018A01FC0117821682838181FFCCC17F
S1131720CE0101963C01F6019381F70193FD859169
S113173093FF81917F01882309F4BAC1853239F47A
S113174093FD859193FF81917F01853229F4B60140
S113175090E00E94BC0EE7CF912C212C312CFFE1AC
S1131760F315D8F08B3279F038F4803279F0833283
S1131770A1F4232D20611DC08D3261F0803369F402
S1131780232D216016C0832D8260382EE32DE46062
S11317903E2E2AC0F32DF8601DC037FC2DC020ED6D
S11317A0280F2A3040F08E32B9F436FC81C1232D43
S11317B02064322E19C036FE06C08AE0989E200DA1
S11317C01124922E11C0EAE02E9E200D1124222E07
S11317D0F32DF0623F2E08C08C3621F4832D8068EF
S11317E0382E02C0883641F4F70193FD859193FFAA
S11317F081917F018111B3CF982F9F7D95549330B0
S113180028F40C5F1F4F9FE399830DC0833631F09A
S1131810833771F0833509F059C021C0F801808104
S113182089830E5F1F4F88248394912C530113C026
S11318302801F2E04F0E511CF801A080B18036FE61
S113184003C0692D70E002C06FEF7FEFC5010E94F5
S1131850B10E4C018201F32DFF773F2E16C02801F3
S113186022E0420E511CF801A080B18036FE03C074
S1131870692D70E002C06FEF7FEFC5010E949F0EDB
S11318804C01F32DF0683F2E820133FC1BC0822DE6
S113189090E088169906B0F4B60180E290E00E94C8
S11318A0BC0E2A94F4CFF50137FC859137FE819163
S11318B05F01B60190E00E94BC0E21102A9421E041
S11318C0821A91088114910471F7E8C0843611F0EA
S11318D0893641F5F80137FE07C060817181828144
S11318E093810C5F1F4F08C060817181072E000C2B
S11318F0880B990B0E5F1F4FF32DFF763F2E97FF3A
S113190009C090958095709561957F4F8F4F9F4F3B
S1131910F0683F2E2AE030E0A3010E94F80E882EE2
S1131920861845C0853731F4232D2F7EB22E2AE048
S113193030E025C0932D997FB92E8F36C1F018F46D
S1131940883579F0B5C0803719F0883721F0B0C0F8
S1131950E92FE061BE2EB4FE0DC0FB2DF460BF2E56
S113196009C034FE0AC0292F2660B22E06C028E022
S113197030E005C020E130E002C020E132E0F801AF
S1131980B7FE07C060817181828193810C5F1F4F14
S113199006C06081718180E090E00E5F1F4FA3015B
S11319A00E94F80E882E8618FB2DFF773F2E36FEF8
S11319B00DC0232D2E7FA22E891458F434FE0BC0A3
S11319C032FC09C0832D8E7EA82E05C0B82CA32C12
S11319D003C0B82C01C0B92CA4FE0FC0FE01E80D51
S11319E0F11D8081803321F49A2D997EA92E09C09E
S11319F0A2FE06C0B394B39404C08A2D867809F07D
S1131A00B394A3FC11C0A0FE06C0B21488F4280C41
S1131A10922C9B180EC0B21460F4B60180E290E0E0
S1131A200E94BC0EB394F7CFB21418F42B1802C062
S1131A30982C212CA4FE10C0B60180E390E00E94F3
S1131A40BC0EA2FE17C0A1FC03C088E790E002C050
S1131A5088E590E0B6010CC08A2D867859F0A1FE85
S1131A6002C08BE201C080E2A7FC8DE2B60190E0E7
S1131A700E94BC0E891438F4B60180E390E00E9401
S1131A80BC0E9A94F7CF8A94F301E80DF11D80817E
S1131A90B60190E00E94BC0E8110F5CF222009F41B
S1131AA042CEB60180E290E00E94BC0E2A94F6CFAA
S1131AB0F6018681978102C08FEF9FEF2B96E2E1BA
S1131AC00C94A40F0F931F93CF93DF93869F8001F1
S1131AD0879F100D969F100D1124C8010E947E0D42
S1131AE0EC01009729F0A80160E070E00E94AA0EC2
S1131AF0CE01DF91CF911F910F9108950F931F9302
S1131B00CF93DF938230910510F482E090E0E0916E
S1131B105C03F0915D0320E030E0A0E0B0E030979A
S1131B2019F1408151810281138148175907C8F086
S1131B308417950769F4109731F012960C93129755
S1131B4013961C9327C000935C0310935D0322C07B
S1131B502115310519F04217530718F49A01BD01F4
S1131B60EF01DF01F801DBCF21153105F9F0281B66
S1131B70390B2430310580F48A819B81611571050C
S1131B8021F0FB019383828304C090935D038093CF
S1131B905C03FE01329644C0FE01E20FF31F819301
S1131BA0919322503109398328833AC020915A03F2
S1131BB030915B03232B41F42091060130910701FE
S1131BC030935B0320935A03209104013091050163
S1131BD02115310541F42DB73EB7409108015091CC
S1131BE00901241B350BE0915A03F0915B03E217C2
S1131BF0F307A0F42E1B3F0B2817390778F0AC012C
S1131C004E5F5F4F2417350748F04E0F5F1F509308
S1131C105B0340935A038193919302C0E0E0F0E0A8
S1131C20CF01DF91CF911F910F910895CF93DF934F
S1131C30009709F481C0FC01329713821282A091AB
S1131C405C03B0915D03109781F420813181820F90
S1131C50931F20915A0330915B032817390751F5DC
S1131C60F0935B03E0935A0367C0ED0120E030E09A
S1131C70CE17DF0740F44A815B819E01411551056F
S1131C80F1F0EA01F5CFD383C28340815181840FFF
S1131C90951FC817D90759F488819981840F951F16
S1131CA00296918380838A819B8193838283211509
S1131CB0310529F4F0935D03E0935C033DC0E90131
S1131CC0FB83EA8349915991C40FD51FEC17FD0793
S1131CD061F480819181840F951F0296E9019983B3
S1131CE08883828193819B838A83E0E0F0E012966B
S1131CF08D919C911397009719F0FD01DC01F7CFAA
S1131D008D919C9111979D012E5F3F4F820F931FE0
S1131D1020915A0330915B032817390769F43097EF
S1131D2029F410925D0310925C0302C013821282A4
S1131D30B0935B03A0935A03DF91CF910895FC0104
S1131D400590615070400110D8F7809590958E0FE2
S1131D509F1F0895DC0101C06D9341505040E0F78E
S1131D600895FC016150704001900110D8F78095EE
S1131D7090958E0F9F1F08950F931F93CF93DF931A
S1131D80FB01238121FD03C08FEF9FEF2CC022FFB5
S1131D9016C046815781248135814217530744F484
S1131DA0A081B1819D012F5F3F4F318320838C93AC
S1131DB0268137812F5F3F4F3783268314C08B01E1
S1131DC0EC01FB010084F185E02D0995892BE1F6F6
S1131DD0D80116968D919C911797019617969C930E
S1131DE08E931697CE01DF91CF911F910F91089595
S1131DF0FA01AA27283051F1203181F1E8946F9338
S1131E006E7F6E5F7F4F8F4F9F4FAF4FB1E03ED0DD
S1131E10B4E03CD0670F781F891F9A1FA11D680F7B
S1131E20791F8A1F911DA11D6A0F711D811D911DAE
S1131E30A11D20D009F468943F912AE0269F112423
S1131E403019305D3193DEF6CF010895462F477087
S1131E50405D4193B3E00FD0C9F7F6CF462F4F70E2
S1131E60405D4A3318F0495D31FD4052419302D040
S1131E70A9F7EACFB4E0A6959795879577956795E6
S1131E80BA95C9F700976105710508959B01AC01E6
S1131E900A2E06945795479537952795BA95C9F70D
S1131EA0620F731F841F951FA01D0895052E97FBB5
S1131EB01EF400940E946D0F57FD07D00E94BF0FBF
S1131EC007FC03D04EF40C946D0F5095409530955B
S1131ED021953F4F4F4F5F4F089590958095709592
S1131EE061957F4F8F4F9F4F08950E94E10FA59FEB
S1131EF0900DB49F900DA49F800D911D1124089501
S1131F00B7FF0C94750F0E94750F821B930B0895F5
S1131F102F923F924F925F926F927F928F929F92F5
S1131F20AF92BF92CF92DF92EF92FF920F931F93E3
S1131F30CF93DF93CDB7DEB7CA1BDB0B0FB6F89494
S1131F40DEBF0FBECDBF09942A88398848885F84D4
S1131F506E847D848C849B84AA84B984C884DF8045
S1131F60EE80FD800C811B81AA81B981CE0FD11D29
S1131F700FB6F894DEBF0FBECDBFED010895A1E208
S1131F801A2EAA1BBB1BFD010DC0AA1FBB1FEE1FEF
S1131F90FF1FA217B307E407F50720F0A21BB30B3A
S1131FA0E40BF50B661F771F881F991F1A9469F7B6
S1131FB060957095809590959B01AC01BD01CF0112
S1131FC00895A29FB001B39FC001A39F700D811D0E
S1131FD01124911DB29F700D811D1124911D08952E
S1071FE0F894FFCF9F
S1131FE40100000000005E032000B0B1B2B3B4B538
S1131FF4B6B71A344E68829CB6D0EAFF5374617241
S113200474696E67205352414D20746573742E2E87
S11320142E00577269746520706861736520657257
S1132024726F723A206578745F72616D5B253464F3
S11320345D203D2025303258202873686F756C6408
S11320442062652025303258290A00526574726969
S11320546576616C207068617365206572726F7255
S11320643A206578745F72616D5B2534645D203D4C
S11320742025303258202873686F756C642062659B
S11320842025303258290A005352414D2074657377
S11320947420636F6D706C6574656420776974680B
S11320A4200A253464206572726F727320696E206D
S11320B4777269746520706861736520616E642049
S11320C40A253464206572726F727320696E2072FB
S11320D4657472696576616C2070686173650A0A57
S11320E4005541525420696E697469616C697A655A
S11320F4642100786D656D20696E697469616C6929
S11321047A65642120006D6370633235313520694A
S11321146E697469616C697A6564212000583A2097
S113212425346420593A20253464200A00204D4380
S11321345032353135206973204E4F5420696E2056
S1132144636F7272656374206D6F6465202100543B
S1132154585245513A202564200A004E6F65207276
S113216461727420736B6A6564646500204D435026
S113217432353135206973204E4F5420696E206303
S11321846F6E66696775726174696F6E206D6F64D2
S1132194652061667465722072657365742021001C
S11321A43078253032580A00202020202020202096
S11321B4202020202020202000202020537461721D
S11321C4742047616D652020200020204261636BE8
S11321D420746F20486F6D652020002D2D2D2D2D2A
S11321E42D2D2D2D2D2D2D2D2D2D2D0020205765FC
S11321F46C636F6D6520686F6D652020002020205E
S11322042020204D656E75202020202020002020D1
S113221477656C636F6D6520686F6D6520200020A1
S113222420202020206D656E752020202020200091
S10722342564000019
S9030000FC
