S010000050696E67506F6E672E73726563F2
S11300000C9438000C9455000C9455000C94550035
S11300100C9455000C9455000C9455000C94550008
S11300200C9455000C9455000C9455000C945500F8
S11300300C9455000C9455000C9455000C945500E8
S11300400C9455000C9455000C9455000C945500D8
S11300500C9455000C9455000C9455000C945500C8
S11300600C9455000C9455000C9455000C945500B8
S113007011241FBECFEFD4E0DEBFCDBF12E0A0E05D
S1130080B1E0E4E9FFE002C005900D92A432B107AB
S1130090D9F722E0A4E2B2E001C01D92AE32B20769
S11300A0E1F70E94D2000C94C8070C940000EF9270
S11300B0FF920F931F93CF93DF938AE091E00E9406
S11300C029030E94B8027C010E94BD02C0E0D0E076
S11300D000E010E020C00E94B802FE01F85E8083B8
S11300E020812817B9F099279F938F931F922F93FC
S11300F0DF93CF9380E291E09F938F930E94130349
S11301000F5F1F4F8DB79EB708960FB6F8949EBF2A
S11301100FBE8DBF2196C11598E0D907E0F2C70143
S11301200E94BD02C0E0D0E0E12CF12C20C00E946E
S1130130B802FE01F85E20812817C1F099279F9329
S11301408F931F922F93DF93CF9389E591E09F9331
S11301508F930E9413038FEFE81AF80A8DB79EB7A6
S113016008960FB6F8949EBF0FBE8DBF2196C11599
S113017098E0D907E0F2FF92EF921F930F9386E97C
S113018091E09F938F930E9413030F900F900F9011
S11301900F900F900F90DF91CF911F910F91FF90CF
S11301A0EF9008958FE190E00E94B5010E94D6017E
S11301B08FEE91E00E9429030E94DD0181E092E02C
S11301C00E9429030E9439010E94AA010E9457003B
S11301D080E090E0DC0103C00196A11DB11D803ACE
S11301E026E8920721E0A207B105B0F30E94450278
S11301F09F938F937F936F9384E192E09F938F9368
S11302000E9413030F900F900F900F900F900F9078
S113021083E00E94B101FCCF0F931F93CF93DF9330
S113022000E010E01EC060E070E080EB800F0E94F0
S1130230F80160E070E080E00E94F80160E070E0A6
S113024080E10E94F801C0E0D0E006C060E072E006
S113025080E00E94F8012196C038D105BCF30F5FFD
S11302601F4F08301105FCF2DF91CF911F910F91C0
S1130270089560E070E08EEA0E94F80160E070E0AA
S113028081EA0E94F80160E070E08AED0E94F801C2
S113029060E070E082E10E94F80160E070E088ECC8
S11302A00E94F80160E070E088EA0E94F80160E0D2
S11302B070E08FE30E94F80160E070E085ED0E9439
S11302C0F80160E070E080E80E94F80160E070E00E
S11302D081E80E94F80160E070E080E50E94F80186
S11302E060E070E089ED0E94F80160E070E081E276
S11302F00E94F80160E070E080E20E94F80160E092
S113030070E082E00E94F80160E070E08BED0E94F2
S1130310F80160E070E080E30E94F80160E070E0C2
S11303208DEA0E94F80160E070E080E00E94F8012C
S113033060E070E084EA0E94F80160E070E086EA20
S11303400E94F80160E070E08FEA0E94F8010E94C8
S11303500C01089587B3806A87BB8DB180658DB920
S113036008958FB9779BFECF089590BD89B988E130
S11303708AB986E880BD08955D9BFECF8CB9089547
S1130380CF93C82F8A3019F48DE00E94BC018C2FC2
S11303900E94BC0180E090E0CF9108955F9BFECF66
S11303A08CB108950E94CE0190E0089562ED71E051
S11303B080EC91E00E94C802089585B7806885BFEB
S11303C080B7877E80BF80B7806280BF80E181BBB9
S11303D0EBE8F0E0808181688083EAE8F0E08081E6
S11303E08960808387B387BB88B3826088BB0895A4
S11303F0FB01F05F80830895905FFC018081089584
S1130400CF93DF93CDB7DEB760970FB6F894DEBF16
S11304100FBECDBF60E074E081E00E94F80180E08F
S113042094E00E94FC0190E09E878D8780E094E038
S11304300E94FC0190E09C878B8780E094E00E94FE
S1130440FC0190E09A87898780E094E00E94FC0197
S113045090E0988B8F8788E0FE013996DE01119633
S113046001900D928A95E1F729813A814B815C8153
S11304706D817E818F81988560960FB6F894DEBF7A
S11304800FBECDBFDF91CF910895CF93DF93CDB74A
S1130490DEB728970FB6F894DEBF0FBECDBF0E941B
S11304A0000229833A834B835C836D837E838F832D
S11304B0988729813A81B901605871092B813C815F
S11304C0C9018058910928960FB6F894DEBF0FBE73
S11304D0CDBFDF91CF9108958F929F92AF92BF923B
S11304E0CF92DF92EF92FF92CF93DF93EC0168817A
S11304F079818A819B81611571058105910521F4BA
S113050064E279ED8BE597E02DE133EF41E050E0D3
S11305100E942E0749015A019B01AC01A7EAB1E4EC
S11305200E944D076B017C01ACEEB4EFA501940170
S11305300E945B07DC01CB018C0D9D1DAE1DBF1D10
S1130540B7FF03C00197A109B04888839983AA83A0
S1130550BB839F77DF91CF91FF90EF90DF90CF9097
S1130560BF90AF909F908F9008950E946C02089561
S113057080E091E00E946C020895A0E0B0E08093D6
S1130580000190930101A0930201B0930301089527
S11305900F931F93CF93DF93009731F46115710587
S11305A019F480E090E03AC08B01EC016EE070E059
S11305B081E090E00E943A05FC01892B91F380E8E8
S11305C083830115110571F01387028781E8838302
S11305D08091240290912502892B21F4F093250225
S11305E0E09324022097C9F0D187C0878381826079
S11305F083838091260290912702892B71F4F093D2
S11306002702E09326028091280290912902892BE7
S113061021F4F0932902E0932802CF01DF91CF91D6
S11306201F910F910895A0E0B0E0E9E1F3E00C948C
S11306307007AE014B5F5F4FFA0161917191AF0199
S113064080912602909127020E945903E2E00C94C3
S11306508C070F931F93CF93DF93E0912602F091C1
S11306602702238121FF1BC08C01D0E0C0E0F801E8
S113067081918F016091260270912702DB01189607
S1130680ED91FC911997882331F00995892B79F321
S1130690DFEFCFEFECCF8AE00995892B19F08FEFCC
S11306A09FEF02C08D2F9C2FDF91CF911F910F914F
S11306B00895ABE0B0E0EFE5F3E00C9460076C0163
S11306C07B018A01FC0117821682838181FFCCC1E0
S11306D0CE0101963C01F6019381F70193FD8591CA
S11306E093FF81917F01882309F4BAC1853239F4DB
S11306F093FD859193FF81917F01853229F4B601A1
S113070090E00E949406E7CF912C212C312CFFE13C
S1130710F315D8F08B3279F038F4803279F08332E3
S1130720A1F4232D20611DC08D3261F0803369F462
S1130730232D216016C0832D8260382EE32DE460C2
S11307403E2E2AC0F32DF8601DC037FC2DC020EDCD
S1130750280F2A3040F08E32B9F436FC81C1232DA3
S11307602064322E19C036FE06C08AE0989E200D01
S11307701124922E11C0EAE02E9E200D1124222E67
S1130780F32DF0623F2E08C08C3621F4832D80684F
S1130790382E02C0883641F4F70193FD859193FF0A
S11307A081917F018111B3CF982F9F7D9554933010
S11307B028F40C5F1F4F9FE399830DC0833631F0FB
S11307C0833771F0833509F059C021C0F801808165
S11307D089830E5F1F4F88248394912C530113C087
S11307E02801F2E04F0E511CF801A080B18036FEC2
S11307F003C0692D70E002C06FEF7FEFC5010E9456
S113080089064C018201F32DFF773F2E16C0280183
S113081022E0420E511CF801A080B18036FE03C0D4
S1130820692D70E002C06FEF7FEFC5010E9477066B
S11308304C01F32DF0683F2E820133FC1BC0822D46
S113084090E088169906B0F4B60180E290E00E9428
S113085094062A94F4CFF50137FC859137FE8191F3
S11308605F01B60190E00E94940621102A9421E0D1
S1130870821A91088114910471F7E8C0843611F04A
S1130880893641F5F80137FE07C0608171818281A4
S113089093810C5F1F4F08C060817181072E000C8B
S11308A0880B990B0E5F1F4FF32DFF763F2E97FF9A
S11308B009C090958095709561957F4F8F4F9F4F9C
S11308C0F0683F2E2AE030E0A3010E94D006882E73
S11308D0861845C0853731F4232D2F7EB22E2AE0A9
S11308E030E025C0932D997FB92E8F36C1F018F4CE
S11308F0883579F0B5C0803719F0883721F0B0C059
S1130900E92FE061BE2EB4FE0DC0FB2DF460BF2EB6
S113091009C034FE0AC0292F2660B22E06C028E082
S113092030E005C020E130E002C020E132E0F8010F
S1130930B7FE07C060817181828193810C5F1F4F74
S113094006C06081718180E090E00E5F1F4FA301BB
S11309500E94D006882E8618FB2DFF773F2E36FE88
S11309600DC0232D2E7FA22E891458F434FE0BC003
S113097032FC09C0832D8E7EA82E05C0B82CA32C72
S113098003C0B82C01C0B92CA4FE0FC0FE01E80DB1
S1130990F11D8081803321F49A2D997EA92E09C0FE
S11309A0A2FE06C0B394B39404C08A2D867809F0DD
S11309B0B394A3FC11C0A0FE06C0B21488F4280CA2
S11309C0922C9B180EC0B21460F4B60180E290E041
S11309D00E949406B394F7CFB21418F42B1802C0F3
S11309E0982C212CA4FE10C0B60180E390E00E9454
S11309F09406A2FE17C0A1FC03C088E790E002C0E1
S1130A0088E590E0B6010CC08A2D867859F0A1FEE5
S1130A1002C08BE201C080E2A7FC8DE2B60190E047
S1130A200E949406891438F4B60180E390E00E9491
S1130A3094069A94F7CF8A94F301E80DF11D80810E
S1130A40B60190E00E9494068110F5CF222009F4AB
S1130A5042CEB60180E290E00E9494062A94F6CF3A
S1130A60F6018681978102C08FEF9FEF2B96E2E11A
S1130A700C947C070F931F93CF93DF93869F800181
S1130A80879F100D969F100D1124C8010E945605D2
S1130A90EC01009729F0A80160E070E00E94820652
S1130AA0CE01DF91CF911F910F9108950F931F9362
S1130AB0CF93DF938230910510F482E090E0E091CF
S1130AC02C02F0912D0220E030E0A0E0B0E030975D
S1130AD019F1408151810281138148175907C8F0E7
S1130AE08417950769F4109731F012960C931297B6
S1130AF013961C9327C000932C0210932D0222C03E
S1130B002115310519F04217530718F49A01BD0154
S1130B10EF01DF01F801DBCF21153105F9F0281BC6
S1130B20390B2430310580F48A819B81611571056C
S1130B3021F0FB019383828304C090932D02809360
S1130B402C02FE01329644C0FE01E20FF31F819392
S1130B50919322503109398328833AC020912A0283
S1130B6030912B02232B41F420910601309107018F
S1130B7030932B0220932A02209104013091050125
S1130B802115310541F42DB73EB74091080150912C
S1130B900901241B350BE0912A02F0912B02E21784
S1130BA0F307A0F42E1B3F0B2817390778F0AC018C
S1130BB04E5F5F4F2417350748F04E0F5F1F509369
S1130BC02B0240932A028193919302C0E0E0F0E06B
S1130BD0CF01DF91CF911F910F910895CF93DF93B0
S1130BE0009709F481C0FC01329713821282A0910C
S1130BF02C02B0912D02109781F420813181820F53
S1130C00931F20912A0230912B022817390751F59E
S1130C10F0932B02E0932A0267C0ED0120E030E05C
S1130C20CE17DF0740F44A815B819E0141155105CF
S1130C30F1F0EA01F5CFD383C28340815181840F5F
S1130C40951FC817D90759F488819981840F951F76
S1130C500296918380838A819B8193838283211569
S1130C60310529F4F0932D02E0932C023DC0E901F3
S1130C70FB83EA8349915991C40FD51FEC17FD07F3
S1130C8061F480819181840F951F0296E901998313
S1130C908883828193819B838A83E0E0F0E01296CB
S1130CA08D919C911397009719F0FD01DC01F7CF0A
S1130CB08D919C9111979D012E5F3F4F820F931F41
S1130CC020912A0230912B022817390769F43097B2
S1130CD029F410922D0210922C0202C01382128267
S1130CE0B0932B02A0932A02DF91CF910895FC01C7
S1130CF00590615070400110D8F7809590958E0F43
S1130D009F1F0895DC0101C06D9341505040E0F7EE
S1130D100895FC016150704001900110D8F780954E
S1130D2090958E0F9F1F08950F931F93CF93DF937A
S1130D30FB01238121FD03C08FEF9FEF2CC022FF15
S1130D4016C046815781248135814217530744F4E4
S1130D50A081B1819D012F5F3F4F318320838C930C
S1130D60268137812F5F3F4F3783268314C08B0141
S1130D70EC01FB010084F185E02D0995892BE1F656
S1130D80D80116968D919C911797019617969C936E
S1130D908E931697CE01DF91CF911F910F910895F5
S1130DA0FA01AA27283051F1203181F1E8946F9398
S1130DB06E7F6E5F7F4F8F4F9F4FAF4FB1E03ED03E
S1130DC0B4E03CD0670F781F891F9A1FA11D680FDC
S1130DD0791F8A1F911DA11D6A0F711D811D911D0F
S1130DE0A11D20D009F468943F912AE0269F112484
S1130DF03019305D3193DEF6CF010895462F4770E8
S1130E00405D4193B3E00FD0C9F7F6CF462F4F7042
S1130E10405D4A3318F0495D31FD4052419302D0A0
S1130E20A9F7EACFB4E0A695979587957795679546
S1130E30BA95C9F700976105710508959B01AC0146
S1130E400A2E06945795479537952795BA95C9F76D
S1130E50620F731F841F951FA01D0895052E97FB15
S1130E601EF400940E94450757FD07D00E9497077F
S1130E7007FC03D04EF40C944507509540953095EB
S1130E8021953F4F4F4F5F4F0895909580957095F2
S1130E9061957F4F8F4F9F4F08950E94B907A59F7B
S1130EA0900DB49F900DA49F800D911D1124089561
S1130EB0B7FF0C944D070E944D07821B930B0895B6
S1130EC02F923F924F925F926F927F928F929F9256
S1130ED0AF92BF92CF92DF92EF92FF920F931F9344
S1130EE0CF93DF93CDB7DEB7CA1BDB0B0FB6F894F5
S1130EF0DEBF0FBECDBF09942A88398848885F8435
S1130F006E847D848C849B84AA84B984C884DF80A5
S1130F10EE80FD800C811B81AA81B981CE0FD11D89
S1130F200FB6F894DEBF0FBECDBFED010895A1E268
S1130F301A2EAA1BBB1BFD010DC0AA1FBB1FEE1F4F
S1130F40FF1FA217B307E407F50720F0A21BB30B9A
S1130F50E40BF50B661F771F881F991F1A9469F716
S1130F6060957095809590959B01AC01BD01CF0172
S1130F700895A29FB001B39FC001A39F700D811D6E
S1130F801124911DB29F700D811D1124911D08958E
S1070F90F894FFCFFF
S1130F940100000000002E02200053746172746981
S1130FA46E67205352414D20746573742E2E2E00A7
S1130FB45772697465207068617365206572726F15
S1130FC4723A206578745F72616D5B2534645D20C8
S1130FD43D2025303258202873686F756C64206274
S1130FE4652025303258290A005265747269657681
S1130FF4616C207068617365206572726F723A2047
S11310046578745F72616D5B2534645D203D2025D1
S1131014303258202873686F756C6420626520250B
S1131024303258290A005352414D20746573742098
S1131034636F6D706C657465642077697468200AE5
S1131044253464206572726F727320696E2077721E
S113105469746520706861736520616E64200A2573
S11310643464206572726F727320696E20726574C1
S113107472696576616C2070686173650A0A00554B
S113108441525420696E697469616C697A6564219A
S113109400786D656D20696E697469616C697A653F
S11310A464212000583A2025346420593A202534F8
S10710B464200A00A6
S9030000FC
