:100000000C9438000C9455000C9455000C94550039
:100010000C9455000C9455000C9455000C9455000C
:100020000C9455000C9455000C9455000C945500FC
:100030000C9455000C9455000C9455000C945500EC
:100040000C9455000C9455000C9455000C945500DC
:100050000C9455000C9455000C9455000C945500CC
:100060000C9455000C9455000C9455000C945500BC
:1000700011241FBECFEFD4E0DEBFCDBF12E0A0E061
:10008000B1E0E8ECF6E102C005900D92A432B107B0
:10009000D9F722E0A4E2B2E001C01D92AE32B2076D
:1000A000E1F70E94D2000C94620B0C940000EF92D6
:1000B000FF920F931F93CF93DF938AE091E00E940A
:1000C000C3060E9452067C010E945706C0E0D0E0A1
:1000D00000E010E020C00E945206FE01F85E80831E
:1000E00020812817B9F099279F938F931F922F9300
:1000F000DF93CF9380E291E09F938F930E94AD06B0
:100100000F5F1F4F8DB79EB708960FB6F8949EBF2E
:100110000FBE8DBF2196C11598E0D907E0F2C70147
:100120000E945706C0E0D0E0E12CF12C20C00E94D4
:100130005206FE01F85E20812817C1F099279F938F
:100140008F931F922F93DF93CF9389E591E09F9335
:100150008F930E94AD068FEFE81AF80A8DB79EB70D
:1001600008960FB6F8949EBF0FBE8DBF2196C1159D
:1001700098E0D907E0F2FF92EF921F930F9386E980
:1001800091E09F938F930E94AD060F900F900F9078
:100190000F900F900F90DF91CF911F910F91FF90D3
:1001A000EF900895CF93DF93CDB7DEB766970FB684
:1001B000F894DEBF0FBECDBF8FE190E00E94FC013E
:1001C0000E941D028FEE91E00E94C3060E9424024D
:1001D00081E092E00E94C3060E94570080E090E018
:1001E000DC0103C00196A11DB11D803A26E89207EB
:1001F00021E0A207B105B0F30E948A02D62EC72ED5
:10020000B82EA92E9F938F937F936F9384E192E0F2
:100210009F938F930E94AD060E948B010E945E0106
:100220000F900F900F900F900F900F9080E090E044
:10023000DC01813A26E8920721E0A207B105D0F15E
:100240000E94450229873A874B875C876D877E87A6
:100250008F87988BED2CFC2C0B2D1A2D0E94B10250
:100260000E94450229833A834B835C836D837E839E
:100270008F8398870E9498036D2D7C2D8B2D9A2D4E
:100280000E94EB030E943E04298B3A8B4B8B5C8BC4
:100290006D8B7E8B86B31F928F938EE192E09F933E
:1002A0008F930E94AD060F900F900F900F9080E0FB
:1002B00090E0DC010196A11DB11DBBCF0F931F93F0
:1002C000CF93DF9300E010E01EC060E070E080EBB1
:1002D000800F0E943D0260E070E080E00E943D02DD
:1002E00060E070E080E10E943D02C0E0D0E006C026
:1002F00060E072E080E00E943D022196C038D105A6
:10030000BCF30F5F1F4F08301105FCF2DF91CF9156
:100310001F910F91089560E070E08EEA0E943D0207
:1003200060E070E081EA0E943D0260E070E08AEDEA
:100330000E943D0260E070E082E10E943D0260E0C8
:1003400070E088EC0E943D0260E070E088EA0E9464
:100350003D0260E070E08FE30E943D0260E070E0EB
:1003600085ED0E943D0260E070E080E80E943D0261
:1003700060E070E081E80E943D0260E070E080E5AE
:100380000E943D0260E070E089ED0E943D0260E065
:1003900070E081E20E943D0260E070E080E20E9435
:1003A0003D0260E070E082E00E943D0260E070E0AB
:1003B0008BED0E943D0260E070E080E30E943D0210
:1003C00060E070E08DEA0E943D0260E070E080E055
:1003D0000E943D0260E070E084EA0E943D0260E01D
:1003E00070E086EA0E943D0260E070E08FEA0E94C1
:1003F0003D020E945E01089590BD89B988E18AB9E5
:1004000086E880BD08955D9BFECF8CB90895CF939B
:10041000C82F8A3019F48DE00E9403028C2F0E94AD
:10042000030280E090E0CF9108955F9BFECF8CB1F6
:1004300008950E94150290E0089569E172E087E056
:1004400092E00E946206089585B7806885BF80B7F4
:10045000877E80BF80B7806280BF80E181BBEBE890
:10046000F0E0808181688083EAE8F0E08081896043
:10047000808387B3876087BB0895FB01F05F80832B
:100480000895905FFC0180810895CF93DF93CDB7ED
:10049000DEB760970FB6F894DEBF0FBECDBF60E049
:1004A00074E081E00E943D0280E094E00E944102FD
:1004B00090E09E878D8780E094E00E94410290E06A
:1004C0009C878B8780E094E00E94410290E09A87AD
:1004D000898780E094E00E94410290E0988B8F87AA
:1004E00088E0FE013996DE01119601900D928A9501
:1004F000E1F729813A814B815C816D817E818F8119
:10050000988560960FB6F894DEBF0FBECDBFDF9121
:10051000CF910895CF93DF93CDB7DEB728970FB66D
:10052000F894DEBF0FBECDBF0E94450229833A83F7
:100530004B835C836D837E838F83988729813A8187
:10054000B901605871092B813C81C901805891091A
:1005500028960FB6F894DEBF0FBECDBFDF91CF91C6
:1005600008954F925F926F927F928F929F92AF9277
:10057000BF92CF92DF92EF92FF920F931F93CF9390
:10058000DF93CDB7DEB728970FB6F894DEBF0FBE66
:10059000CDBF29833A834B835C836D837E838F83B6
:1005A00098876701780129813A81C60180589F4F59
:1005B0008217930744F569817A816C197D09605827
:1005C0007109072E000C880B990B0E940D054B0139
:1005D0005C0160E870E06C197D09072E000C880B47
:1005E000990B0E940D059B01AC01C501B4010E944D
:1005F000630420E030E048EC52E40E9499050E9438
:10060000D5044B0126C069817A816C197D09605837
:100610007109072E000C880B990B0E940D054B01E8
:100620005C01B60160587F4F072E000C880B990BB8
:100630000E940D059B01AC01C501B4010E94630439
:1006400020E030E048EC52E40E9499050E94D50475
:100650004B012B813C81C70180589F4F8217930724
:1006600044F56B817C816E197F0960587109072EF2
:10067000000C880B990B0E940D052B013C0160E8D2
:1006800070E06E197F09072E000C880B990B0E94F1
:100690000D059B01AC01C301B2010E94630420E07F
:1006A00030E048EC52E40E9499050E94D5045B01B9
:1006B00026C06B817C816E197F0960587109072EF5
:1006C000000C880B990B0E940D052B013C01B70112
:1006D00060587F4F072E000C880B990B0E940D0568
:1006E0009B01AC01C301B2010E94630420E030E031
:1006F00048EC52E40E9499050E94D5045B01C501B3
:10070000B40128960FB6F894DEBF0FBECDBFDF91BF
:10071000CF911F910F91FF90EF90DF90CF90BF90FE
:10072000AF909F908F907F906F905F904F900895C3
:10073000CF92DF92EF92FF92CF93DF93CDB7DEB7E8
:1007400028970FB6F894DEBF0FBECDBF29833A833A
:100750004B835C836D837E838F8398876F817885DD
:10076000072E000C880B990B0E940D0520E030E04D
:100770004FE753E40E94630420E030E048EC52E489
:100780000E9499050E94D5047B016D817E81072E10
:10079000000C880B990B0E940D0520E030E04FE71C
:1007A00053E40E94630420E030E048EC52E40E94ED
:1007B00099050E94D5046B01C701B60128960FB6B2
:1007C000F894DEBF0FBECDBFDF91CF91FF90EF90C9
:1007D000DF90CF900895CF92DF92EF92FF920F9328
:1007E0001F93CF93DF93CDB7DEB728970FB6F8945A
:1007F000DEBF0FBECDBF6B017C010E9445028701A9
:1008000076010E94B102613B2FEF720754F0603510
:1008100071053CF4813B2FEF92071CF08035910568
:10082000CCF09B01772324F422273327261B370B98
:10083000AC01992324F444275527481B590B421730
:10084000530724F4772344F480E009C0992334F457
:1008500083E005C084E003C081E001C082E0289607
:100860000FB6F894DEBF0FBECDBFDF91CF911F91C1
:100870000F91FF90EF90DF90CF900895CF93DF938B
:1008800000D000D000D0CDB7DEB766B366B362FB50
:10089000442740F950E05A83498346B341FB22275D
:1008A00020F930E03C832B8326B3822F817090E0C7
:1008B0009E838D8326960FB6F894DEBF0FBECDBF04
:1008C000DF91CF9108950E9477040C945F050E94F8
:1008D000580558F00E94510540F029F45F3F29F077
:1008E0000C94480551110C9493050C944E050E94EC
:1008F000700568F39923B1F3552391F3951B550BBC
:10090000BB27AA2762177307840738F09F5F5F4FE2
:10091000220F331F441FAA1FA9F335D00E2E3AF021
:10092000E0E832D091505040E695001CCAF72BD039
:10093000FE2F29D0660F771F881FBB1F261737078A
:100940004807AB07B0E809F0BB0B802DBF01FF27BC
:1009500093585F4F3AF09E3F510578F00C9448054C
:100960000C9493055F3FE4F3983ED4F38695779516
:100970006795B795F7959F5FC9F7880F911D969575
:10098000879597F90895E1E0660F771F881FBB1FD1
:10099000621773078407BA0720F0621B730B840B7E
:1009A000BA0BEE1F88F7E09508950E94DC04689466
:1009B000B1110C94930508950E94780588F09F5713
:1009C00098F0B92F9927B751B0F0E1F0660F771F73
:1009D000881F991F1AF0BA95C9F714C0B13091F069
:1009E0000E949205B1E008950C949205672F782F2C
:1009F0008827B85F39F0B93FCCF38695779567952E
:100A0000B395D9F73EF490958095709561957F4F99
:100A10008F4F9F4F0895E89409C097FB3EF490953F
:100A20008095709561957F4F8F4F9F4F9923A9F0C7
:100A3000F92F96E9BB279395F69587957795679556
:100A4000B795F111F8CFFAF4BB0F11F460FF1BC09A
:100A50006F5F7F4F8F4F9F4F16C0882311F096E92D
:100A600011C0772321F09EE8872F762F05C06623DB
:100A700071F096E8862F70E060E02AF09A95660F94
:100A8000771F881FDAF7880F9695879597F908954D
:100A900097F99F6780E870E060E008959FEF80EC31
:100AA000089500240A9416161706180609060895D4
:100AB00000240A9412161306140605060895092E3A
:100AC0000394000C11F4882352F0BB0F40F4BF2BA9
:100AD00011F460FF04C06F5F7F4F8F4F9F4F0895E9
:100AE00057FD9058440F551F59F05F3F71F04795DF
:100AF000880F97FB991F61F09F3F79F087950895C4
:100B0000121613061406551FF2CF4695F1DF08C0E2
:100B1000161617061806991FF1CF869571056105FF
:100B200008940895E894BB2766277727CB0197F9A7
:100B300008950E94AC050C945F050E94510538F0A1
:100B40000E94580520F0952311F00C9448050C9450
:100B50004E0511240C9493050E94700570F3959F27
:100B6000C1F3950F50E0551F629FF001729FBB27A4
:100B7000F00DB11D639FAA27F00DB11DAA1F649F40
:100B80006627B00DA11D661F829F2227B00DA11DF3
:100B9000621F739FB00DA11D621F839FA00D611D79
:100BA000221F749F3327A00D611D231F849F600D9A
:100BB000211D822F762F6A2F11249F5750409AF0C3
:100BC000F1F088234AF0EE0FFF1FBB1F661F771F4F
:100BD000881F91505040A9F79E3F510580F00C941A
:100BE00048050C9493055F3FE4F3983ED4F3869553
:100BF00077956795B795F795E7959F5FC1F7FE2BBA
:100C0000880F911D9695879597F908958F929F92D9
:100C1000AF92BF92CF92DF92EF92FF92CF93DF938A
:100C2000EC01688179818A819B816115710581055B
:100C3000910521F464E279ED8BE597E02DE133EF46
:100C400041E050E00E94C80A49015A019B01AC01F1
:100C5000A7EAB1E40E94E70A6B017C01ACEEB4EFB5
:100C6000A50194010E94F50ADC01CB018C0D9D1DAC
:100C7000AE1DBF1DB7FF03C00197A109B04888830F
:100C80009983AA83BB839F77DF91CF91FF90EF90E9
:100C9000DF90CF90BF90AF909F908F9008950E946B
:100CA0000606089580E091E00E9406060895A0E0FF
:100CB000B0E08093000190930101A0930201B093F2
:100CC000030108950F931F93CF93DF93009731F49F
:100CD0006115710519F480E090E03AC08B01EC01D8
:100CE0006EE070E081E090E00E94D408FC01892B66
:100CF00091F380E883830115110571F01387028752
:100D000081E883838091240290912502892B21F42C
:100D1000F0932502E09324022097C9F0D187C08781
:100D20008381826083838091260290912702892BA0
:100D300071F4F0932702E0932602809128029091AB
:100D40002902892B21F4F0932902E0932802CF0194
:100D5000DF91CF911F910F910895A0E0B0E0E3EBF8
:100D6000F6E00C940A0BAE014B5F5F4FFA01619104
:100D70007191AF0180912602909127020E94F306A3
:100D8000E2E00C94260B0F931F93CF93DF93E09137
:100D90002602F0912702238121FF1BC08C01D0E0A5
:100DA000C0E0F80181918F016091260270912702C5
:100DB000DB011896ED91FC911997882331F0099584
:100DC000892B79F3DFEFCFEFECCF8AE00995892B00
:100DD00019F08FEF9FEF02C08D2F9C2FDF91CF91E5
:100DE0001F910F910895ABE0B0E0E9EFF6E00C94AD
:100DF000FA0A6C017B018A01FC0117821682838149
:100E000081FFCCC1CE0101963C01F6019381F7012F
:100E100093FD859193FF81917F01882309F4BAC1E5
:100E2000853239F493FD859193FF81917F0185325D
:100E300029F4B60190E00E942E0AE7CF912C212CD4
:100E4000312CFFE1F315D8F08B3279F038F4803291
:100E500079F08332A1F4232D20611DC08D3261F021
:100E6000803369F4232D216016C0832D8260382ED3
:100E7000E32DE4603E2E2AC0F32DF8601DC037FC40
:100E80002DC020ED280F2A3040F08E32B9F436FC08
:100E900081C1232D2064322E19C036FE06C08AE09F
:100EA000989E200D1124922E11C0EAE02E9E200D56
:100EB0001124222EF32DF0623F2E08C08C3621F42F
:100EC000832D8068382E02C0883641F4F70193FDE7
:100ED000859193FF81917F018111B3CF982F9F7DE1
:100EE0009554933028F40C5F1F4F9FE399830DC0F6
:100EF000833631F0833771F0833509F059C021C052
:100F0000F801808189830E5F1F4F88248394912C80
:100F1000530113C02801F2E04F0E511CF801A080CC
:100F2000B18036FE03C0692D70E002C06FEF7FEF25
:100F3000C5010E94230A4C018201F32DFF773F2E49
:100F400016C0280122E0420E511CF801A080B18099
:100F500036FE03C0692D70E002C06FEF7FEFC50160
:100F60000E94110A4C01F32DF0683F2E820133FCE0
:100F70001BC0822D90E088169906B0F4B60180E27D
:100F800090E00E942E0A2A94F4CFF50137FC859157
:100F900037FE81915F01B60190E00E942E0A211078
:100FA0002A9421E0821A91088114910471F7E8C013
:100FB000843611F0893641F5F80137FE07C06081AB
:100FC0007181828193810C5F1F4F08C060817181A4
:100FD000072E000C880B990B0E5F1F4FF32DFF7629
:100FE0003F2E97FF09C090958095709561957F4F32
:100FF0008F4F9F4FF0683F2E2AE030E0A3010E9400
:101000006A0A882E861845C0853731F4232D2F7E35
:10101000B22E2AE030E025C0932D997FB92E8F366D
:10102000C1F018F4883579F0B5C0803719F08837E9
:1010300021F0B0C0E92FE061BE2EB4FE0DC0FB2D43
:10104000F460BF2E09C034FE0AC0292F2660B22EDC
:1010500006C028E030E005C020E130E002C020E119
:1010600032E0F801B7FE07C060817181828193810F
:101070000C5F1F4F06C06081718180E090E00E5FC1
:101080001F4FA3010E946A0A882E8618FB2DFF7746
:101090003F2E36FE0DC0232D2E7FA22E891458F42C
:1010A00034FE0BC032FC09C0832D8E7EA82E05C0F5
:1010B000B82CA32C03C0B82C01C0B92CA4FE0FC0BF
:1010C000FE01E80DF11D8081803321F49A2D997E77
:1010D000A92E09C0A2FE06C0B394B39404C08A2D01
:1010E000867809F0B394A3FC11C0A0FE06C0B21428
:1010F00088F4280C922C9B180EC0B21460F4B60130
:1011000080E290E00E942E0AB394F7CFB21418F454
:101110002B1802C0982C212CA4FE10C0B60180E32D
:1011200090E00E942E0AA2FE17C0A1FC03C088E72F
:1011300090E002C088E590E0B6010CC08A2D867868
:1011400059F0A1FE02C08BE201C080E2A7FC8DE253
:10115000B60190E00E942E0A891438F4B60180E3AB
:1011600090E00E942E0A9A94F7CF8A94F301E80D3A
:10117000F11D8081B60190E00E942E0A8110F5CF0A
:10118000222009F442CEB60180E290E00E942E0AAD
:101190002A94F6CFF6018681978102C08FEF9FEFE8
:1011A0002B96E2E10C94160B0F931F93CF93DF93D2
:1011B000869F8001879F100D969F100D1124C801F6
:1011C0000E94F008EC01009729F0A80160E070E0AF
:1011D0000E941C0ACE01DF91CF911F910F910895BB
:1011E0000F931F93CF93DF938230910510F482E029
:1011F00090E0E0912C02F0912D0220E030E0A0E0A0
:10120000B0E0309719F14081518102811381481774
:101210005907C8F08417950769F4109731F01296B2
:101220000C93129713961C9327C000932C021093D3
:101230002D0222C02115310519F04217530718F469
:101240009A01BD01EF01DF01F801DBCF2115310566
:10125000F9F0281B390B2430310580F48A819B81F9
:101260006115710521F0FB019383828304C0909383
:101270002D0280932C02FE01329644C0FE01E20F43
:10128000F31F8193919322503109398328833AC007
:1012900020912A0230912B02232B41F42091060148
:1012A0003091070130932B0220932A0220910401F0
:1012B000309105012115310541F42DB73EB740911C
:1012C000080150910901241B350BE0912A02F0918D
:1012D0002B02E217F307A0F42E1B3F0B2817390748
:1012E00078F0AC014E5F5F4F2417350748F04E0F82
:1012F0005F1F50932B0240932A028193919302C067
:10130000E0E0F0E0CF01DF91CF911F910F910895C0
:10131000CF93DF93009709F481C0FC0132971382C9
:101320001282A0912C02B0912D02109781F420819D
:101330003181820F931F20912A0230912B022817AE
:10134000390751F5F0932B02E0932A0267C0ED01B3
:1013500020E030E0CE17DF0740F44A815B819E0138
:1013600041155105F1F0EA01F5CFD383C2834081E5
:101370005181840F951FC817D90759F48881998125
:10138000840F951F0296918380838A819B8193832A
:1013900082832115310529F4F0932D02E0932C026C
:1013A0003DC0E901FB83EA8349915991C40FD51FE0
:1013B000EC17FD0761F480819181840F951F0296DF
:1013C000E90199838883828193819B838A83E0E00A
:1013D000F0E012968D919C911397009719F0FD0102
:1013E000DC01F7CF8D919C9111979D012E5F3F4FAE
:1013F000820F931F20912A0230912B022817390760
:1014000069F4309729F410922D0210922C0202C038
:1014100013821282B0932B02A0932A02DF91CF9104
:101420000895FC010590615070400110D8F7809537
:1014300090958E0F9F1F0895DC0101C06D93415060
:101440005040E0F70895FC01615070400190011098
:10145000D8F7809590958E0F9F1F08950F931F9337
:10146000CF93DF93FB01238121FD03C08FEF9FEF1B
:101470002CC022FF16C04681578124813581421736
:10148000530744F4A081B1819D012F5F3F4F318309
:1014900020838C93268137812F5F3F4F37832683AC
:1014A00014C08B01EC01FB010084F185E02D09954E
:1014B000892BE1F6D80116968D919C91179701968C
:1014C00017969C938E931697CE01DF91CF911F9123
:1014D0000F910895FA01AA27283051F1203181F1A6
:1014E000E8946F936E7F6E5F7F4F8F4F9F4FAF4F2C
:1014F000B1E03ED0B4E03CD0670F781F891F9A1F3F
:10150000A11D680F791F8A1F911DA11D6A0F711DF2
:10151000811D911DA11D20D009F468943F912AE0FE
:10152000269F11243019305D3193DEF6CF010895E6
:10153000462F4770405D4193B3E00FD0C9F7F6CF17
:10154000462F4F70405D4A3318F0495D31FD4052DF
:10155000419302D0A9F7EACFB4E0A6959795879575
:1015600077956795BA95C9F7009761057105089554
:101570009B01AC010A2E0694579547953795279500
:10158000BA95C9F7620F731F841F951FA01D089598
:10159000052E97FB1EF400940E94DF0A57FD07D02A
:1015A0000E94310B07FC03D04EF40C94DF0A5095D7
:1015B0004095309521953F4F4F4F5F4F089590953F
:1015C0008095709561957F4F8F4F9F4F08950E9432
:1015D000530BA59F900DB49F900DA49F800D911D5E
:1015E00011240895B7FF0C94E70A0E94E70A821BB2
:1015F000930B08952F923F924F925F926F927F923A
:101600008F929F92AF92BF92CF92DF92EF92FF9212
:101610000F931F93CF93DF93CDB7DEB7CA1BDB0BBE
:101620000FB6F894DEBF0FBECDBF09942A88398863
:1016300048885F846E847D848C849B84AA84B9846A
:10164000C884DF80EE80FD800C811B81AA81B98176
:10165000CE0FD11D0FB6F894DEBF0FBECDBFED018A
:101660000895A1E21A2EAA1BBB1BFD010DC0AA1FE3
:10167000BB1FEE1FFF1FA217B307E407F50720F0FB
:10168000A21BB30BE40BF50B661F771F881F991F76
:101690001A9469F760957095809590959B01AC01BF
:1016A000BD01CF010895A29FB001B39FC001A39FC8
:1016B000700D811D1124911DB29F700D811D11248B
:0816C000911D0895F894FFCF7D
:1016C8000100000000002E0220005374617274694A
:1016D8006E67205352414D20746573742E2E2E0070
:1016E8005772697465207068617365206572726FDE
:1016F800723A206578745F72616D5B2534645D2091
:101708003D2025303258202873686F756C6420623C
:10171800652025303258290A005265747269657649
:10172800616C207068617365206572726F723A200F
:101738006578745F72616D5B2534645D203D20259A
:10174800303258202873686F756C642062652025D4
:10175800303258290A005352414D20746573742061
:10176800636F6D706C657465642077697468200AAE
:10177800253464206572726F727320696E207772E7
:1017880069746520706861736520616E64200A253C
:101798003464206572726F727320696E207265748A
:1017A80072696576616C2070686173650A0A005514
:1017B80041525420696E697469616C697A65642163
:1017C80000786D656D20696E697469616C697A6508
:1017D80064212000583A2025346420593A202534C1
:0417E80064200A006F
:00000001FF
