S00E000053616D53616D2E73726563D4
S214080000D0100020D5020800D1020800D10208004E
S214080010D1020800D1020800D10208000000000042
S214080020000000000000000000000000D1020800E8
S214080030D102080000000000D1020800D102080022
S214080040D1020800D1020800D1020800D102080037
S214080050D1020800D1020800D1020800D102080027
S214080060D10A0800D102080000000000D1020800EA
S214080070D1020800D1020800D102080000000000E2
S21408008000000000D1020800D1020800D1020800D2
S214080090D1020800D1020800D1020800D1020800E7
S2140800A0D102080000000000D1020800D1020800B2
S2140800B0D1020800D1020800D1020800D1020800C7
S2140800C0D1020800D1020800D1020800D1020800B7
S2140800D0D1020800D1020800D1020800D1020800A7
S2140800E0D1020800D1020800D1020800D102080097
S2140800F0D102080010B5054C237833B9044B13B168
S2140801000448AFF300800123237010BD4408002084
S21408011000000000E03508000C4B43B10C4810B551
S2140801200C49AFF300800C48036823B910BD0A4891
S214080130036833B97047094B002BF7D0BDE8104069
S2140801401847064B002BF5D0184700BF00000000E4
S214080150E035080048080020E035080000000000E8
S21408016010B4224B1A6822F001021A601A69204A53
S2140801704FF440745464146F24F003041467032483
S21408018054605466A2F500621A4CC2F80C41D2F8C4
S214080190004144F40064C2F8004158614FF0005230
S2140801A0C3F808224FF04070C3F800020020C3F8D6
S2140801B02402C3F828224FF08072C3F82022D3F80E
S2140801C03C2242F40002C3F83C2241B11A465B685E
S2140801D043F0020353604FF40062074B5A60034A29
S2140801E0136843F00103136010BC704700400B40CF
S2140801F0000E0E402B10001000E100E008B50020AD
S214080200052363F303006FF30710062363F30B203D
S2140802106FF30F30292363F31740002120F07F4047
S214080220034B98474FF40042024B5A6008BD00BF84
S21408023061010800501A0E4084B004AB03E90700B9
S2140802400E4BD3F8103213F4000FF9D09DF8043093
S2140802509B040A4AC2F808329DF80530082B28BFC6
S21408026008230299C2F814120399C2F818121B043C
S21408027043F40003C2F81C3204B0704700400B4039
S214080280124BD3F8303213F4000F1CD00F4BD3F8B0
S2140802902822C2F387420270D3F83022C2F3034200
S2140802A04270D3F834224260D3F8382282604FF086
S2140802B08072C3F82022D3F83C2242F40002C3F826
S2140802C03C22012070470020704700BF00400B40CA
S2140802D0FEE7000008B5114B114A9A4209D00F4BA9
S2140802E00F4A03E011681960043304320D498B4243
S2140802F0F8D30D4B02E000221A6004330B4A9342EF
S214080300F9D30B4B23F0604323F07F03094A93602D
S214080310094B9847094B9847FEE700BF00000020A6
S214080320E03508004408002044080020D00C0020CF
S2140803300000080000ED00E0391B0800550608001C
S2140803404FF48063204A136002F5007213601F4B57
S2140803501B6A13F0807F07D11D4A1C4B1A621B4B81
S2140803609B6E13F0010FFAD01A4A184B1A62174BF5
S2140803709B6E13F4803FFAD0144A136B23F00303E2
S21408038043F001031363114B9B6E13F0080FFAD06A
S214080390114A0E4B9A620D4B9B6E13F0020FFAD061
S2140803A011220A4B1A63094B9B6E13F0080FFAD0FA
S2140803B01222064B1A63054B9B6E13F0080FFAD0F1
S2140803C0064A074B1A607047000A0E4000060E40A1
S2140803D00908370009083701013F0D2000BD01054F
S2140803E00000002000B585B00DF1100E0EE90700DC
S2140803F09DF908201A709DF909205A7005B05DF815
S21408040004FB000008B5044B9847312801D90020A2
S21408041008BD012008BD00BFFD0708000A4AD2F83B
S214080420003143F00103C2F80031084BD3F88020AE
S21408043042F00502C3F88020D3F8842042F0030275
S214080440C3F88420704700BF00060E4000400840EE
S214080450014BD3F8900070470040084000000000A9
S214080460F8B51446C1F1640141F2CF5303FB01F11C
S214080470254B83FB0123C917C1EBA311081A234B8D
S21408048098470546224B984723681844206041F24F
S2140804908833984225DD236028461E4B98471E4D14
S2140804A015A3D3E90023A84706460F4620681B4B2A
S2140804B0984713A3D3E90023A84702460B463046BD
S2140804C03946174CA047174B984704461649174B0A
S2140804D0984758B916492046164B984738B1144CD1
S2140804E005E0154B9842D7DA2360D5E70E4C04F1A1
S2140804F00040124B9847F8BD7B14AE47E17AA43FFC
S21408050015F2C8996DF1F43D1F85EB51B916080030
S214080510ED1A0800790E0800210F0800550E08008D
S214080520BD0B0800A51408000000C842D91A080028
S2140805300000C8C29D1A080078ECFFFFB108080042
S214080540F0B589B00746344B9847044600268DF820
S21408055010608DF811600396304A136843F48023C0
S214080560136025E004AB08AA12E907002C4DA8473B
S2140805709DF81A509DF911002A4B984728462A4B91
S21408058098471AE0294B984703AA9DF91010284B5C
S2140805909847284AD2F8803043F00403C2F88030DF
S2140805A016E02046244B984700B90646002F19DD6A
S2140805B005A8224B98470028D4D1214B9847214BB1
S2140805C0984713A3D3E900231F4DA8470028D9D17D
S2140805D02046194B98470028E3D0002EE1D1013F6A
S2140805E00126DEE70020194B98470C4B9968002235
S2140805F000920192029201228DF800208DF80120C7
S2140806008DF804109DE80700114B984709B0F0BD17
S21408061020FD24A09D5C503EFD070800301A0E40C1
S214080620E503080035070800D90908009D090800F1
S214080630610408000040084005040800810208001C
S21408064051040800350E08002D140800B1080800EB
S2140806503902080000B585B0104B98474FF416517C
S2140806600F48104B98471048104B9847104B984720
S214080670104B9847104B9847104B9847104B984785
S214080680104B9847104B984701A8104B98470028DE
S214080690FAD002200E4B9847F6E700BF4103080041
S2140806A000BD01054D0A080088350800C11C080071
S2140806B0FD010800D5060800BD070800090808005F
S2140806C041090800A90908001D040800810208005D
S2140806D041050800124AD2F8003143F01003C2F868
S2140806E00031104B5A6842F400525A601A6F42F4AE
S2140806F000521A670C4A136843F4017343F0030365
S214080700136043F24532094B1A604FF47672083B81
S2140807101A60074A136843F002031360704700BF65
S21408072000060E4000100E40204209402C420940A8
S2140807300440094010B5831C042B00D80020C0F1E3
S2140807406400124B98471249124B984704460021FA
S214080750114B9847B8B94FF07E5120460F4B984733
S21408076008B14FF07E5420460D4B984700220D4B9B
S2140807700D4CA04700220D4B0D4CA0470D4B98473B
S2140807800D4B186010BD0024E5E700BFB916080039
S21408079000004843C91808009D1A0800D91A08001E
S2140807A0790E08000000F03FBD0B0800008084406A
S2140807B0210F080055140800284209400C4AD2F8B0
S2140807C0003143F02003C2F80031A2F50132A2F549
S2140807D0FE72136843F4B06313604FF40062054B6F
S2140807E01A60054A136843F002031360704700BF97
S2140807F000060E4010000C4000000C40014BD86F5D
S21408080080B2704700000C401B4AD2F8003143F013
S2140808101003C2F80031194B5A6842F480525A60E5
S2140808201A6F42F480521A67154A136843F4017324
S21408083043F00303136043F24532124B1A6000225A
S214080840083B1A60104A136843F00103136002F568
S214080850982202F20C62136843F40053136002F500
S2140808603F62136843F4000313601032136843F4BE
S21408087000031360704700BF00060E4000100E40CD
S214080880004209400C4209400440094028B9064A7B
S214080890136843F4000313607047044A136843F46C
S2140808A000031360704700BF34120E4030120E402B
S2140808B038B504464FF001050021164B984708B98D
S2140808C04FF0000505F00100134B9847002120461D
S2140808D0124B9847C0B912492046124B984704460F
S2140808E000210E4B984790B94FF07E5120460E4B8C
S2140808F0984700B10D4C0E4920460E4B98470E4BB4
S21408090098470E4B186038BD04F10044E3E700240E
S214080910EAE700BFD91A08008D0808009D1A0800E3
S2140809200000C842C9180800C51A0800A4707D3F10
S21408093000144D4661170800ED1A080008420940E1
S214080940134AD2F8003143F00203C2F80031114BC3
S2140809505A6842F000725A601A6F42F000721A67BC
S2140809605A6842F080625A601A6F42F080621A67CC
S214080970094BD3F8C42042F49852C3F8C4201A6826
S21408098042F005021A605A6842F005025A6070473B
S21408099000060E4000120E4000800840014B186901
S2140809A0704700BF00800840094A136943F40053A3
S2140809B01361084B1A6842F080521A601A6942F0AE
S2140809C080521A611A6B42F080521A63704700BF51
S2140809D000060E4000120E4028B9064A136B43F074
S2140809E0805313637047034A536B43F08053536333
S2140809F0704700BF00120E40D0F80C24B2F5806F86
S214080A000CD2D0F80434C1540133C3F30903C0F838
S214080A1004340132C0F80C240120704700207047C7
S214080A200346D0F80C0480B1D3F808249A5C0A7000
S214080A30D3F808240132C2F30902C3F80824D3F80D
S214080A400C24013AC3F80C2401207047124A136993
S214080A5043F480731361114B5A6842F440725A602B
S214080A601A6F22F440721A67A3F5C0631A6842F038
S214080A7050021A605A6842F400625A600009B0FBD5
S214080A80F1F119624FF0FF32DA60E1229A604FF412
S214080A908072034B1A60704700060E40000E0E4028
S214080AA000E100E0034B5B6913F4007FFAD0014BCA
S214080AB0D861704700080E4008B501460248034B47
S214080AC09847C0B208BD00BF60080020210A080089
S214080AD008B50C4B5B6913F0E00F03D04FF4A87110
S214080AE0084A116013F0010F00D108BD054B99693B
S214080AF0C9B20548054B98470028F6D10448054B67
S214080B009847F2E700080E4060080020F909080038
S214080B1098350800C11C08000346084AD2F8102475
S214080B2032B1064AD2F810040344C2F810347047AB
S214080B300349024AC2F81014F3E700BF6008002011
S214080B40D01200204FF0FF3070474FF400534B6030
S214080B5000207047012070470020704770B50128B4
S214080B600BDC0E461546002403E0305D044B984720
S214080B700134AC42F9DB284670BD4FF0FF35FAE782
S214080B80A50A0800F8B501280CDC16460F4600240E
S214080B902546B44208DA3819044B9847054418B174
S214080BA00134F6E74FF0FF352846F8BDB90A0800C5
S214080BB081F0004102E000BF83F0004330B54FEA01
S214080BC041044FEA430594EA050F08BF90EA020F6E
S214080BD01FBF54EA000C55EA020C7FEA645C7FEA01
S214080BE0655C00F0E2804FEA5454D4EB5555B8BF24
S214080BF06D420CDD2C4480EA020281EA030382EA95
S214080C00000083EA010180EA020281EA0303362D26
S214080C1088BF30BD11F0004F4FEA01314FF4801CF9
S214080C204CEA113102D0404261EB410113F0004F0B
S214080C304FEA03334CEA133302D0524263EB4303C2
S214080C4094EA050F00F0A780A4F10104D5F1200E60
S214080C500DDB02FA0EFC22FA05F2801841F10001BB
S214080C6003FA0EF2801843FA05F359410EE0A5F18F
S214080C7020050EF1200E012A03FA0EFC28BF4CF0C0
S214080C80020C43FA05F3C01851EBE37101F0004576
S214080C9007D54FF0000EDCF1000C7EEB00006EEB83
S214080CA00101B1F5801F1BD3B1F5001F0CD349080D
S214080CB05FEA30004FEA3C0C04F101044FEA445264
S214080CC012F5800F80F09A80BCF1004F08BF5FEAEB
S214080CD0500C50F1000041EB045141EA050130BDCB
S214080CE05FEA4C0C404141EB010111F4801FA4F16E
S214080CF00104E9D191F0000F04BF01460020B1FAC3
S214080D0081F308BF2033A3F10B03B3F120020CDAFA
S214080D100C3208DD02F1140CC2F10C0201FA0CF0D8
S214080D2021FA02F10CE002F11402D8BFC2F1200C3D
S214080D3001FA02F120FA0CFCDCBF41EA0C019040F3
S214080D40E41AA2BF01EB0451294330BD6FEA04043C
S214080D501F3C1CDA0C340EDC04F11404C4F1200227
S214080D6020FA04F001FA02F340EA030021FA04F339
S214080D7045EA030130BDC4F10C04C4F1200220FA90
S214080D8002F001FA04F340EA0300294630BD21FACE
S214080D9004F0294630BD94F0000F83F4801306BF94
S214080DA081F480110134013D4EE77FEA645C18BF88
S214080DB07FEA655C29D094EA050F08BF90EA020F1F
S214080DC005D054EA000C04BF1946104630BD91EA17
S214080DD0030F1EBF0021002030BD5FEA545C05D11A
S214080DE04000494128BF41F0004130BD14F5800459
S214080DF03CBF01F5801130BD01F0004545F0FE41CD
S214080E0041F470014FF0000030BD7FEA645C1ABF01
S214080E10194610467FEA655C1CBF0B46024650EA38
S214080E20013406BF52EA033591EA030F41F4002164
S214080E3030BD00BF90F0000F04BF0021704730B5EA
S214080E404FF4806404F132044FF000054FF00001BF
S214080E5050E700BF90F0000F04BF0021704730B580
S214080E604FF4806404F1320410F0004548BF404255
S214080E704FF000013EE700BF42004FEAE2014FEAAA
S214080E8031014FEA02701FBF12F07F4393F07F4F85
S214080E9081F06051704792F0000F14BF93F07F4FB7
S214080EA0704730B54FF4607401F0004521F00041FA
S214080EB020E700BF50EA010208BF704730B54FF080
S214080EC000050AE050EA010208BF704730B511F085
S214080ED0004502D5404261EB41014FF4806404F1BD
S214080EE032045FEA915C3FF4DCAE4FF003025FEA3F
S214080EF0DC0C18BF03325FEADC0C18BF033202EBC7
S214080F00DC02C2F1200300FA03FC20FA02F001FA20
S214080F1003FE40EA0E0021FA02F11444C1E600BFBF
S214080F2070B54FF0FF0C4CF4E06C1CEA11541DBF72
S214080F301CEA135594EA0C0F95EA0C0F00F0DEF83D
S214080F402C4481EA030621EA4C5123EA4C5350EA22
S214080F50013518BF52EA033541F4801143F4801373
S214080F6038D0A0FB02CE4FF00005E1FB02E506F004
S214080F700042E0FB03E54FF00006E1FB03569CF059
S214080F80000F18BF4EF0010EA4F1FF04B6F5007F5F
S214080F9064F5407404D25FEA4E0E6D4146EB0606D1
S214080FA042EAC62141EA55514FEAC52040EA5E505A
S214080FB04FEACE2EB4F1FD0C88BFBCF5E06F1ED804
S214080FC0BEF1004F08BF5FEA500E50F1000041EB3B
S214080FD0045170BD06F0004646EA010140EA0200E8
S214080FE081EA0301B4EB5C04C2BFD4EB0C0541EA0A
S214080FF0045170BD41F480114FF0000E013C00F31F
S214081000AB8014F1360FDEBF002001F0004170BD42
S214081010C4F10004203C35DA0C341BDC04F114045B
S214081020C4F1200500FA05F320FA04F001FA05F2E7
S21408103040EA020001F0004221F0004110EBD370B4
S21408104021FA04F642EB06015EEA430E08BF20EAE0
S214081050D37070BDC4F10C04C4F1200500FA04F383
S21408106020FA05F001FA04F240EA020001F0004115
S21408107010EBD37041F100015EEA430E08BF20EA88
S214081080D37070BDC4F1200500FA05F24EEA020ED0
S21408109020FA04F301FA05F243EA020321FA04F0FF
S2140810A001F0004121FA04F220EA020000EBD370B6
S2140810B05EEA430E08BF20EAD37070BD94F0000FB6
S2140810C00FD101F00046400041EB010111F4801FEA
S2140810D008BF013CF7D041EA060195F0000F18BF9B
S2140810E0704703F00046520043EB030313F4801FD7
S2140810F008BF013DF7D043EA0603704794EA0C0F91
S2140811000CEA135518BF95EA0C0F0CD050EA4106A6
S21408111018BF52EA4306D1D181EA030101F0004123
S2140811204FF0000070BD50EA410606BF104619464B
S21408113052EA430619D094EA0C0F02D150EA013657
S21408114013D195EA0C0F05D152EA03361CBF104698
S21408115019460AD181EA030101F0004141F0FE4137
S21408116041F470014FF0000070BD41F0FE4141F4BB
S214081170780170BD70B54FF0FF0C4CF4E06C1CEABB
S21408118011541DBF1CEA135594EA0C0F95EA0C0F70
S21408119000F0A7F8A4EB050481EA030E52EA03352B
S2140811A04FEA013100F088804FEA03334FF080554C
S2140811B045EA131343EA12634FEA022245EA111579
S2140811C045EA10654FEA00260EF000419D4208BF2A
S2140811D0964244F1FD0404F5407402D25B084FEAD7
S2140811E03202B61A65EB03055B084FEA32024FF483
S2140811F080104FF4002CB6EB020E75EB030E22BFE0
S214081200B61A754640EA0C005B084FEA3202B6EB9F
S214081210020E75EB030E22BFB61A754640EA5C004E
S2140812205B084FEA3202B6EB020E75EB030E22BFDE
S214081230B61A754640EA9C005B084FEA3202B6EBDF
S214081240020E75EB030E22BFB61A754640EADC009E
S21408125055EA060E18D04FEA051545EA16754FEA00
S21408126006164FEAC30343EA52734FEAC2025FEA1E
S2140812701C1CC0D111F4801F0BD141EA00014FF0AD
S21408128000004FF0004CB6E711F4801F04BF01437E
S2140812900020B4F1FD0C88BFBCF5E06F3FF6AFAE9A
S2140812A0B5EB030C04BFB6EB020C5FEA500C50F12A
S2140812B0000041EB045170BD0EF0004E4EEA1131AD
S2140812C014EB5C04C2BFD4EB0C0541EA045170BDB4
S2140812D041F480114FF0000E013C90E645EA060EF8
S2140812E08DE60CEA135594EA0C0F08BF95EA0C0F26
S2140812F03FF43BAF94EA0C0F0AD150EA01347FF46E
S21408130034AF95EA0C0F7FF425AF104619462CE744
S21408131095EA0C0F06D152EA03353FF4FDAE1046A7
S214081320194622E750EA410618BF52EA43067FF4F8
S214081330C5AE50EA41047FF40DAF52EA43057FF488
S214081340EBAE12E74FF0FF3C06E000BF4FF0010C93
S21408135002E000BF4FF0010C4DF804CD4FEA410CF7
S2140813607FEA6C5C4FEA430C18BF7FEA6C5C1BD0C4
S21408137001B050EA410C0CBF52EA430C91EA030F45
S21408138002BF90EA020F0020704710F1000F91EAA2
S214081390030F58BF994208BF90422CBFD8176FEA70
S2140813A0E37040F0010070474FEA410C7FEA6C5C3E
S2140813B002D150EA013C07D14FEA430C7FEA6C5C45
S2140813C0D6D152EA033CD3D05DF8040B704700BF71
S2140813D08446104662468C461946634600E000BFBF
S2140813E001B5FFF7B7FF002848BF10F1000F01BD91
S2140813F04DF808EDFFF7F4FF0CBF012000205DF85C
S21408140008FB00BF4DF808EDFFF7EAFF34BF0120E0
S21408141000205DF808FB00BF4DF808EDFFF7E0FF79
S21408142094BF012000205DF808FB00BF4DF808EDCA
S214081430FFF7CEFF94BF012000205DF808FB00BF31
S2140814404DF808EDFFF7C4FF34BF012000205DF813
S21408145008FB00BF4FEA410212F5001215D211D55B
S2140814606FF47873B3EB625212D94FEAC12343F094
S214081470004343EA505311F0004F23FA02F018BF16
S214081480404270474FF00000704750EA013005D1DF
S21408149011F0004008BF6FF0004070474FF00000A2
S2140814A0704700BF4FEA4102B2F1E04324BFB3F5EC
S2140814B0001CDCF1FE5C0DD901F0004C4FEAC002BE
S2140814C04CEA5070B2F1004F40EB830008BF20F0A2
S2140814D00100704711F0804F21D113F13872BCBF5C
S2140814E001F00040704741F480114FEA5252C2F1B1
S2140814F01802C2F1200C10FA0CF320FA02F018BFFA
S21408150040F001004FEAC1234FEAD32303FA0CFC4C
S21408151040EA0C0023FA02F34FEA4303CCE77FEADB
S214081520625307D150EA01331EBF4FF0FE4040F425
S2140815304000704701F0004040F0FE4040F40000D4
S214081540704700BF80F0004002E000BF81F0004115
S21408155042001FBF5FEA410392EA030F7FEA226C4C
S2140815607FEA236C6AD04FEA1262D2EB1363C1BFDC
S214081570D218414048404140B8BF5B42192B88BF4B
S214081580704710F0004F40F4000020F07F4018BF6E
S214081590404211F0004F41F4000121F07F4118BF8E
S2140815A0494292EA030F3FD0A2F1010241FA03FC36
S2140815B010EB0C00C3F1200301FA03F100F000431E
S2140815C002D5494260EB4000B0F5000F13D3B0F1E6
S2140815D0807F06D340084FEA310102F10102FE2A55
S2140815E051D2B1F1004F40EBC25008BF20F00100C5
S2140815F040EA03007047490040EB000010F4000F73
S214081600A2F10102EDD1B0FA80FCACF1080CB2EB05
S2140816100C0200FA0CF0AABF00EBC2505242184364
S214081620BCBFD0401843704792F0000F81F4000109
S21408163006BF80F400000132013BB5E74FEA4103DC
S2140816407FEA226C18BF7FEA236C21D092EA030F48
S21408165004D092F0000F08BF0846704790EA010FC2
S2140816601CBF0020704712F07F4F04D1400028BFEF
S21408167040F00040704712F100723CBF00F50000D1
S214081680704700F0004343F0FE4040F40000704707
S2140816907FEA226216BF08467FEA236301464202B3
S2140816A006BF5FEA412390EA010F40F480007047C6
S2140816B04FF0000304E000BF10F0004348BF40426C
S2140816C05FEA000C08BF704743F0964301464FF0A8
S2140816D000001CE050EA010208BF70474FF0000304
S2140816E00AE000BF50EA010208BF704711F0004345
S2140816F002D5404261EB41015FEA010C02BF844615
S2140817000146002043F0B64308BFA3F18053A3F573
S2140817100003BCFA8CF2083AA3EBC25310DB01FABA
S21408172002FC634400FA02FCC2F12002BCF1004F3E
S21408173020FA02F243EB020008BF20F001007047CF
S21408174002F1200201FA02FCC2F1200250EA4C0023
S21408175021FA02F243EB020008BF20EADC70704769
S2140817604FF0FF0C1CEAD0521EBF1CEAD15392EA77
S2140817700C0F93EA0C0F6FD01A4480EA010C400253
S21408178018BF5FEA41211ED04FF0006343EA5010AD
S21408179043EA5111A0FB01310CF00040B1F5000FEF
S2140817A03EBF490041EAD3715B0040EA010062F19E
S2140817B07F02FD2A1DD8B3F1004F40EBC25008BF88
S2140817C020F00100704790F0000F0CF0004C08BFA6
S2140817D049024CEA502040EA51207F3AC2BFD2F173
S2140817E0FF0340EAC250704740F400004FF0000381
S2140817F0013A5DDC12F1190FDCBF00F000407047BB
S214081800C2F10002410021FA02F1C2F1200200FAF8
S21408181002FC5FEA310040F1000053EA4C0308BFBF
S21408182020EADC70704792F0000F00F0004C02BF10
S214081830400010F4000F013AF9D040EA0C0093F08B
S214081840000F01F0004C02BF490011F4000F013BE5
S214081850F9D041EA0C018FE70CEAD15392EA0C0F53
S21408186018BF93EA0C0F0AD030F0004C18BF31F0BE
S214081870004CD8D180EA010000F00040704790F094
S214081880000F17BF90F0004F084691F0000F91F038
S214081890004F14D092EA0C0F01D142020FD193EAFE
S2140818A00C0F03D14B0218BF084608D180EA010086
S2140818B000F0004040F0FE4040F40000704740F062
S2140818C0FE4040F4400070474FF0FF0C1CEAD05230
S2140818D01EBF1CEAD15392EA0C0F93EA0C0F69D08C
S2140818E0A2EB030280EA010C49024FEA402037D0F7
S2140818F04FF0805343EA111143EA10130CF00040EE
S2140819008B4238BF5B0042F17D024FF4000C8B42DD
S21408191024BF5B1A40EA0C00B3EB510F24BFA3EBBD
S214081920510340EA5C00B3EB910F24BFA3EB91038D
S21408193040EA9C00B3EBD10F24BFA3EBD10340EAE7
S214081940DC001B0118BF5FEA1C1CE0D1FD2A3FF62D
S21408195050AF8B4240EBC25008BF20F001007047E2
S2140819600CF0004C4CEA50207F32C2BFD2F1FF0385
S21408197040EAC250704740F400004FF00003013AB6
S21408198037E792F0000F00F0004C02BF400010F45A
S214081990000F013AF9D040EA0C0093F0000F01F06E
S2140819A0004C02BF490011F4000F013BF9D041EA90
S2140819B00C0195E70CEAD15392EA0C0F08D14202C3
S2140819C07FF47DAF93EA0C0F7FF470AF084676E796
S2140819D093EA0C0F04D14B023FF44CAF08466EE76F
S2140819E030F0004C18BF31F0004CCAD130F000423D
S2140819F07FF45CAF31F000437FF43CAF5FE700BF95
S214081A004FF0FF3C06E000BF4FF0010C02E000BFBD
S214081A104FF0010C4DF804CD4FEA40024FEA41035F
S214081A207FEA226C18BF7FEA236C11D001B052EA15
S214081A30530C18BF90EA010F58BFB2EB030088BFDB
S214081A40C81738BF6FEAE17018BF40F0010070474A
S214081A507FEA226C02D15FEA402C05D17FEA236C2C
S214081A60E4D15FEA412CE1D05DF8040B704700BF73
S214081A70844608466146FFE70FB5FFF7C9FF00280A
S214081A8048BF10F1000F0FBD4DF808EDFFF7F4FF43
S214081A900CBF012000205DF808FB00BF4DF808EDDC
S214081AA0FFF7EAFF34BF012000205DF808FB00BFFF
S214081AB04DF808EDFFF7E0FF94BF012000205DF821
S214081AC008FB00BF4DF808EDFFF7D2FF94BF0120D2
S214081AD000205DF808FB00BF4DF808EDFFF7C8FFCB
S214081AE034BF012000205DF808FB00BF4FEA400223
S214081AF0B2F1FE4F0FD34FF09E03B3EB12620DD92F
S214081B004FEA002343F0004310F0004F23FA02F098
S214081B1018BF404270474FF00000704712F1610F3F
S214081B2001D1420205D110F0004008BF6FF0004016
S214081B3070474FF00000704770B50F4E0F4D761B7C
S214081B40B61018BF002405D0013455F8043B984752
S214081B50A642F9D10A4E0B4D01F030FD761BB610A1
S214081B6018BF002406D0013455F8043B9847A6420F
S214081B70F9D170BD70BD00BFC8350800C83508006B
S214081B80D0350800C835080070B4860746D0541EFD
S214081B90002A41D0CAB2034602E014F1FF343BD310
S214081BA003F8012B9D07F8D1032C2ED9CDB245EAB0
S214081BB005250F2C45EA054519D9264603F11002D6
S214081BC0103E0F2E42F8105C42F80C5C42F8085C97
S214081BD042F8045C02F11002F2D8A4F1100222F0D6
S214081BE00F0204F00F041032032C13440DD91E46BE
S214081BF02246043A032A46F8045BFAD8221F22F043
S214081C0003020432134404F003042CB1C9B21C4482
S214081C1003F8011B9C42FBD170BC70471446034670
S214081C20C2E700BFF0B5054689B008460C4601274E
S214081C3000F04EF80226C31920490393AB6B04AA9A
S214081C4004940590AC68079702960691019253B3E0
S214081C50636E13F0010FB4F90C309AB201D19005F7
S214081C6025D5910406D4626E43F4005322F400523C
S214081C70A3816266284601AA214600F04BFB636EE4
S214081C8000280CBF0A254FF0FF35DA0702D4A389CF
S214081C909B0502D5284609B0F0BDA06D00F0E2FC11
S214081CA0284609B0F0BD284600F0A8F9D0E7A06D90
S214081CB000F0D6FCB4F90C309AB2D2E7B835080072
S214081CC0024B01461868FFF7ADBF00BF04000020AE
S214081CD020F0030110F00300C0F1000051F8043BA7
S214081CE000F1040C4FEACC0C6FF000021CBF22FA7D
S214081CF00CF213434FF0010C4CEA0C2C4CEA0C4C3B
S214081D00A3EB0C0222EA030212EACC1204BF51F833
S214081D10043B0430F4D0C2F1000102EA0102B2FA30
S214081D2082F2C2F11F0200EBD200704738B5304B82
S214081D30054618680C4610B1836B002B38D0B4F9EA
S214081D400C2093B218070CD52069A8B113F001022D
S214081D501ED000226369A2605B42A361F0B1002036
S214081D6038BDD9063BD5580725D4206942F0080364
S214081D70A3819BB20028E9D103F42072B2F5007F54
S214081D80E4D02846214600F09DFCA3892069DDE7BB
S214081D90990758BF6269A2600028E0D1B4F90C30F0
S214081DA01A06DDD543F04003A3814FF0FF3038BD57
S214081DB000F024F9C3E7216B51B104F140039942BE
S214081DC004D0284600F0C0F9B4F90C200023236399
S214081DD00023206922F0240284E80900C6E70923C4
S214081DE042F040022B604FF0FF30A28138BD00BFA2
S214081DF004000020024B13B1024800F005B87047F3
S214081E000000000075200800002301461A46184600
S214081E1001F092BAB1F90C302DE9F0419AB20D46AC
S214081E20110780463AD46A6843F40063002AAB81F7
S214081E3070DDAC6A002C4AD000229BB2D8F800604D
S214081E40C8F8002013F4805268D02A6D5F0705D5BD
S214081E5069682B6B521A0BB1EB6BD21A0023E9692F
S214081E604046A047441C3DD00021B5F90C302A69ED
S214081E7023F40063AB81DB0469602A6048D4296BCD
S214081E80C8F8006019B305F14003994202D04046ED
S214081E9000F05AF900202863BDE8F0812E69B6B133
S214081EA0910718BF00232C6808BF6B692E60A41B17
S214081EB0AB600AE0234632466F6AE9694046B8478F
S214081EC00028A4EB0004064404DD002CF2DC002005
S214081ED0BDE8F081AB894FF0FF3043F04003AB819B
S214081EE0BDE8F081D8F800401D2CF3D8164BE34027
S214081EF0DB4313F00103EDD1B5F90C20296922F470
S214081F000062AA81D2046B602960B8D5002CB6D1CD
S214081F102865B4E7EA6B002A8BDCD8E70123E96971
S214081F204046A047431C024602D0AB89AC6A8DE700
S214081F30D8F80030002BF8D01D2B01D0162BC9D1AD
S214081F40C8F80060C3E700BF0100402038B50D465A
S214081F50044608B1836BBBB1B5F90C0088B16B6E4B
S214081F60DB0701D4810517D520462946FFF752FF1F
S214081F706B6E0446DA0702D4AB899B0507D5204664
S214081F8038BD0446204638BD00F038F8E4E7A86DAA
S214081F9000F068FB204638BDA86D00F061FBE3E75B
S214081FA0014900F031BB00BF21340800002310B5FA
S214081FB004468181C281036043608360436603618F
S214081FC043618361194608225C30FFF7DDFD074848
S214081FD00749084A084B2062E4616162A262E3622C
S214081FE004F15800BDE8104000F036BB8532080002
S214081FF0A9320800E53208000533080010B5044683
S214082000144800F02DFBA26BFAB90320124904F518
S2140820103B73C4F8E832C4F8E022C4F8E402E1638B
S21408202060680421FFF7C2FFA06801220921FFF7B4
S214082030BDFFE06802221221FFF7B8FF012305481A
S214082040A363BDE8104000F00DBB0248BDE8104091
S21408205000F008BBB40C0020A11F0800014800F0DF
S214082060FFBA00BFC80C0020014800F0FBBA00BF4A
S214082070C80C002038B50A4C0A4D641BA4100AD0B8
S21408208004F18043013B05EB8305013C55F8043910
S2140820909847002CF9D1BDE8384001F099BA00BF3E
S2140820A0E0350800DC350800F8B50C46234F064630
S2140820B000F014FFBB68C4F57E615D680F3125F03B
S2140820C00305294421F47F6121F00F01A1F580540E
S2140820D0B4F5805F07DB0021304601F0C1F8BB6825
S2140820E02B44984204D0304600F0FEFE0020F8BD8F
S2140820F06142304601F0B4F801300DD0104BBA6892
S21408210019682D1B45F001053046091B55601960F6
S21408211000F0EAFE0120F8BD0021304601F0A0F8E4
S214082120BA68831A0F2BDEDD064C0549246843F08F
S2140821300103001B53600860D5E700BF3404002085
S214082140740C00203C080020002944D02DE9F041FA
S2140821500D46804600F0C2FE55F8047C6949A5F194
S214082160080427F00103E2188E685068B24220F08F
S21408217003005ED0FE0750600BD455F8087C01F1CA
S214082180080EE41BA5683B4475456DD0E768EF600C
S214082190BD6015186D68ED073ED543F00102626014
S2140821A0E350B3F5007F17D20122DB0898104D687C
S2140821B0134451F83370824001EBC3002A430838B1
S2140821C0E060A7604A6041F83340FC604046BDE8DE
S2140821D0F04100F089BE70475A0A042A52D89A0974
S2140821E002F13907FF0002F13805C819CA5908383C
S2140821F090424FD0516821F003018B4232D2926848
S2140822009042F7D1C368A060E3609C60C460404613
S214082210BDE8F04100F068BE95683B4F0344BD42F8
S21408222040D0D06843F00102E86085606260E35001
S214082230B7E7FF07034407D455F8085C641BE26851
S214082240A0682B44C2609060304A43F001001268D0
S214082250606093428C60B9D32D4B40461968FFF7EF
S21408226023FFB3E71046CDE711184968C90744D4D9
S21408227091680344D26843F00100CA6091606060C8
S214082280E350A3E7142A16D802F15C07FF0002F110
S2140822905B05AAE70123AA104D6893402B434B60C1
S2140822A00346B0E743F001024C610C61E560A560A7
S2140822B06260E3508AE7542A06D81A0B02F16F07C1
S2140822C0FF0002F16E0590E7B2F5AA7F06D8DA0B92
S2140822D002F17807FF0002F1770586E740F25450CE
S2140822E0824206D89A0C02F17D07FF0002F17C05AF
S2140822F07BE74FF47E777E2577E743F00101616040
S214082300136063E7340400203C04002040080020E3
S214082310A40C00209368002B71D02DE9F04F8B8910
S21408232083B00C4619070090164625D522691AB3BD
S21408233013F0020035682BD04FF00009B0464F4620
S214082340DFF8C0A2002F55D057453B464A4628BF5F
S2140823505346E1690098666AB047002856DDD8F803
S214082360083081441B1A3F1AC8F80830002BE9D1F8
S214082370002003B0BDE8F08F21460098FFF7D6FC92
S214082380002840F03581A389356813F00200D3D1C0
S21408239013F0010944D14F46019637B39A05D4F88D
S2140823A0088040F185804745C346C0F0AD8013F4E9
S2140823B0906F40F0AE80BA4620685A46494600F00C
S2140823C029FDA2682368A2EB08025B44A26023608A
S2140823D0019AD1449368A7EB0A07A3EB0A03936014
S2140823E0002BC5D0A389002FD8D1D5F800906F68E8
S2140823F00835D2E7D5F800906F680835A2E70020C0
S214082400704721460098FFF7A1FD78B3B4F90C3061
S2140824104FF0FF3043F04003A38103B0BDE8F08FD0
S214082420814633464E46A8469A464D4656B3002839
S21408243032D0B145CB4628BFB346206823695F46ED
S2140824409842626904D9A36813449B4500F3A880A0
S21408245093454DDB1346676A2A46E1690098B847F4
S214082460071ED3DDB9EB0709CBD00120DAF8083010
S2140824703D44DB1BF61BCAF80830002B3FF478AF48
S214082480002ED4D108F1080353F8046C984653F884
S214082490085C0833002EF7D032460A21284600F09A
S2140824A0FDFB002800F0A1800130A0EB0509C0E77D
S2140824B020682369984202D863699F425DD2B8456E
S2140824C028BFB8464946424600F0A4FCA3682268DE
S2140824D0A3EB08034244A36022600BB1C24677E729
S2140824E021460098FFF732FD00288FD1C2466FE7D5
S2140824F05A46294600F08EFCA2682368A2EB0B0217
S2140825005B44A2602360ADE7B846BA46BB4620687F
S21408251053E762692068216902EB4208A0EB010ACA
S21408252008EBD8780AF101004FEA680838444045B5
S214082530424684BF804642465B0544D5114600980D
S21408254000F00AF98346002855D05246216900F063
S214082550EBFBA38923F4906343F08003A3810BEB82
S2140825600A00A8EB0A03C4F810B0C4F81480206068
S214082570A360B846BA46BB461FE76FF00042BA42A9
S21408258028BF3A4692FBF3F2E16903FB02F3009890
S2140825904A46666AB047B0F1000A3FF719AF35E712
S2140825A01A462946019300F035FC2268019B21460D
S2140825B01A4422600098FFF7C9FC019B00287FF4A4
S2140825C025AF1F464EE7009800F094FC8346002887
S2140825D0C5D1009D21692846FFF7B6FD0C22B4F93F
S2140825E00C302A6023F0800312E706F1010920E781
S2140825F04FF0FF30BDE60C220099B4F90C300A60A3
S21408260006E700BF00FCFF7F2DE9F84310F5387693
S2140826101ED0884607464FF000097568B468013D25
S21408262010D4A389013D012B08D9B4F90E30013323
S21408263004D021463846C04749EA00096B1C04F115
S2140826406804EED13668002EE7D14846BDE8F88320
S214082650B1464846BDE8F883704700BF704700BFDC
S214082660704700BF704700BF70B50C46B1F90E1032
S21408267090B0002915461E4614DB01AA00F032FF6A
S21408268000280FDB029A4FF4806302F47042A2F52A
S2140826900052B2FA82F24FF40060520932602B60A0
S2140826A010B070BD0023A289336012F0800004D0F9
S2140826B0402218462A6010B070BD4FF480632B6025
S2140826C010B070BD8A890B46920706D5012103F122
S2140826D0430259611A601A617047F0B583B001ABBE
S2140826E06A460C460646FFF7BFFF00990546304681
S2140826F000F032F8B4F90C30D8B19DE80600154F52
S21408270043F08003F763A3812060206161611AB9F2
S2140827102B43A38103B0F0BD3046B4F90E1000F089
S214082720F5FEA0B1A38923F0030343F001031BB20F
S214082730EEE79A05EED4012123F0030304F14302E1
S21408274043F00203A381616122602261E2E7B4F9E3
S2140827500C30DDE7A11F08002DE9F04F01F10B064C
S214082760162E83B0054640F29E8036F0070600F126
S214082770BD80B14200F2BA8000F0B0FBB6F5FC7F2F
S214082780C0F08582730A00F0B880042B00F26C81D2
S214082790B30903F1390003F1380EC100B84F3944C4
S2140827A04C680839A14206D10CE0002A80F2AB80BA
S2140827B0E468A14206D0636823F003039A1B0F2A35
S2140827C0F3DD70463C69DFF8CCE2744500F09E8184
S2140827D0636823F003039A1B0F2A00F38381002AF9
S2140827E0C7F814E0C7F810E080F29180B3F5007FD0
S2140827F080F054810122DB0879684FEAA30C134461
S21408280057F8338002FA0CF207EBC30C0A43ACF114
S2140828100801E160C4F808807A6047F83340C8F8D1
S2140828200C40012483109C4094427DD8144206D163
S21408283020F003006400144200F10400FAD007EB0D
S214082840C009CC468046DCF80C309C4507D15FE1D1
S214082850002A80F26D81DB689C4500F05981596832
S21408286021F003018A1B0F2AF2DDDC68D3F808C0C2
S21408287046F0010828461E4442F00105C3F80480C5
S214082880CCF80C40C4F808C07E613E61C6F80CE07F
S214082890C6F808E075605A50009300F025FB009BC8
S2140828A003F108041EE0102920D800F017FB1026B4
S2140828B018230220724F3B445C68A3F10802944236
S2140828C000F02F816368E16823F0030323445A6805
S2140828D0A66842F00102F16028468E605A6000F051
S2140828E003FB0834204603B0BDE8F08F00240C2311
S2140828F020462B6003B0BDE8F08F40204FF40071EF
S2140829004FF03F0E4AE723445A68E168E0E723445D
S2140829105A68284642F001025A60083400F0E4FA81
S214082920204603B0BDE8F08FBC68636823F0030850
S214082930B04504D3A8EB06030F2B00F38580DFF819
S2140829405891504BD9F800201B680132334404EBE9
S214082950080A00F0548103F580530F3323F47F6B85
S2140829602BF00F0B5946284600F07AFC411C02460D
S21408297000F0FB80824500F2F680434B1968594404
S214082980196000F04C81D9F8000001301BBFA2EB9B
S2140829900A0A5144C9F80020196012F0070100F02D
S2140829A01481C1F10800C1F580510244083102EBD8
S2140829B00B09C9F30B09A1EB0909494628460193F7
S2140829C0009200F04DFC431C9DE80C0000F042818C
S2140829D0801A484440F001001968BC424944BA606D
S2140829E01960506017D0B8F10F0F40F2FA804FF018
S2140829F0050C6268A8F10C0020F0070002F001023E
S214082A0004EB000E02430F286260CEF804C0CEF82E
S214082A1008C000F216811D4BBC681A68914288BF30
S214082A2019601B4B1A689142626888BF196022F0C9
S214082A3003029642A2EB060301D80F2B04DC2846B5
S214082A4000F052FA00244DE746F0010243F0010375
S214082A50264462602846BE600834736000F044FA74
S214082A60204603B0BDE8F08F142B70D9542B00F223
S214082A70A280330B03F16F0003F16E0EC1008DE6E2
S214082A8034040020A40C0020740C00209C0C0020A9
S214082A90A00C00203C0400203C0800205A0A042A07
S214082AA05BD9142A00F2AE8002F15C01C9005B32E1
S214082AB007EB010C7958ACF1080C8C4500F08880BF
S214082AC04A6822F00302934273D289688C45F7D18C
S214082AD0DCF80C307A68E360C4F808C09C60CCF870
S214082AE00C409EE646F0010C42F001012644C4F86C
S214082AF004C028467E613E61C6F80CE0C6F808E0C9
S214082B007160E25000F0F0F90834EBE67A6888E67F
S214082B1008F1010818F0030F0CF1080C7FF493AEC7
S214082B202DE0DC68A34208BF02303FF44BAEC9E68E
S214082B301C4619444A68DB6854F8086F42F00102DC
S214082B404A602846F3609E6000F0CEF9CAE603F1B4
S214082B505C0003F15B0EC10020E69A0902F1390118
S214082B60C9003832A4E7BC4254D0BC68626822F078
S214082B7003025EE759F80839994540F0868010F058
S214082B80030F00F1FF30F5D17B6823EA04037B606E
S214082B9064009C423FF6C8AE002C3FF4C5AE1C420B
S214082BA040467FF44CAE64001C4200F10400FAD0A4
S214082BB045E68C468CE7B3F5AA7F15D8F30B03F1E8
S214082BC0780003F1770EC100E8E54FF48051EEE691
S214082BD001217B68921001FA02F21A437A60634672
S214082BE079E7012353602AE740F25452934222D8E9
S214082BF0B30C03F17D0003F17C0EC100CEE503F1B2
S214082C00100BAFE6542A29D81A0B02F16F01C90037
S214082C106E324DE7204B196859441960B3E6CAF37B
S214082C200B0000287FF4AFAE08EB0B03BA6843F03E
S214082C3001035360EFE67F204FF47E714FF07E0E5F
S214082C40ACE504F1080128460093FFF77DFA009BDF
S214082C501968E0E601204FF00009BDE6B2F5AA7F44
S214082C6005D8DA0B02F17801C900773220E740F27E
S214082C7054518A4205D89A0C02F17D01C9007C326B
S214082C8016E74FF47E717E2212E77B6880E7F0082D
S214082C9006F108030EE600BF740C0020830770B424
S214082CA0CDB23DD0541E0AB30378AB421FD0431CA6
S214082CB005E014F1FF3419D30278AA4217D013F0AE
S214082CC0030F184603F10103F3D1032C11D84CB3B4
S214082CD00378AB420BD00444431C02E00278AA42B5
S214082CE005D09C42184603F10103F7D1002070BCBA
S214082CF07047090289B2294341EA0141036806463A
S214082D004B40A3F1013222EA030313F0803F00F19F
S214082D10040003D1043C032CF0D8D8E73046D7E7A4
S214082D201446D2E72046E2E7844641EA000313F059
S214082D30030349D1403A23D30B6803604B684360CA
S214082D408B688360CB68C3600B6903614B6943611A
S214082D508B698361CB69C3610B6A03624B6A436202
S214082D608B6A8362CB6AC3620B6B03634B6B4363EA
S214082D708B6B8363CB6BC36340304031403ADBD206
S214082D8030320BD30B6803604B6843608B688360F4
S214082D90CB68C36010301031103AF3D20C3205D32A
S214082DA051F8043B40F8043B043AF9D2043208D000
S214082DB0D2071CBF11F8013B00F8013B01D30B8872
S214082DC003806046704700BF082A13D38B07B1D02C
S214082DD010F00303AED0C3F10403D21ADB071CBFFE
S214082DE011F8013B00F8013BA4D331F8023B20F868
S214082DF0023B9FE7043AD9D3013A11F8013B00F8A1
S214082E00013BF9D20B7803704B7843708B7883704C
S214082E10604670478842F0B50DD98B1898420AD29A
S214082E208418002A51D0224613F8014D994202F818
S214082E30014DF9D1F0BD0F2A48D941EA00039B0796
S214082E4046D1154600F1100401F1100353F8106C32
S214082E50103D44F8106C53F80C6C0F2D44F80C6CAD
S214082E6053F8086C04F1100444F8186C53F8046C12
S214082E7003F1100344F8146CE8D8A2F1100323F009
S214082E800F0302F00F0E1033BEF1030F194403446C
S214082E9021D90E4674461D1F56F8047B043C032CA5
S214082EA045F8047FF8D8AEF1040424F0030404348B
S214082EB02144234402F0030262B1013B0A4411F89C
S214082EC0014B8A4203F8014FF9D1F0BD0346F3E7F8
S214082ED00346F2E7F0BD7246EEE700BF0148FFF78B
S214082EE0BFBB00BFB80C00200148FFF7BBBB00BF44
S214082EF0B80C0020002900F094802DE9F04F0C460D
S214082F00154683B0804605F10B06FFF7E7FF54F831
S214082F1004EC162E2EF00307A4F108093CD810225C
S214082F201646B5423DD8974243DAC64B09EB07002A
S214082F309968884200F0C380436823F00101014481
S214082F404968C9074DD51EF0010F00F09B80294639
S214082F504046FFF701FC054600283BD054F8043CE1
S214082F60A0F1080223F001034B449A4200F02B819B
S214082F703A1F242A00F21881132A00F2EB8003462F
S214082F802246116819605168596092689A6021460D
S214082F904046FFF7D9F81DE026F00706002E324611
S214082FA0BFDA00250C232846C8F8003003B0BDE871
S214082FB0F08F2546BB1B0F2BD9F804201DD802F02E
S214082FC001023A4309EB0701C9F804204B6843F0AD
S214082FD001034B604046FFF787FF284603B0BDE86D
S214082FE0F08F23F00303F91891421DDBC36882684B
S214082FF02546D3600F469A60DCE702F0010209EB2B
S214083000060143F001033243C9F804204F444B60DD
S2140830107B68083143F001037B604046FFF794F86D
S214083020D8E71146FFF798BB1EF0010F8FD154F86A
S214083030081CA9EB010ADAF8041021F003010B4476
S2140830403B44934226DB5546C16880683A1FC160F8
S214083050886055F8080FDAF80C10242AC1608860D2
S21408306026D8132A40F2818021681B2ACAF808103D
S2140830706168CAF80C1000F2AD8004F108000AF185
S214083080100274E054F8083CA9EB030ADAF80410B6
S21408309021F003017B189342FFF659AF5546DAF83C
S2140830A00C1055F8080F3A1F242AC1608860D8D932
S2140830B0214628461F46D146FFF7ACFE7AE7416808
S2140830C006F1100021F0030BBB44834558DA1EF0C6
S2140830D0010F7FF43CAF54F8081CA9EB010ADAF894
S2140830E0041021F003018B445845D3DC5546DAF822
S2140830F00C1055F8080F3A1F242AC160886000F2A1
S2140831008D80132A40F2878021681B2ACAF8081087
S2140831106168CAF80C1000F2888004F108010AF108
S2140831201002086810604868506089689160ABEBC8
S21408313006020AEB060142F0010299604A60DAF8D4
S2140831400430404603F001031E43CAF80460FFF744
S214083150CBFE42E723681B2A03606368436027D8D0
S21408316000F1080304F108020BE720462A46016826
S2140831701F4611604168D14651608368936019E71D
S214083180ABEB060B09EB06014BF0010299604A60AF
S21408319054F8043C404603F001031E4344F8046C0C
S2140831A0FFF7A2FE254618E72146FFF733FEEEE6B0
S2140831B0A368242A8360E368C36018D000F110036C
S2140831C004F11002DDE650F8043C254623F003031C
S2140831D01F44EFE6A168242ACAF81010E168CAF866
S2140831E014100DD004F110000AF11802BFE7226986
S2140831F000F118030261616904F118024161C0E632
S214083200226904F11800CAF8182061690AF1200238
S214083210CAF81C10ABE721462A4682E7214628460C
S2140832200193FFF7F7FD019B81E7A168242ACAF8F6
S2140832301010E168CAF8141006D004F110010AF15B
S21408324018026EE734040020226904F11801CAF84F
S214083250182060690AF12002CAF81C0061E700BF5E
S21408326038B50023064C054608462360FDF754FC8F
S214083270431C00D038BD2368002BFBD02B6038BD1C
S214083280CC0C002010B50C46B1F90E1000F066F90B
S214083290002803DB236D0344236510BDA38923F4AC
S2140832A08053A38110BD00BF2DE9F0410C46B1F94B
S2140832B00C101F46CB051646054607D5B4F90E1062
S2140832C00223002200F034F9B4F90C1021F48051DE
S2140832D0A1813B463246B4F90E102846BDE8F041B7
S2140832E000F014B810B50C46B1F90E1000F020F92D
S2140832F0A389421C0EBF23F4805343F480532065F1
S214083300A38110BDB1F90E1000F078B8F8B50E46D6
S2140833100025084C114607461A4630462560FDF734
S2140833201DFC431C00D0F8BD2368002BFBD03B6077
S214083330F8BD00BFCC0C00202DE9F8432C4D0646FE
S214083340286898460F469146FFF78AF9294B1C6865
S214083350D4F84831002B3ED05A681F2A1CDC02F1EC
S214083360010E76B1012103EB8204C4F88890D3F8E5
S214083370880191400843022EC3F88801C4F80881E2
S21408338023D00232C3F804E0286843F82270FFF717
S21408339069F90020BDE8F883174B0BB34FF4C870E3
S2140833A0AFF300800346D8B10020D4F848114FF098
S2140833B0010E586019600246C4F84831C3F88801FF
S2140833C0C3F88C01002EDCD0CCE7D3F88C0101437F
S2140833D0C3F88C11D5E704F5A673C4F84831BBE7E3
S2140833E02868FFF73FF94FF0FF30BDE8F88300BFC5
S2140833F030040020B43508000000000038B500236B
S214083400064C054608462360FDF79CFB431C00D087
S21408341038BD2368002BFBD02B6038BDCC0C0020B1
S21408342070B559B105460C4610B1836B002B3CD0DD
S214083430636ED80705D5B4F90C302BB9002630468C
S21408344070BDA38999053CD521462846FEF7E2FCBF
S214083450E36A064633B1E169284698470028B8BFAC
S2140834604FF0FF36A3891A0622D4216B41B104F126
S2140834704003994202D02846FEF766FE00232363DF
S214083480616C21B12846FEF75FFE00236364FEF7F1
S214083490E5FD0022636EA281DB070ED5A06DFFF75F
S2140834A0DDF8FEF7E1FD304670BDFEF7A7FDBFE785
S2140834B021692846FEF748FED7E7A06DFFF7D2F841
S2140834C0ECE7A06DFFF7CCF8B4F90C30002BBBD1B5
S2140834D0666E16F00106B1D1A06DFFF7C3F8304648
S2140834E070BD00BF70B50D460023074C0646114652
S2140834F028462360FDF729FB431C00D070BD2368CF
S214083500002BFBD0336070BDCC0C002038B50023F0
S214083510064C054608462360FDF71CFB431C00D0F6
S21408352038BD2368002BFBD02B6038BDCC0C0020A0
S214083530F8B50E460025084C114607461A4630468A
S2140835402560FDF709FB431C00D0F8BD2368002B57
S214083550FBD03B60F8BD00BFCC0C0020F8B50E468B
S2140835600025084C114607461A4630462560FDF7E2
S21408357009FB431C00D0F8BD2368002BFBD03B603A
S214083580F8BD00BFCC0C0020484549207061207665
S214083590657264656E00000055415254207265637A
S2140835A065697665206275666665722066756C6CF8
S2140835B000000000080000200A000000F8B500BF60
S2140835C0F8BC08BC9E467047F51D0800190108009F
S2140835D0F8B500BFF8BC08BC9E467047F500080062
S2140835E000093D000800002000000000F40200204A
S2140835F05C030020C4030020000000000000000058
S21408360000000000000000000000000000000000AD
S214083610000000000000000000000000000000009D
S214083620000000000000000000000000000000008D
S214083630000000000000000000000000000000007D
S214083640000000000000000000000000000000006D
S214083650000000000000000000000000000000005D
S214083660000000000000000000000000000000004D
S214083670000000000000000000000000000000003D
S214083680000000000000000000000000000000002D
S21408369001000000000000000E33CDAB34126DE6CA
S2140836A0ECDE05000B000000000000000000000033
S2140836B000000000000000000000000000000000FD
S2140836C000000000000000000000000000000000ED
S2140836D000000000000000000000000000000000DD
S2140836E000000000000000000000000000000000CD
S214083A10A80C00200000000000000000340400206D
S214083A20340400203C0400203C0400204404002009
S214083A30440400204C0400204C04002054040020B9
S214083A40540400205C0400205C0400206404002069
S214083A50640400206C0400206C0400207404002019
S214083A60740400207C0400207C04002084040020C9
S214083A70840400208C0400208C0400209404002079
S214083A80940400209C0400209C040020A404002029
S214083A90A4040020AC040020AC040020B4040020D9
S214083AA0B4040020BC040020BC040020C404002089
S214083AB0C4040020CC040020CC040020D404002039
S214083AC0D4040020DC040020DC040020E4040020E9
S214083AD0E4040020EC040020EC040020F404002099
S214083AE0F4040020FC040020FC0400200405002048
S214083AF0040500200C0500200C05002014050020F5
S214083B00140500201C0500201C05002024050020A4
S214083B10240500202C0500202C0500203405002054
S214083B20340500203C0500203C0500204405002004
S214083B30440500204C0500204C05002054050020B4
S214083B40540500205C0500205C0500206405002064
S214083B50640500206C0500206C0500207405002014
S214083B60740500207C0500207C05002084050020C4
S214083B70840500208C0500208C0500209405002074
S214083B80940500209C0500209C050020A405002024
S214083B90A4050020AC050020AC050020B4050020D4
S214083BA0B4050020BC050020BC050020C405002084
S214083BB0C4050020CC050020CC050020D405002034
S214083BC0D4050020DC050020DC050020E4050020E4
S214083BD0E4050020EC050020EC050020F405002094
S214083BE0F4050020FC050020FC0500200406002043
S214083BF0040600200C0600200C06002014060020F0
S214083C00140600201C0600201C060020240600209F
S214083C10240600202C0600202C060020340600204F
S214083C20340600203C0600203C06002044060020FF
S214083C30440600204C0600204C06002054060020AF
S214083C40540600205C0600205C060020640600205F
S214083C50640600206C0600206C060020740600200F
S214083C60740600207C0600207C06002084060020BF
S214083C70840600208C0600208C060020940600206F
S214083C80940600209C0600209C060020A40600201F
S214083C90A4060020AC060020AC060020B4060020CF
S214083CA0B4060020BC060020BC060020C40600207F
S214083CB0C4060020CC060020CC060020D40600202F
S214083CC0D4060020DC060020DC060020E4060020DF
S214083CD0E4060020EC060020EC060020F40600208F
S214083CE0F4060020FC060020FC060020040700203E
S214083CF0040700200C0700200C07002014070020EB
S214083D00140700201C0700201C070020240700209A
S214083D10240700202C0700202C070020340700204A
S214083D20340700203C0700203C07002044070020FA
S214083D30440700204C0700204C07002054070020AA
S214083D40540700205C0700205C070020640700205A
S214083D50640700206C0700206C070020740700200A
S214083D60740700207C0700207C07002084070020BA
S214083D70840700208C0700208C070020940700206A
S214083D80940700209C0700209C070020A40700201A
S214083D90A4070020AC070020AC070020B4070020CA
S214083DA0B4070020BC070020BC070020C40700207A
S214083DB0C4070020CC070020CC070020D40700202A
S214083DC0D4070020DC070020DC070020E4070020DA
S214083DD0E4070020EC070020EC070020F40700208A
S214083DE0F4070020FC070020FC0700200408002039
S214083DF0040800200C0800200C08002014080020E6
S214083E00140800201C0800201C0800202408002095
S214083E10240800202C0800202C080020FFFFFFFFA5
S208083E20000002008F
S804080000F3
